:020000040800F2
:1000000078090020090100087B210008130100087D
:100010007921000899070008153000080000000049
:100020000000000000000000000000001B010008AC
:100030009B070008000000001F010008652C000855
:100040002301000823010008230100082301000800
:1000500023010008230100089D070008E7070008A6
:10006000F707000807080008170800082301000820
:1000700023010008230100082301000823010008D0
:1000800023010008230100082301000823010008C0
:1000900023010008230100082301000827080008A5
:1000A00000000000230100082301000823010008CC
:1000B000292E0008352E000823010008230100081E
:1000C0002301000823010008230100082301000880
:1000D00023010008CD2F0008230100082301000898
:1000E000AD0700087524000823010008230100085B
:1000F00023010008DFF80CD000F0B2FA00480047F6
:100100006933000878090020064880470648004700
:10011000FEE7FEE7FEE7FEE7FEE7FEE7FEE7FEE7B7
:10012000FEE7FEE7D92D0008F500000840EA0103CC
:100130009B0703D009E008C9121F08C0042AFAD29D
:1001400003E011F8013B00F8013B521EF9D2704761
:100150002DE9FE4F804681EA0300C00F0C46009057
:1001600021F0004123F00045B8EB0200A94105D27F
:100170004046214690461C460B46024623F000406E
:10018000104347D0270DC7F30A00C3F30A5102906A
:10019000401A019040286BDAC3F3130040F4801B2F
:1001A0000098924620B10023D2EB030A63EB0B0BBD
:1001B00001985946C0F14002504600F07FF90646CA
:1001C0000D4650465946019A00F097F910EB080089
:1001D0006141002487EA115284EAE7731A4340D050
:1001E000009A62B3019A012A4FEA075215DC001BFC
:1001F00061EB02014FF0004202EA0752CDE90042F2
:10020000001C41F5801132462B4600F097F903B0EF
:10021000BDE8F08F40462146F9E7001B61EB020183
:10022000001C41F5801300185B412018A2F500174F
:1002300047EB030140EAD570B6196D4111E06D0836
:100240004FEA360645EAC0754FEA0752001B61EBDC
:100250000201001C41F5801149084FEA30000019E5
:10026000514132462B4603B0BDE8F04F00F057B97C
:100270000098012240000023D0EB020263EBE07300
:10028000009821464FEAE074B8EB000061EB0401EE
:10029000E9E783F000435BE781F0004158E72DE98F
:1002A000FE4F81EA030404F0004421F00041009471
:1002B0004FF0000B23F0004350EA01045ED052EAF5
:1002C00003045BD0C3F30A54C1F30A552C44A4F2CF
:1002D000F3340194A0FB0254C1F3130141F48011E3
:1002E000C3F3130343F4801301FB024400FB034EEA
:1002F000840A970A44EA815447EA8357A4FB0768B3
:1003000002958D0A05FB07854FEA932C04FB0C54DC
:100310002705029D4FEA065847EA1637B5EB080550
:100320006EEB070C870E920E47EA811742EA8312A2
:10033000A7FB0201B6EB0B0164EB00042B0D43EAB3
:100340000C335E1844EB1C50DA465146E7FB0201C1
:10035000C5F313044FEA0B3343EA14534FEA043254
:10036000019C43EA0603A4F10C040294009CCDE92D
:1003700000B400F0E3F803B0BDE8F08F00200146C0
:10038000F9E70EB5C10F80EAE0700844CA07002102
:1003900040F233438DE80E000A460B4600F0CEF8DB
:1003A00003B000BD0EB540F2334102910021CDE90A
:1003B00000110A460B4600F0C1F803B000BD70B54D
:1003C000C1F30A5201F000450024C1F3130140F2C9
:1003D000FF3341F480119A4201DA002070BD40F2EF
:1003E00033439A42A2F2334203DC524200F075F8E2
:1003F00000E090402C43F1D0404270BDC1F30A525E
:1004000010B5C1F3130140F2FF3341F480119A4259
:1004100001DA002010BD40F233439A42A2F2334287
:1004200003DC524200F059F810BD904010BD0000AE
:1004300030B5041E71F1000404DB4FF0004440426B
:1004400064EB0101141E73F1000405DB1C464FF040
:100450000043524263EB04038B4208BF824230BD2B
:1004600030B5041E71F1000404DB4FF0004440423B
:1004700064EB0101141E73F1000405DB1C464FF010
:100480000043524263EB0403994208BF904230BDDF
:1004900030B50B46014600202022012409E021FA54
:1004A00002F59D4205D303FA02F5491B04FA02F551
:1004B0002844151EA2F10102F1DC30BD202A04DB24
:1004C000203A00FA02F1002070479140C2F1200367
:1004D00020FA03F3194390407047202A04DB203AA6
:1004E00021FA02F00021704721FA02F3D040C2F154
:1004F00020029140084319467047202A06DBCB179B
:10050000203A41FA02F043EAE07306E041FA02F3CE
:10051000D040C2F12002914008431946704710B5FF
:10052000141E73F1000408DA401C41F10001921816
:100530005B411A4301D120F0010010BD2DE9F04DBF
:1005400092469B4611B1B1FA81F202E0B0FA80F214
:1005500020329046FFF7B2FF04460F4640EA0A00F9
:1005600041EA0B0153465A46084313D0114653EA59
:10057000010019D0C8F140025046FFF7AEFF054612
:100580000E46504659464246FFF798FF084305D0AD
:10059000012004E020463946BDE8F08D00200543E7
:1005A00046EAE0762C4337430A986305E40AA0EB59
:1005B00008000022FD0A44EA47540A3002D5002010
:1005C0000146E9E7010510196941DDE9084500190F
:1005D0006941BDE8F04DA2E72DE9F041054621F063
:1005E00000400C46284309D0C4F30A5040F233417E
:1005F000884205DD28462146BDE8F0812846FBE714
:1006000040F2FE31884210DC0CDB4FEA043040EA55
:10061000155050EA053105D0104804F0004101435F
:100620000020E9E700200146E6E7A0F23340464219
:10063000C6F1400228462146FFF740FF074688469C
:10064000284621463246FFF748FF43463A46FFF721
:1006500066FF3246BDE8F041FFF730BF0000F03FD3
:10066000064C074D06E0E06840F0010394E80700FF
:1006700098471034AC42F6D3FFF740FD54360008DB
:100680007436000810B5040001D002F0A9F9014841
:10069000C47010BD8C00002072B602484178491C1D
:1006A000417070478800002004494878401E10F0CF
:1006B000FF00487000D162B670470000880000203B
:1006C00030B51B4D85B02878A0B102F021FB00BFEA
:1006D0004FF0FF300090052306220721154802F055
:1006E00039FA02F0E9F92878002801D101202870B0
:1006F00005B030BD00F064FA02F0BCFA02F028F94F
:100700000024009401230322122102A8019400F086
:10071000A0F8009400230322082102A8019400F00D
:1007200098F800F03DF900F02BF900F031F9CFE72F
:10073000880000204C0400201CB5002400942346AF
:10074000012203211348019400F083F8114800941A
:100750000023012218210C30019400F07AF80120C6
:10076000CDE900040B4800231A462D21183000F073
:1007700070F80121074800F001F9064801210C300A
:1007800000F0FCF8BDE81C4002480121183000F0E0
:10079000F5B80000D0000020FEE7704710B502F069
:1007A0001FF9BDE81040012000F020B910B502F09B
:1007B00017F94FF4806000F019F94FF4006000F071
:1007C00015F94FF4805000F011F94FF4005000F08B
:1007D0000DF94FF4804000F009F9BDE810404FF4E6
:1007E000004000F003B910B502F0FAF8BDE810407F
:1007F000022000F0FBB810B502F0F2F8BDE810409E
:10080000042000F0F3B810B502F0EAF8BDE810409B
:10081000082000F0EBB810B502F0E2F8BDE8104097
:10082000102000F0E3B810B502F0DAF8202000F054
:10083000DDF8402000F0DAF8802000F0D7F84FF41F
:10084000807000F0D3F8BDE810404FF4007000F065
:10085000CDB87CB5DDE90645CDE9004500F002F8EC
:100860007CBD0000F0B587B00546DDE90C7601706F
:10087000481C6AD001F00F04012000FA04F46C80D7
:10088000334C11F0F00F1FD0C1F30311012925D013
:1008900002292DD0032935D02E496960216841F005
:1008A00020012160216801F02001059169880091F3
:1008B000AF720221CDE9027172B3032A2ED0022A4F
:1008C0002FD0012B35D035E023496960216841F0F4
:1008D00001012160216801F00101E6E71F4969601B
:1008E000216841F002012160216801F00201DCE78A
:1008F0001B496960216841F004012160216801F011
:100900000401D2E717496960216841F008012160BC
:10091000216801F00801C8E7002000E003200190F1
:100920000FE0012B02D0019104960AE01220019001
:10093000FAE711200190012A03D13146284600F040
:1009400013F86946686800F05DF807B0F0BD000074
:100950001C38024000140240000002400004024023
:1009600000080240000C024090F90020521C04D004
:10097000CAB24188406800F010B97047FFF7F4BF71
:100980000248416841F0010141607047002004E0E5
:100990000248416841F0040141607047002004E0D2
:1009A0000248416841F0020141607047002004E0C4
:1009B00031B500F0F7F8044600F0F4F80099001B98
:1009C0008842F9D338BD0000002118B904E040087E
:1009D000491CC9B20128FAD1034850F82100002867
:1009E00000D000477047000000010020044910B506
:1009F0000A68024202D00860FFF7E6FF10BD00005F
:100A0000140401402DE9F84FDFF864B100234FF0E2
:100A1000010C4FF0030A4FF00F090BF1040EA0E098
:100A20000CFA03F6324072D04C68022C01D0122C22
:100A30000ED1DC0800EB8408D8F820405D07EF0EEB
:100A400009FA07F5AC430D69BD402543C8F82050AD
:100A500007685D0091F804800AFA05F408F00308BD
:100A6000A74308FA05F848EA0708C0F800804F686D
:100A7000012F05D0022F03D0112F01D0122F11D139
:100A80008768D1F80C80A74308FA05F848EA0708F8
:100A9000C0F808804768B7430E79C6F300169E4039
:100AA0003E434660C668A6438C68AC403443C4608D
:100AB0004C68E40054D52F4C256845F001052560AD
:100AC000246823F0030504F0010400942A4C254413
:100AD000AF689C07240F09FA04F6B743274EB042CB
:100AE00001D1002615E0264EB04201D1012610E0CA
:100AF000244EB04201D102260BE0234EB04201D178
:100B0000032606E0214EB04202D1042601E027E090
:100B10000526A6403E43AE60DBF800405D464E68C9
:100B20009443F60300D514432C60DEF8004075466C
:100B30004E689443B60300D514432C600C4D083521
:100B40002C684E689443F60200D514432C60084D7F
:100B50000C352C684E689443B60200D514432C60C3
:100B60005B1C0A6832FA03F47FF45AAFBDE8F88FD1
:100B70000004014020380240000001400000024013
:100B80000004024000080240000C02400010024035
:100B90000069084000D0012070470AB181617047A8
:100BA0000904FBE70148006870470000B00000201E
:100BB00002480168491C016070470000B000002035
:100BC00010B5032000F048F8002000F005F800F010
:100BD00017F8002010BD000010B5044607484FF478
:100BE0007A710068B0FBF1F001F074F9002221463F
:100BF000501E00F011F8002010BD0000AC000020D5
:100C0000704700F01F02012191404009800000F16F
:100C1000E020C0F800117047F0B40E4B1B680C4682
:100C2000C3F30223C3F10705042D00D90425191DC0
:100C3000072901D2002300E0DB1E012606FA05F198
:100C4000491E214099409E40761E16403143F0BC1B
:100C500001F094BA0CED00E0064900F007020868C4
:100C60004FF6FF03184040EA0220034A1043086091
:100C7000704700000CED00E00000FA050248006833
:100C800000F4C05070470000007000402DE9F84F9C
:100C900006460078C00775D0DFF84C810027D8F8E9
:100CA0000000C0000BD4D8F8001041F08051C8F803
:100CB0000010D8F80000012700F0805000904B4C45
:100CC0002068C00510D4206840F480702060FFF7D1
:100CD00069FF054605E000BFFFF764FF401B64287D
:100CE0004ED82068C005F7D53F4D243D286800F058
:100CF000C041706800F0C0428A4209D0C0F301418F
:100D0000032905D12968890302D50120BDE8F88FA0
:100D1000354C1034216811F440314AD000F4403091
:100D2000884246D03078C00743D020684FF4000294
:100D300092FAA2F1B1FA81F14FEA810C2C494FF0FD
:100D4000010A8C4420F44030CCF880A692FAA2F23A
:100D5000B2FA82F201EB82010023C1F880362060F2
:100D6000C00526D5FFF71EFF81464FF4007B0AE041
:100D7000FFF718FFA0EB090141F28830814202D948
:100D80000320C3E72EE09BFAABF0B0FA80F040F00E
:100D90004001BAEB511F01D1296800E021689BFA9C
:100DA000ABF2B2FA82F202F01F020AFA02F001423A
:100DB000DED07068C0F30141032906D1296800F034
:100DC000C04021F0C041014329602068716801F4EE
:100DD0004031084320602FB1D8F8001021F0805135
:100DE000C8F80010002091E724380240007000404D
:100DF000000047422DE9F047DFF8BC8105460E466A
:100E0000D8F8000000F00100B04214D2012E05D144
:100E1000D8F8001041F00401C8F80010D8F800100C
:100E200021F001013143C8F80010D8F8000000F0AB
:100E30000100B04271D12878604C800705D5206848
:100E4000A96820F0F000084320602878C00771D01E
:100E50005A4A5A4B69680120083A2C33022910D0AB
:100E600003292ED001292FD05FEA402797FAA7FC4B
:100E7000BCFA8CFC4CF0200C5FEA5C1C04D01268BD
:100E800003E04FF40037F1E71A6897FAA7F3B3FAD3
:100E900083F303F01F039840024262D0206820F0E1
:100EA000030008432060FFF77DFE6968074641F2B2
:100EB0008830022910D003291CD00129814626D070
:100EC00034E04FF00077D1E70227CFE7FFF76AFE63
:100ED000C11B494501D926E081462068C0F3810045
:100EE0000228F3D126E000BFFFF75CFEC11B494595
:100EF00001D918E081462068C0F381000328F3D1AE
:100F000018E000BFFFF74EFEC11B49450BD8206813
:100F1000C0F381000128F5D10CE022E0FFF742FE8A
:100F2000C11B494502D90320BDE8F087206810F0B5
:100F30000C0FF3D1D8F80010404601F00101B14286
:100F400011D9012E03D1016841F00401016001684B
:100F500021F0010131430160006800F00100B0425E
:100F600001D00120E0E72878400705D52068E9682E
:100F700020F4E060084320602878000706D5206848
:100F8000296920F4605040EAC100206000F022F896
:100F90002168F02292FAA2F201F0F001B2FA82F294
:100FA000D140074A515CC840064908600020FFF75D
:100FB00013FE0020B8E70000003C02400838024061
:100FC00041360008AC00002001480068704700006E
:100FD000AC0000201E4A116801F00C00042813D058
:100FE000082813D00C2813D0101F006800F46041AB
:100FF0004FF4604090FAA0F0B0FA80F0C1404FF496
:101000000040491C8840704712487047124870479A
:101010004FF4701393FAA3F301F47010B3FA83F34F
:10102000D8400E4B01F440011268185C4FF44003A5
:1010300093FAA3F3B3FA83F3D940491CD20301D541
:10104000054A00E0034A5043B0FBF1F0704700004E
:10105000083802400024F40000127A0038360008F4
:101060002DE9F84F07460078FB4EFC4DC0074FF0C6
:10107000010428D0F848083001684FF40038C1F363
:101080008101022907D00168C1F3810103291BD125
:101090000068C00318D598FAA8F0B0FA80F040F0C4
:1010A0002000400901D0306800E0286898FAA8F1D3
:1010B000B1FA81F101F01F0104FA01F108425CD09C
:1010C000786800287BD058E0786801280AD008B1F9
:1010D000052811D0306820F480303060306820F46A
:1010E000802002E0306840F480303060786828B3B7
:1010F000FFF758FD81460BE0306840F480203060F7
:10110000F0E700BFFFF74EFDA0EB0900642872D89E
:1011100098FAA8F0B0FA80F040F02000400901D021
:10112000306800E0286898FAA8F1B1FA81F101F07E
:101130001F0104FA01F10842E4D01EE0FFF732FD7E
:10114000814605E0FFF72EFDA0EB09006428DED8FC
:1011500098FAA8F0B0FA80F040F02000400901D0E1
:10116000306800E0286898FAA8F1B1FA81F101F03E
:101170001F0104FA01F10842E4D13878DFF8E08277
:1011800080074FF0000B4FF002095FD5B2480830DE
:101190000168C1F38101012907D00168C1F3810110
:1011A00003291CD10068C00319D499FAA9F0B0FA38
:1011B00080F040F02000400902D0306801E086E075
:1011C000286899FAA9F1B1FA81F101F01F0104FA36
:1011D00001F108422BD0F868012878D127E0F8689F
:1011E000A8B394FAA4F0B0FA80F048F82040FFF7D2
:1011F000D9FC824606E066E1FFF7D4FCA0EB0A00CA
:10120000022884D899FAA9F1B1FA81F141F02001BC
:10121000490901D0316800E0296899FAA9F0B0FACB
:1012200080F000F01F0004FA00F00142E4D08A4888
:10123000001D01684FF4F85393FAA3F33A69B3FA27
:1012400083F321F4F8519A401143016025E0FFE750
:1012500094FAA4F1B1FA81F148F821B0FFF7A2FCA9
:10126000824605E0FFF79EFCA0EB0A000228C8D8E2
:1012700099FAA9F0B0FA80F040F02000400901D0BE
:10128000306800E0286899FAA9F1B1FA81F101F01B
:101290001F0104FA01F10842E4D138784FF4007AD2
:1012A000C0067CD56C480830006810F00C0F0FD0D9
:1012B000B9694FF48070002972D090FAA0F0B0FAAA
:1012C00080F048F82040FFF76DFC00907EE087E05A
:1012D0009AFAAAF0B0FA80F040F02000400901D05C
:1012E000306800E028689AFAAAF1B1FA81F101F0B9
:1012F0001F0104FA01F1084202D0B86900286FD03A
:101300005548396A001D006800F4604081421AD9CE
:10131000084601F073F8002862D14F48001D0168AB
:101320003A6A21F460411143016001684FF07F4344
:1013300093FAA3F3FA69B3FA83F321F07F419A4059
:101340001143016018E04448001D026822F4604225
:101350000A43026001684FF07F4393FAA3F3FA69EE
:10136000B3FA83F321F07F419A4011430160386A58
:1013700001F044F80028CFD14FF4604191FAA1F177
:10138000386AB1FA81F1C8404FF40041401C8140F5
:10139000314808300068F02200F0F00001E070E011
:1013A00040E092FAA2F2B2FA82F2D0402D4A105CEA
:1013B000C1402D4801600020FFF70EFC61E000BF36
:1013C000FFF7F0FB0099401A02287CD89AFAAAF09D
:1013D000B0FA80F040F02000400902D0306801E00F
:1013E000BCE128689AFAAAF1B1FA81F101F01F0173
:1013F00004FA01F10842E3D01748001D01683A6A77
:1014000021F460411143016001684FF07F4393FA7A
:10141000A3F3FA69B3FA83F321F07F419A401143B1
:1014200001602EE090FAA0F0B0FA80F048F820B009
:10143000FFF7B8FB009005E0FFF7B4FB0099401AF6
:101440000228C2D89AFAAAF0B0FA80F040F0200040
:1014500040090BD030680AE00038024034380240BE
:101460000000474241360008AC00002028689AFA84
:10147000AAF1B1FA81F101F01F0104FA01F1084269
:10148000DAD13878000753D5786948B394FAA4F0D4
:10149000B0FA80F008EB8000C0F88046FFF782FBCE
:1014A000009005E0FFF77EFB0099401A02288CD8D7
:1014B00099FAA9F0B0FA80F040F04000B4EB501F68
:1014C00002D1306801E08EE0286899FAA9F1B1FAFA
:1014D00081F101F01F0104FA01F21042E2D027E08D
:1014E00094FAA4F1B1FA81F108EB8101C1F880B658
:1014F000FFF758FB009005E0FFF754FB0099401AF6
:10150000022870D899FAA9F0B0FA80F040F04000B3
:10151000B4EB501F01D1306800E0286899FAA9F1B6
:10152000B1FA81F101F01F0104FA01F21042E3D196
:10153000387840077BD59B484FF000090068C00011
:101540000AD49848016841F08051016000684FF06A
:10155000010900F08050009093480168C90511D43A
:10156000016841F480710160FFF71CFB009005E009
:10157000FFF718FB0099401A642834D88A4800689D
:10158000C005F5D5B86801280AD008B1052811D0E2
:10159000286820F480702860286820F4806002E0C9
:1015A000286840F480702860B86848B3FFF7FAFAFA
:1015B00000900DE0286840F480602860F0E700BFEC
:1015C000FFF7F0FA0099411A41F2883081420AD8B7
:1015D0009AFAAAF0B0FA80F040F04000B4EB501F45
:1015E00002D1306801E095E028689AFAAAF1B1FAD0
:1015F00081F101F01F0104FA01F21042E0D022E073
:10160000FFF7D0FA009007E0FFF7CCFA0099411AF3
:1016100041F2883081427DD89AFAAAF0B0FA80F07F
:1016200040F04000B4EB501F02D1306801E012E0FE
:1016300028689AFAAAF1B1FA81F101F01F0104FABF
:1016400001F21042E0D1B9F1000F04D05548016811
:1016500021F080510160786AE8B3DFF84891A9F180
:101660001C09D9F80010C1F38101032976D00228A2
:101670004FF080714FF0007A58460BD091FAA1F1EB
:10168000B1FA81F148F82100FFF78CFAB04607461D
:1016900056466DE04FF0807191FAA1F1B1FA81F1F7
:1016A0008A0042495050FFF77DFAB34680465646BD
:1016B00006E000BFFFF776FAA0EB0800022854D836
:1016C00096FAA6F0B0FA80F040F02000400903D06E
:1016D000DBF8000001E061E0286896FAA6F1B1FAB3
:1016E00081F101F01F0104FA01F10842E2D1D7E9CA
:1016F0000A103A6BD9F80030014323F47D031A43F2
:101700001143C9F800104FF0807090FAA0F0B0FAC1
:1017100080F000E029E0810024480C50FFF742FAF5
:10172000074604E0FFF73EFAC01B02281DD896FAD0
:10173000A6F0B0FA80F040F02000400902D0DBF8BB
:10174000000000E0286896FAA6F1B1FA81F101F0F4
:101750001F0104FA01F10842E4D01FE020E000BFBD
:10176000FFF720FAC01B022802D90320BDE8F88F3A
:1017700096FAA6F0B0FA80F040F02000400902D0BE
:10178000D8F8000000E0286896FAA6F1B1FA81F1D5
:1017900001F01F0104FA01F10842E1D10020E5E760
:1017A0000120E3E724380240007000400000474277
:1017B00070472DE9F0470446007F01281CD0012620
:1017C0002677022060772168CA204862216853206A
:1017D00048622068816821F48061816020688168A6
:1017E00021F480418160FFF7DDF9054600274FF0C5
:1017F000FF084FF47A790EE00220BDE8F087FFF78A
:10180000D1F9401B484506D92168C1F8248003203E
:1018100060772777F1E72068C0684007EFD5216837
:10182000C1F82480667727770020E6E7704700003C
:1018300010B5044600688168C9040CD5C068C005AD
:1018400009D52046FFF7F2FF2068C16801F080014A
:1018500061F4C071C1602068816889040CD5C068DA
:10186000800509D52046FFF7A3FF2068C16801F075
:10187000800161F42071C16003494FF400300860B9
:101880000120607710BD0000140401402DE9F047ED
:101890000446007F012822D04FF0010884F81C8004
:1018A000022060772268CA2050622268532050626A
:1018B00020680025FF26B1F5807F81684FF0030A7C
:1018C0004FF47A790ED021F400718160206881682C
:1018D00021F400518160FFF765F9074624E00220FA
:1018E000BDE8F08721F4807181602068816821F46F
:1018F00080518160FFF756F9074604E0FFF752F97F
:10190000C01B484509D82068C068C007F6D00FE062
:10191000FFF748F9C01B484506D92068466284F89D
:101920001DA025770320DBE72068C0688007EFD57E
:101930002068466284F81D8025770020D0E710B526
:101940000C464FF480718A4203D1A1610068C169DD
:1019500004E04FF40071A1610068016AC1F3054021
:101960002070C1F30622627001F07F02A270402253
:1019700002EA1142E270C1F30562227501F0804271
:1019800001F08031C4E9031273B900F089FD2070C1
:10199000607800F085FD6070A07800F081FDA07097
:1019A000207D00F07DFD2075002010BD10B5006881
:1019B0000B4641680D480140080CD870C1F304245F
:1019C0005C7001F03F049C70C1F34231197052B950
:1019D00000F066FDD870587800F062FD5870987875
:1019E00000F05EFD9870002010BD00003FFFFF007A
:1019F00010B500680C4601680E480140C1F305406F
:101A00002070C1F30623637001F07F03A3704023AD
:101A100003EA1141E17052B900F042FD2070607894
:101A200000F03EFD6070A07800F03AFDA07000204C
:101A300010BD00007F7F7F0070B5040002D0607F82
:101A400010B106E0012070BD00202077204600F094
:101A500041F8022060772168CA204862216853203B
:101A60004862204600F030FDFF210028206803D0A6
:101A7000416204206077E5E78268154B1A40826076
:101A80002268906863681843D4E904352B431843EF
:101A900090602268E068106120680269238942EA48
:101AA000034202612068C26822F08002C26020689E
:101AB000026C22F4802202642068026CA3691A433B
:101AC00002642068416201206077002070BD000040
:101AD000BFFF8FFF704700002DE9F05F0446007FD5
:101AE0000D46012844D04FF0010B84F81CB00220B1
:101AF00060772068002780684FEA4060BAB300280A
:101B000052DA287800F0CCFC287D00F0C9FCA878D7
:101B10002978EA7840EA01406978090241EA0241FD
:101B20000843297D40EA0166286921680643E86880
:101B30000643CA204862216853204862A869FF25ED
:101B4000B0F5807F20684FF0030A4FF47A798168FE
:101B50002CD021F4007181602068C16801F08001FF
:101B600061F42071C160FFF71DF880464FE002E08C
:101B70000220BDE8F09F002800DBEF70287800F01D
:101B800098FC0604687800F094FC46EA0026A878E1
:101B900000F08FFC0643E87846EA0046287D00F016
:101BA00088FC46EA0066BFE7EF70ADE721F480717C
:101BB00081602068C16801F0800161F4C071C1607A
:101BC000FEF7F0FF804605E0FEF7ECFFA0EB080013
:101BD000484515D82068C068C007F5D02068C661A0
:101BE0002068816841F4807181602068816841F4D7
:101BF00080511BE0FEF7D6FFA0EB0800484506D950
:101C00002068456284F81DA027770320B1E720688B
:101C1000C0688007EED5206806622068816841F4BC
:101C2000007181602068816841F400518160094839
:101C3000016841F40031016006480830016841F450
:101C4000003101602068456284F81DB027770020CC
:101C50008FE70000000401402DE9F0470446007FB3
:101C60000B46012825D04FF0010984F81C90022072
:101C70006077587802B300F013FC987800F010FCFD
:101C80009878D97840EA014558781978000240EAF6
:101C9000413005432168CA204862216853204862C8
:101CA000204600F011FC0026FF274FF0040838BB47
:101CB00019E00220BDE8F087C10603D500F0EF006F
:101CC0000A305870D87800F0F4FB0204587800F01D
:101CD000F0FB42EA0022987800F0EBFB0243187810
:101CE00042EA4035D6E70D48054020684560206847
:101CF000C16821F08001C160204600F085F830B154
:101D00002068476284F81D8026770120D2E720688A
:101D1000476284F81D9026770020CBE73FFFFF0045
:101D20002DE9F0470446007F0D46012811D04FF001
:101D3000010A84F81CA002206077206800268068D1
:101D40004FEA406042B100281ADA287800F0A8FB78
:101D500017E00220BDE8F087002800DBEE7028784D
:101D600000F0A7FB0204687800F0A3FB42EA00221F
:101D7000A87800F09EFB0243E87842EA00470AE0B8
:101D8000EE70A878297840EA01476878E97800027F
:101D900040EA014007432168CA2048622168532075
:101DA0004862204600F090FB4FF0FF084FF0040916
:101DB000C0B914480740206807602068816821F492
:101DC00080218160D5E90101084321688A681043B8
:101DD00088602068C16821F08001C160204600F061
:101DE00013F838B12168C1F8248084F81D90267753
:101DF0000120AFE72168C1F8248084F81DA0267770
:101E00000020A7E77F7F7F0070B504460068C168A7
:101E100021F0A001C160FEF7C5FE05464FF47A76B9
:101E200007E000BFFEF7BEFE401BB04201D9032011
:101E300070BD2068C0688006F4D5002070BD70B504
:101E4000040004D094F85100002510B106E00120F0
:101E500070BD84F85050204600F02EF8022084F81F
:101E600051002068016821F040010160D4E90101BE
:101E70000843D4E903121143084361690843218BE5
:101E800001F400710843E1690843216A0843A16A2B
:101E9000084321680860A069042101EA1040616AD2
:101EA0000843216848602168E06A0861656501208F
:101EB00084F85100002070BD70474FF0E0210428E5
:101EC000086903D020F004000861704740F0040066
:101ED000FAE7704710B5401EB0F1807F01D30120B2
:101EE00010BD4FF0E02460610F21601700F046F94B
:101EF0000020A06107202061002010BD10B5FFF771
:101F0000E8FF10BD10B5040003D094F8350010B1FF
:101F100007E0012010BD002084F83400204600F0C6
:101F20000DF8022084F83500211D206800F088FF9C
:101F3000012084F83500002010BD000008B50168BC
:101F40001448B1F1804F14D0134A914220D1016856
:101F500041F0020101600068012200F002000090DF
:101F600003211D20FEF758FE1D20BDE80840FEF7A6
:101F700048BE016841F0010101600068002200F0E4
:101F80000100009003211C20FEF746FE1C20ECE718
:101F900008BD000024380240000400400168CA68FF
:101FA00042F00102CA600068016841F0010101606D
:101FB00000207047704770B50446006801694FF013
:101FC0000005C943890715D4C168C943890711D4DD
:101FD000E91E016101202075206880698007204684
:101FE00002D0FFF7E7FF04E000F078F8204600F0A9
:101FF00076F8257520680169C943490717D4C16877
:10200000C943490713D46FF0040101610220207510
:102010002068806910F4407F204602D0FFF7CAFF95
:1020200004E000F05BF8204600F059F825752068C0
:102030000169C943090716D4C168C943090712D405
:102040006FF008010161042020752068C0698007D5
:10205000204602D0FFF7AEFF04E000F03FF8204634
:1020600000F03DF8257520680169C943C90617D4F9
:10207000C168C943C90613D46FF01001016108207B
:1020800020752068C06910F4407F204602D0FFF719
:1020900091FF04E000F022F8204600F020F82575BA
:1020A00020680169C943C90708D1C168C943C90784
:1020B00004D1891E0161204600F012F820680169F0
:1020C000C943490609D4C168C943490605D46FF01C
:1020D00040010161204600F017F870BD704770475D
:1020E00001680748B1F1804F06D0064A914205D1F8
:1020F0004068002802D000470068FAE770470000F7
:102100009C000020000400407047000010B5FEF75E
:10211000D7FAFEF711FB01F005F9044801F07AFA4D
:10212000BDE81040012000F0C1BE0000352F0008BE
:1021300010B501F0D7F80F4C28B100F02FF80220AD
:10214000207001F09DF901F0D3F828B100F026F8D5
:102150000320207001F09AF901F0D0F8002807D090
:1021600000F01CF804202070BDE8104001F094B984
:1021700010BD000000000020FEE770470907090EAF
:10218000002806DA00F00F0000F1E02080F8141DAE
:10219000704700F1E02080F80014704770B500240B
:1021A00004F1B000C0B2002100F0F4F800210220D8
:1021B00000F0F0F80021102000F0ECF800250121DB
:1021C000002000F0E7F86D1CEDB2802DF7D3641C01
:1021D000E4B2082CE4D370BDA62000F001B80000E2
:1021E0007CB5012405460094002322461C214D485D
:1021F0000194FEF72EFB4B480094002301221E2180
:102200000C300194FEF725FB464800940023012280
:102210001D2118300194FEF71CFB42480094002356
:1022200001221F2124300194FEF713FB0021AE2070
:1022300000F0B0F80021022000F0ACF800211020DE
:1022400000F0A8F80021402000F0A4F8002181202F
:1022500000F0A0F80021CF2000F09CF80021A12080
:1022600000F098F80021C82000F094F80021A62082
:1022700000F090F80021A82000F08CF800213F2009
:1022800000F088F80021D32000F084F800210846EF
:1022900000F080F80021D52000F07CF8002180209B
:1022A00000F078F80021D92000F074F80021F12026
:1022B00000F070F80021DA2000F06CF80021122004
:1022C00000F068F80021DB2000F064F800214020D5
:1022D00000F060F80021202000F05CF800210220CE
:1022E00000F058F800218D2000F054F8002114204F
:1022F00000F050F80021A42000F04CF800212846FE
:1023000000F048F80021AF2000F044F80021AF2091
:1023100000F040F8FFF742FFBDE87C40002108468E
:1023200000F002B8F802002010B50446B031C8B27F
:10233000002100F02FF8102040EA1410002100F0D6
:1023400029F804F00F00BDE8104040F00100002122
:1023500000F020B82DE9F04115460E460746FFF77C
:10236000E3FF00240121285D00F014F8641CE4B2AE
:10237000102CF7D3761CF1B23846FFF7D5FF1024A6
:102380000121285D00F006F8641CE4B2202CF7D38C
:10239000BDE8F08170B5054601B101211648FEF790
:1023A000EDFA154800210C38FEF7E8FA002412482F
:1023B00000210C30FEF7E2FA280601D5012100E0E9
:1023C00000210D481830FEF7D9FA0B4801210C30D6
:1023D000FEF7D4FA6806641C050EE4B2082CE6D3B6
:1023E000054801210C38FEF7C9FABDE8704001210B
:1023F0000148FEF7C3BA000004030020F8B5074601
:102400001A48002600681A4D10F0F00F20D1174C22
:102410001C342068C00002D5FEF730FC0DE02068B7
:1024200040F080502060206800F080500090FEF75F
:1024300025FC216821F080512160B0F5C05F07D1F3
:10244000B7F5404F04D12868012640F00400286009
:10245000286820F0010030432860286800F001005F
:10246000B04201D00120F8BD0020F8BD083802407C
:10247000003C024010B50948FFF7DAF94FF48071CB
:102480000648FFF703FA00F0ABFA00F029F9002044
:10249000FEF7F8F8BDE8104000F054BD4001002000
:1024A000010901EB810100F00F0000EB4100C0B217
:1024B0007047002102E00A38C0B2491C0A28FAD24B
:1024C000090740EA1160704770B504460068C168AA
:1024D000490614D44FF0FF31C160FEF763FB054697
:1024E0004FF47A7607E000BFFEF75CFB401BB0427A
:1024F00001D9032070BD2068C0684006F4D50020D3
:1025000070BD00000FB414222DE9F04F87B00C46C7
:1025100012A96846FDF70AFE9DF85200059066482C
:102520009DF851809DF850709DF84C60844201D216
:1025300014B102E0044600E001242046FDF732FF1A
:102540005E4A5F4BFDF7ABFE8A46814600F0AAFF6C
:1025500004460D464A465346FDF79BFE0022594B62
:10256000FDF79DFEDFF860A181468B46DAF80C008E
:10257000FDF707FF4A465B46FDF7EAFDFDF71FFF43
:10258000DFF84891DFF848B1CAF80C00B0F5F47FE5
:1025900016DBA0F5F470CAF80C0000224D4B204663
:1025A0002946FDF7D5FD04460D4609E000224B46BD
:1025B00020462946FDF76DFE761C04460D46B6B250
:1025C00000224B4620462946FDF74AFFEED9D94660
:1025D00000224B4620462946FDF742FF17D800222D
:1025E0004B4620462946FDF754FE7F1C04460D4607
:1025F000BFB2EDE700224B4620462946FDF749FED3
:10260000044608F101000D461FFA80F801E0DFF8EA
:10261000C89000224B4620462946FDF721FFE9D904
:102620000598FDF7BFFE22462B46FDF791FDFDF70D
:10263000E5FE80B205E03C3808F1010180B21FFAE6
:1026400081F83C28F7D205E0A8F13C017F1C1FFA75
:1026500081F8BFB2B8F13C0FF6D203E0183F761C08
:10266000BFB2B6B2182FF9D29DF84D209DF84B108D
:10267000FAB19AF806301A4492071AD0174A521E35
:10268000895CB14203D2B6FBF1F201FB12668DF810
:102690000A008DF809808DF804608DF80870142206
:1026A00069461098FDF742FD07B0BDE8F00F5DF8F0
:1026B00014FB0A4A0C32E2E742061200FCA9F1D2EE
:1026C0004D62004000408F408C0000200018F54013
:1026D0000020AC400000F03F00004E4020360008D3
:1026E00010B5224C92B0607900283CD10DA800F0C2
:1026F000F1F814220DA901A8FDF718FD00234FF4ED
:10270000807206A91A48FFF71AF99DF81900C0EB64
:10271000001081009DF81800C0EB4012C2EB0020B1
:1027200001EB00109DF81A1008449DF80D10C1EB44
:1027300001118A009DF80C10C1EB4113C3EB01217C
:1027400002EB01119DF80E201144081AFDF72AFE34
:102750000022084BFDF7A3FD00F04AFDFDF74EFEF9
:10276000A0600120607112B010BD00008C0000203C
:10277000400100200040DF3F2DE9F04700248AB0EF
:10278000254680B1142201466846FDF7CFFC9DF82E
:102790000510BDF800000026DFF8F490DFF8F4A083
:1027A00088460F1812E005A800F094F8142205A935
:1027B000EAE7CEB1B00717D000225346204629469B
:1027C000FDF7C6FC761C04460D4636B2B742F0DC77
:1027D000B8F1000F0BD0B80709D09DF803700026A0
:1027E000DFF8B4807F1E2BE000224B46E6E7DFF8DF
:1027F000A8809DF80370002608F10C087F1E0DE0EC
:1028000018F8060025494843FDF7CCFD22462B4623
:10281000FDF79EFC761C04460D46F6B2B742EFDC8F
:1028200010E000BF18F806001C494843FDF7BAFD48
:1028300022462B46FDF78CFC761C04460D46F6B26C
:10284000B742EFDC9DF809109DF80A00C1EB0111B9
:1028500000EB81029DF808004FF4616148439DF848
:10286000041040F2A323594300EBC1101044FDF7BC
:1028700099FD22462B46FDF76BFC0022084BFDF725
:102880000EFD00F00FFE0AB0BDE8F047FDF7B6BD43
:1028900050287E4138137E412036000880510100C7
:1028A0000040DF3F0A498B680022984204D94B78E8
:1028B00013B14A708B68C01A8B68984202D93228CB
:1028C00001D28A70704701228A708968401A704765
:1028D0008C00002010B586B004460022114802A9E1
:1028E000FFF786F800220F480DF10201FFF75EF8AE
:1028F0000D499DF80530CA88ADF80020632B03D040
:10290000087840B11BB106E00120087003E0002008
:1029100008706432CA80142269462046FDF706FC1E
:1029200006B010BD400100208C00002010B5002032
:10293000FFF722FF04460548FFF71EFF844202D23C
:10294000C043204410BD201A10BD000060010020CB
:1029500070B51F4E86B03079002837D10125A80503
:1029600090FAA0F01B49B0FA80F001EB8000C0F8AB
:1029700080561A4818490024C0E9001403218160D8
:10298000C0E9031444618461FFF756F88DF80350E1
:1029900006208DF805408DF802008DF804500022C5
:1029A0000E480DF10201FFF757F90294039400223B
:1029B0000A4802A90494FFF7B3F900220421292050
:1029C000FEF72AF92920FEF71CF9357106B070BD13
:1029D0008C000020000047420028004040010020F9
:1029E0000C484168C943C9070ED00B490120487003
:1029F0000A480168C1F38101012903D0006810F081
:102A00000C0F06D1FDF75CBE016841F004010160C6
:102A1000EEE77047007000408C000020083802404C
:102A2000AFF3008030B505464FF4807499B021466D
:102A30002048FEF72BFF1F48FEF7BBFE14A8FFF748
:102A400049FF142214A908A8FDF770FB19481422A5
:102A500008A92030FDF76AFB0AAB93E807008DE870
:102A60000700DDE90823294614A8FFF74BFD1422CF
:102A700014A903A8FDF75AFB0020119010908DF8BF
:102A800037009DF816008DF836009DF815008DF87A
:102A900035009DF8140013948DF834009DF8100053
:102AA0008DF8480000220DA90248FFF715F819B06B
:102AB00030BD0000400100207CB5012400940023BB
:102AC000224604210B480194FDF7C3FE0025094866
:102AD0002B462A461B219438CDE90045FDF7B9FE67
:102AE000044800231A461A218838CDE90045FDF72D
:102AF000B0FE7CBDC804002030B50024039D846076
:102B000061B14FF40061C160046207214462C0E911
:102B10000A41C0E904231DB1446030BDC460F3E73D
:102B20004FF48271416030BD094B00221B6803E005
:102B30005B08521C072A01D28B42F9D8302101EAE6
:102B4000C201D20700D008221143C16170470000C2
:102B5000AC0000202DE9FF4F83B08B460446109F48
:102B6000FDF79AFD0525022604F1580004F16409D9
:102B700004F1700804F17C0ABBF1070F03D0BBF12C
:102B80001F0F2ED021E033490A6842F480520A60B8
:102B90000A6822F480520A602E490C310A6842F415
:102BA00080520A60096801F4805100912A492DE0A1
:102BB0004FF40070A0610020009000E00096002318
:102BC0001A4619462046FFF797FF24492046FFF78B
:102BD000ABFF2046FFF733F907B0BDE8F04FFDF734
:102BE00063BD1C49091D0A6842F480420A600A68F4
:102BF00022F480420A60174910310A6842F4804288
:102C00000A60096801F48041009115492160CDE90D
:102C10000065002302225946FDF71BFECDE9006541
:102C20000023022248460599FDF713FECDE9006511
:102C30000023022240460699FDF70BFE0126CDE94E
:102C400000650023022239465046FDF702FE7F1C34
:102C5000B4D1ADE7143802400030014080969800AE
:102C60000038004010B5FDF7A3FFBDE81040FFF7A6
:102C700045B9000030B5244895B0016841F0805155
:102C80000160006800F0805014902048016821F431
:102C9000C05141F40061016001240520CDE9000428
:102CA0000220C5030294CDE909054FF440200B90A2
:102CB000A0050C906846FEF7D3F90F200D90032075
:102CC0000E9000200F901090119001210DA8FEF79A
:102CD00091F812A8CDE91245FDF7D8FFFEF774F977
:102CE0004FF47A71B0FBF1F0FFF7F4F80420FFF72E
:102CF000E4F80320FDF7B0FF00221146501EFDF757
:102D00008BFF15B030BD0000243802400070004039
:102D100038B52E48016841F080510160006800F02C
:102D2000805000902A48016821F4C05141F40061AC
:102D3000016026492439086840F480300860234C3B
:102D40004FF400321034012092FAA2F3B3FA83F365
:102D500043F020035B0901D00B6800E0236892FA7E
:102D6000A2F5B5FA85F505F01F0500FA05F52B4229
:102D7000EAD04FF0807292FAA2F2164BB2FA82F2C7
:102D800043F822004FF0007393FAA3F2B2FA82F2F2
:102D900042F02002520901D00A6800E0226893FA4A
:102DA000A3F5B5FA85F505F01F0500FA05F52A42E9
:102DB000EAD006481C38016841F00301016001684F
:102DC000C1F381010329FAD138BD00002438024043
:102DD00000700040000047420F48016841F48071D4
:102DE00001600D4908310A680C4B1A400A600268FC
:102DF0000B4B1A400260026822F4802202600868CD
:102E000020F47D0008600020091D086005494FF08E
:102E10000060086070470000003802400CC0FF8866
:102E2000FEFFFEEE08ED00E00148FFF7C4B8000029
:102E3000740100200148FFF7BEB80000AC0100207B
:102E400070B502684FF08046134B144CB04203D06B
:102E5000984201D0A04205D122F070054A682A4369
:102E6000B0420CD098420AD0A04208D00C4B9842F5
:102E700005D00C4B984202D00B4B984203D122F460
:102E80004073CA681A4302608A68C2620968816234
:102E90000121416170BD00000004004000080040B5
:102EA00000080140000C014000100140134910B51A
:102EB00009684FF47A42B1FBF2F211494FF08043B6
:102EC000521E0B604FF0FF3303EB8010C8600020F0
:102ED0000861C1E901200846FFF714F810B109A004
:102EE00000F0BCF80648FFF759F8002804D0BDE808
:102EF00010400AA000F0B2B810BD0000AC000020E5
:102F000074010020B6A8CAB1C6F732B3F5CABCBB7B
:102F1000AFCAA7B0DCA3A10D0A000000B6A8CAB1D1
:102F2000C6F732C6F4B6AFD6D0B6CFCAA7B0DCA3C8
:102F3000A10D0A0010B500F0E7F9BDE81040FFF759
:102F4000F7B8000010B5134C6068002820D0FFF7D8
:102F5000EDFC616800220B68834201D80A6001E041
:102F6000181A08600A7204E001696160C06800B163
:102F70008047606800280BD001680029F4D0017AEE
:102F8000012905D001210172BDE8104000F004B80C
:102F900010BD0000C400002010B506490446002002
:102FA00008702068FFF77EFC2060BDE81040FFF746
:102FB00037BD0000C4000020034A0146002012680B
:102FC0000A4200D0012070470038014000B520209F
:102FD000FFF7F2FF00280FD000F014F80849074B64
:102FE0008A889854521C92B200208A8001238870EB
:102FF0004B70FF2A00D3888000BD0000E401002050
:10300000A400002002480068C0F3080070470000D8
:1030100004380140FEE7000070B50D4604460E4A34
:10302000FFF798F90C4A04F11000C0B2203229468B
:10303000FFF790F9084A04F12000C0B24032294657
:10304000FFF788F93034E0B22946BDE87040024A03
:103050006032FFF77FB90000010000200FB4054B7C
:1030600010B503A9044A029800F018F810BC5DF8E6
:1030700014FB0000CD320008CC00002002E008C89C
:10308000121F08C1002AFAD170477047002001E0E2
:1030900001C1121F002AFBD1704700002DE9FF4F2C
:1030A00089B09B460446002506E025280BD05A46E9
:1030B0000B999047641C6D1C20780028F5D10DB049
:1030C0002846BDE8F08F0027B8460122474900E0B6
:1030D000074314F8013F203B02FA03F00842F7D1FE
:1030E00020782E2819D114F8010F47F004072A2858
:1030F0000ED06FF02F022078A0F1300109290CD8F2
:1031000008EB880102EB410100EB0108641CF2E7C7
:103110000A98641C50F8048B0A9020780028CED0BE
:10312000642808D0692806D075281ED05A460B9905
:1031300090476D1C58E00A994FF00A0901C90A919D
:10314000002802DA40422D2102E0390504D52B2166
:103150008DF82010012103E0F90704D02021F7E7C2
:103160008A4608AE0DE00021FAE70A994FF00A09F5
:1031700001C90A91F7E74946FDF78AF9303106F8A7
:10318000011D0028F7D1ADEB060000F120097807FA
:1031900001D44FF00108C84502DDA8EB090000E0AA
:1031A00000208046002706E008A85A46C05D0B991B
:1031B00090476D1C7F1C5745F6DB04E030205A46D3
:1031C0000B9990476D1CB8F10001A8F10108F5DCDE
:1031D00005E016F8010B5A460B9990476D1CB9F1A2
:1031E0000001A9F10109F4DC641C65E7092801006C
:1031F0002DE9F041C1F30A52A2F2FF362F4A304BBB
:103200000D460446142E2FDA002E12DAFCF7A0FF2A
:1032100000221346FDF724F94CD2002DBCBF4FF01D
:103220000045002446DB55EA040018BF254D19D19E
:1032300040E0DFF894C02CFA06F705EA070C5CEAD8
:10324000040C08BFBDE8F081FCF782FF00221346A2
:10325000FDF706F92ED2002D03DD4FF48010F0406B
:103260000544BD43002425E0332EC8BFBDE8F081EE
:10327000A6F1140C4FF0FF3727FA0CF73C4208BFB9
:10328000BDE8F081FDF708F800221346FDF7E8F8E5
:1032900010D2002D0DDD142E08BF6D1C09D0C6F113
:1032A0003400012101FA00F02044A04238BF6D1C17
:1032B0000446BC4329462046BDE8F0819C75008841
:1032C0003CE4377E0000F03FFFFF0F0004490A682E
:1032D0005206FCD5024AC1B2121D116070470000AF
:1032E000003801400148807870470000B400002099
:1032F0000148C07870470000B40000200148007900
:1033000070470000B400002005490868401C0860B0
:103310000A2803D30020086000F00EB970470000AF
:1033200084000020F0B585B04FF400500024012542
:1033300003268DE8710069460948FDF763FB02200A
:103340008DE87100074F69463846FDF75BFB20208A
:103350008DE8710069463846FDF754FB05B0F0BDB5
:10336000000802400004024000240226FEF7CEFEC0
:10337000FEF732FFFEF712FF404D287888BBFEF7BC
:103380000DFF3E4AC4F16F00C0B2521C3146FEF739
:10339000E1FF102C07D9394AC4F17F00C0B22132B5
:1033A0003146FEF7D7FF202C07D9344AC4F18F00ED
:1033B000C0B241323146FEF7CDFF302C07D92F4A3B
:1033C000C4F19F00C0B261323146FEF7C3FF0A204C
:1033D000FDF7EEFA641CE4B26F2CCED30120287006
:1033E00003E0FFE72878012814D1FEF7D7FE402C30
:1033F00002D23146204603E0C4F17F00C0B231461C
:10340000FFF70AFE0A20FDF7D3FA641CE4B27F2C12
:10341000E8D30024287802280ED1FEF7BFFEC4F1BD
:103420007F00C0B23146FFF7F7FD641CE4B20A200A
:10343000FDF7BEFA802CEDD8287803280CD1FEF7D2
:10344000ADFE31462046FFF7E7FD641CE4B20A20DA
:10345000FDF7AEFA802CEFD3287804288DD1FEF743
:103460009DFE31462046FFF7D7FD761CF6B2502070
:10347000FDF79EFA082EEFD300267EE7000000201D
:103480000149002088707047B400002001490020E5
:10349000C8707047B40000200149002008717047CF
:1034A000B40000202DE9F04D07460E46FDF794F8D4
:1034B00004460D463A463346FCF7EEFEDFF86CA0B4
:1034C000DFF86CB01B4B0746884616F0004F4FF0F4
:1034D00000020AD0FCF7ACFF0AD900225B4638464E
:1034E0004146FCF7BDFF1BD212E0FCF7A1FF08D25A
:1034F0000022534620462946FCF7CBFE04460D46E3
:103500000EE000225B4638464146FCF7A9FF07D88B
:103510000022534620462946FCF71AFE04460D4673
:103520003146204665F31E01BDE8F08D0000F03FF6
:103530000000E03F0000E0BF2DE9F0414FF40051F2
:103540003148FDF725FB314C012600256179012921
:1035500000D110B1A57149B10AE0A079401CC0B2F8
:10356000A071022804D3A670657101E0012809D07A
:10357000E571274F02213846FDF70AFB217A012920
:1035800008D008E0E079401CC0B2E0710228F0D316
:103590006671EEE710B1657249B10AE0607A401CCD
:1035A000C0B26072022804D3E670257201E00128DF
:1035B00008D0A57220213846FDF7EAFAE17A012900
:1035C00008D008E0A07A401CC0B2A0720228F1D353
:1035D0002672EFE710B1257349B10AE0207B401C49
:1035E000C0B22073022804D32671E57201E00128DD
:1035F00002D06573BDE8F081607B401CC0B260738F
:103600000228F7D3E672F5E700080240B400002074
:103610000004024001490860704700009C0000203F
:103620001F1C1F1E1F1E1F1F1E1F1E1F1F1D1F1EB4
:103630001F1E1F1F1E1F1E1F030406080C1018202C
:10364000300000000000000000010203040607082B
:10365000090000007436000800000020D0000000BF
:103660007C30000844370008D0000020A808000083
:103670008C30000800424AD26A46C000F2121AD6C4
:103680001212F2020040807F000100804F201807D4
:1036900010204F8000080889EE98007E42C2424206
:1036A000C2427E0000020100FF8043201807000094
:1036B0003F4040780000FE00FC00FF00F2121AD6E6
:1036C0001212F20200403F003F00FF804F20180717
:1036D00010204F800040444444C4FE42434200F85E
:1036E0000000FF000020100C0300FF010204000F87
:1036F00040807F0000000000000000000000361045
:1037000000000000000000000000000000000000B9
:1037100000000000000000000000000000000000A9
:103720000048E80100000000000000000001000067
:103730000100000100000000000000000000000087
:043740000000000085
:04000005080000F5FA
:00000001FF
