:020000040800F2
:10000000800C00200D0100084B3300081701000888
:1000100049330008F90E0008A56700080000000039
:100020000000000000000000000000001F010008A8
:10003000FB0E00080000000023010008BD5B000863
:1000400027010008270100082701000827010008F0
:100050002701000827010008150F00085F0F00089E
:100060006F0F00087F0F00088F0F0008270100089E
:1000700027010008270100082701000827010008C0
:1000800027010008270100082701000827010008B0
:100090002701000827010008270100089F0F00081A
:1000A00000000000270100082701000827010008C0
:1000B000815D00088D5D0008270100082701000808
:1000C0002701000827010008270100082701000870
:1000D00027010008396300082701000827010008EC
:1000E000250F00089D3A0008270100082701000895
:1000F00027010008DFF810D000F0C8FC00480047D6
:100100005D740008AFF30080800C00200648804733
:1001100006480047FEE7FEE7FEE7FEE7FEE7FEE7EC
:10012000FEE7FEE7FEE7FEE7315D0008F5000008A8
:1001300040EA01039B0703D009E008C9121F08C069
:10014000042AFAD203E011F8013B00F8013B521EE9
:10015000F9D27047D2B201E000F8012B491EFBD260
:1001600070470022F6E710B513460A4604461946C2
:10017000FFF7F0FF204610BDF0B480EA0102D40F73
:100180004200B2EB410F02D20246084611464A0035
:1001900042D0C30DDDB2C1F3C752AD1A202D35DAFE
:1001A000C1F3160141F4000204B15242C5F1200628
:1001B00002FA06F12A411044B3EBD05F23D0C4B158
:1001C000012DA0EBC35009DCF0BC4FF0004202EA65
:1001D000C352DBB200F5000000F071BB400000F13B
:1001E000807000EBC350A0F1807040EAD1704900EC
:1001F00009E0490841EAC071A0EBC35000F50000D6
:10020000400800EBC350F0BC00F050BB614201223B
:1002100002EB4101001BF6E7F0BC704781F00041A2
:10022000AAE780F00040A7E780EA010210B502F0DB
:100230000043400022D04A001FD0010E01EB1261A2
:10024000C0F35600C2F3560240F4000042F400022C
:10025000A0FB022000047F39140400D0401C50EAA7
:10026000124001D44000491EC2B20C0604EBD0106B
:10027000401C4008802A02D003E0002010BD20F07E
:100280000100002900DA0020184310BD30B480EAD4
:10029000010202F0004530F0004221F0004013D08E
:1002A00090B1C30DD40DC2F31601C0F31600E41AC9
:1002B00041F4000140F400027D34914201D3641CFA
:1002C00000E04900002C02DA30BC002070474FF4F7
:1002D00000000023914201D3891A034340084FEAEA
:1002E0004101F7D151B1914202D14FF0004105E0F7
:1002F00002D24FF0010101E06FF0010103EBC450A5
:10030000284430BC00F0D2BA2DE9FE4F804681EA85
:100310000300C00F0C46009021F0004123F000457F
:10032000B8EB0200A94105D24046214690461C4642
:100330000B46024623F00040104347D0270DC7F379
:100340000A00C3F30A510290401A019040286BDA68
:10035000C3F3130040F4801B0098924620B10023A1
:10036000D2EB030A63EB0B0B01985946C0F1400234
:10037000504600F06AFA06460D4650465946019A24
:1003800000F082FA10EB08006141002487EA115264
:1003900084EAE7731A4340D0009A62B3019A012AB3
:1003A0004FEA075215DC001B61EB02014FF00042DF
:1003B00002EA0752CDE90042001C41F580113246A5
:1003C0002B4600F0B9FA03B0BDE8F08F4046214655
:1003D000F9E7001B61EB0201001C41F580130018D6
:1003E0005B412018A2F5001747EB030140EAD570E6
:1003F000B6196D4111E06D084FEA360645EAC07541
:100400004FEA0752001B61EB0201001C41F580110D
:1004100049084FEA30000019514132462B4603B0DB
:10042000BDE8F04F00F079BA0098012240000023A7
:10043000D0EB020263EBE073009821464FEAE074D0
:10044000B8EB000061EB0401E9E783F000435BE7F0
:1004500081F0004158E72DE9FE4F81EA030404F0E2
:10046000004421F0004100944FF0000B23F00043C2
:1004700050EA01045ED052EA03045BD0C3F30A548D
:10048000C1F30A552C44A4F2F3340194A0FB0254A6
:10049000C1F3130141F48011C3F3130343F4801338
:1004A00001FB024400FB034E840A970A44EA81548C
:1004B00047EA8357A4FB076802958D0A05FB078569
:1004C0004FEA932C04FB0C542705029D4FEA065873
:1004D00047EA1637B5EB08056EEB070C870E920E50
:1004E00047EA811742EA8312A7FB0201B6EB0B0130
:1004F00064EB00042B0D43EA0C335E1844EB1C50F4
:10050000DA465146E7FB0201C5F313044FEA0B3309
:1005100043EA14534FEA0432019C43EA0603A4F170
:100520000C040294009CCDE900B400F005FA03B07D
:10053000BDE8F08F00200146F9E72DE9F04D81EA92
:10054000030404F0004B21F0004514464FF0000A6C
:1005500023F0004150EA050220D054EA01021DD0E8
:10056000C5F30A570246C5F31303C1F31300C1F3E1
:100570000A5640F4801543F48013A7EB0608101BBD
:10058000D64608F2FD3873EB050002D308F10108E6
:1005900001E092185B41B8F1000F03DA0020014638
:1005A000BDE8F08D00204FF48011064684460EE031
:1005B000171B73EB050705D3121B63EB05030643FB
:1005C0004CEA010C49084FEA300092185B4150EAAE
:1005D0000107EDD152EA030012D082EA040083EA57
:1005E0000501084305D0101BAB4106D201220023B0
:1005F00006E000224FF0004302E06FF001025310CA
:100600001AEB06004CEB085110EB0A0041EB0B0112
:10061000BDE8F04D00F081B970B521F0004303430F
:100620000CD0C1F30A550024D5EB040564EB040398
:10063000D617AD1AB34102DB0020014670BD201869
:1006400041EB025170BD96230022114600F037B9EC
:100650000EB5C10F80EAE0700844CA07002140F2DD
:1006600033438DE80E000A460B4600F065F903B0EF
:1006700000BD0EB540F2334102910021CDE90011D9
:100680000A460B4600F058F903B000BD70B5C1F33F
:100690000A5201F000450024C1F3130140F2FF3378
:1006A00041F480119A4201DA002070BD40F23343D8
:1006B0009A42A2F2334203DC524200F0D5F800E045
:1006C00090402C43F1D0404270BDC1F30A5210B5A6
:1006D000C1F3130140F2FF3341F480119A4201DA71
:1006E000002010BD40F233439A42A2F2334203DCB1
:1006F000524200F0B9F810BD904010BD00F0004229
:1007000030F000400AD0C10D01F56071C0F3160051
:1007100042EA0151C20840071143704700200146D8
:100720007047000030B5041E71F1000404DB4FF087
:100730000044404264EB0101141E73F1000405DB28
:100740001C464FF00043524263EB04038B4208BF48
:10075000824230BD30B5041E71F1000404DB4FF05D
:100760000044404264EB0101141E73F1000405DBF8
:100770001C464FF00043524263EB0403994208BF0A
:10078000904230BD01F0004330B421F0004150EA06
:10079000010206D00A0DA2F56072C1F31301002A0E
:1007A00002DC30BC00207047440F44EAC104C100A1
:1007B000E01830BC00EBC25000F078B830B50B4602
:1007C000014600202022012409E021FA02F59D4281
:1007D00005D303FA02F5491B04FA02F52844151E55
:1007E000A2F10102F1DC30BD2DE9F05F05460020E9
:1007F00092469B4688460646814640241BE0284692
:1008000041464746224600F02FF853465A46C01A42
:10081000914110D311461846224600F016F82D1AC1
:1008200067EB01084F4622460120002100F00DF839
:1008300017EB00094E41201EA4F10104DFDC4846FD
:1008400031462A464346BDE8F09F202A04DB203A81
:1008500000FA02F1002070479140C2F1200320FA13
:1008600003F3194390407047202A04DB203A21FA11
:1008700002F00021704721FA02F3D040C2F12002B9
:100880009140084319467047202A06DBCB17203ACF
:1008900041FA02F043EAE07306E041FA02F3D04085
:1008A000C2F1200291400843194670470029A8BFB1
:1008B0007047401C490008BF20F00100704710B489
:1008C000B0FA80FC00FA0CF050EA010404BF10BC3E
:1008D000704749B1CCF1200421FA04F411FA0CF16B
:1008E00018BF012121430843A3EB0C01CB1D4FEAA4
:1008F00000614FEA102042BF002010BC704700EB9F
:10090000C35010440029A4BF10BC7047401C4900CC
:1009100008BF20F0010010BC704710B5141E73F121
:10092000000408DA401C41F1000192185B411A43AF
:1009300001D120F0010010BD2DE9F04D92469B46FB
:1009400011B1B1FA81F202E0B0FA80F220329046A1
:10095000FFF77BFF04460F4640EA0A0041EA0B011D
:1009600053465A46084313D0114653EA010019D0A2
:10097000C8F140025046FFF777FF05460E46504645
:1009800059464246FFF761FF084305D0012004E0C5
:1009900020463946BDE8F08D0020054346EAE07662
:1009A0002C4337430A986305E40AA0EB08000022B1
:1009B000FD0A44EA47540A3002D500200146E9E71F
:1009C000010510196941DDE9084500196941BDE8D3
:1009D000F04DA2E72DE9F041054621F000400C461C
:1009E000284309D0C4F30A5040F23341884205DD60
:1009F00028462146BDE8F0812846FBE740F2FE315B
:100A0000884210DC0CDB4FEA043040EA155050EA13
:100A1000053105D0104804F0004101430020E9E70A
:100A200000200146E6E7A0F233404642C6F140020C
:100A300028462146FFF709FF0746884628462146F3
:100A40003246FFF711FF43463A46FFF766FF32464C
:100A5000BDE8F041FFF7F9BE0000F03FC1F30A52D4
:100A6000C1F3130140F2FF3341F480119A4202DADC
:100A700000200146704740F233439A42A2F23342CB
:100A800002DC5242FFF7F0BEFFF7DFBE064C074D17
:100A900006E0E06840F0010394E80700984710344E
:100AA000AC42F6D3FFF72AFB508D0008708D00088A
:100AB00070B58C1810F8015B15F0070301D110F820
:100AC000013B2A1106D110F8012B03E010F8016B4D
:100AD00001F8016B5B1EF9D12B0705D40023521ED0
:100AE0000DD401F8013BFAE710F8013BCB1A921C38
:100AF00003E013F8015B01F8015B521EF9D5A14236
:100B0000D8D3002070BD000010B50021044800F0CB
:100B100069F803480221BDE810400C3000F062B8CB
:100B20005C01002070B5044600680168C9434906AD
:100B30001CD4816821F00101816000F013FF05469B
:100B40000FE000BF00F00EFF401B022809D9E06C47
:100B500040F01000E064206D40F0010020650120AD
:100B600070BD20680068C0434006EBD5002070BD12
:100B7000F8B500260446009600680168C943490696
:100B80002AD5816841F00101816014481449006848
:100B9000B0FBF1F000EB400000E0401E00900028A8
:100BA000FBD100F0DFFE054611E000BF00F0DAFEE9
:100BB000401B02280BD9E06C40F01000E064206D6F
:100BC00040F00100206584F848600120F8BD2068ED
:100BD0000068C0434006E9D40020F8BD240100208D
:100BE00040420F00064A10B51378002B07D10123AD
:100BF000137000F01DF8BDE8104000F003B810BD00
:100C00004C010020094800214FF020628160C16042
:100C10004162C162C0E90D214FF480624261C1634B
:100C2000012281618262C16100F02CBC900200202F
:100C30007CB50C460E4905460C4808600D4908680D
:100C400040F400700860086800F4007000900848E4
:100C500000F092FB601C08D0002100910B4601912E
:100C600003222146284600F0C7F97CBD002401403C
:100C700090020020203802402DE9FF474FF0000885
:100C8000012494FAA4F0324EB0FA80F0CDF800803E
:100C9000CDF80480CDF8088046F820402D4D2D4B2E
:100CA0003435022090FAA0F2B2FA82F242F0200229
:100CB000520901D01A6800E02A6890FAA0F7B7FA42
:100CC00087F707F01F0704FA07F73A42EAD0214DE9
:100CD0002035286840F4007028602868CDE90014A9
:100CE00000F4007003900620029069461A4800F054
:100CF0009FFA194F3868816841F0010181603846D8
:100D000000F0E3FC4FF0FF31384600F08BFC384632
:100D100000F0B4FB1FFA80F93868816821F0010106
:100D200081600098102801D0112802D10A4800F0F3
:100D300023FB286820F40070286094FAA4F1B1FA2B
:100D400081F146F8218004B04846BDE8F0870000F4
:100D500000004742003802409002002001484068ED
:100D600070470000E4000020034A12780AB1FFF740
:100D700083BF0020704700004C0100202DE9F041A6
:100D800000211548FFF7F0FF144C2080FFF771FC9D
:100D90006FF00B052A46FFF73FFC114F4FF0663608
:100DA00032463B46FFF757FBFFF7ECFC60600A4812
:100DB00002210C30FFF7D8FF6080FFF75AFC2A466B
:100DC000FFF72AFC32463B46FFF745FBFFF7DAFC0C
:100DD000A060BDE8F08100005C010020E40000207C
:100DE00066660A4010B5040001D003F00FF901480F
:100DF000C47010BDFC00002072B602484178491C46
:100E000041707047F800002004494878401E10F0F7
:100E1000FF00487000D162B670470000F800002063
:100E200030B51B4D85B02878A0B104F01DFF00BF80
:100E30004FF0FF300090052306220721154804F0EB
:100E4000EDFD03F083FC2878002801D101202870F3
:100E500005B030BD00F094FD04F0B8FE03F08EF84C
:100E60000024009401230322122102A8019400F01F
:100E7000C3F8009400230322082102A8019400F083
:100E8000BBF800F06DFC00F05BFC00F061FCCFE70C
:100E9000F8000020580700201CB5002400942346C9
:100EA000012203211348019400F0A6F81148009490
:100EB0000023012218210C30019400F09DF801203C
:100EC000CDE900040B4800231A462D21183000F00C
:100ED00093F80121074800F0A9F9064801210C30D8
:100EE00000F0A4F9BDE81C4002480121183000F0D0
:100EF0009DB90000E4020020FEE77047002104E0F5
:100F000000BF00BF00BF00BF491C8142F8D370473B
:100F100000F02EBC10B503F079F8BDE810400120B8
:100F200000F044BC10B503F071F84FF4806000F09D
:100F30003DFC4FF4006000F039FC4FF4805000F0AD
:100F400035FC4FF4005000F031FC4FF4804000F0CD
:100F50002DFCBDE810404FF4004000F027BC10B558
:100F600003F054F8BDE81040022000F01FBC10B59B
:100F700003F04CF8BDE81040042000F017BC10B599
:100F800003F044F8BDE81040082000F00FBC10B595
:100F900003F03CF8BDE81040102000F007BC10B58D
:100FA00003F034F8202000F001FC402000F0FEFBAC
:100FB000802000F0FBFB4FF4807000F0F7FBBDE8F1
:100FC00010404FF4007000F0F1BB0000094A00210E
:100FD00052F83130834208D802EBC1039B68834248
:100FE00003D902EBC10000797047491CC9B2152929
:100FF000EED3FEE7A08C00087CB5DDE90645CDE91F
:10100000004500F001F87CBDF0B587B00546DDE98C
:101010000C760170481C6AD001F00F04012000FA20
:1010200004F46C80334C11F0F00F1FD0C1F30311A6
:10103000012925D002292DD0032935D02E496960F8
:10104000216841F020012160216801F02001059113
:1010500069880091AF720221CDE9027172B3032A4F
:101060002ED0022A2FD0012B35D035E023496960DC
:10107000216841F001012160216801F00101E6E7EA
:101080001F496960216841F002012160216801F077
:101090000201DCE71B496960216841F0040121601D
:1010A000216801F00401D2E717496960216841F025
:1010B00008012160216801F00801C8E7002000E074
:1010C000032001900FE0012B02D0019104960AE069
:1010D00012200190FAE711200190012A03D1314634
:1010E000284600F097F86946686800F06BFB07B087
:1010F000F0BD00001C380240001402400000024015
:101100000004024000080240000C02402DE9F041BA
:1011100086B01F00904605464FF000064FF00604CB
:101120006CD068880090012916D0022916D0354865
:101130000190A87A0290022003906946686800F046
:1011400041FB5FEA08000BD0012809D0022809D032
:10115000B8F1030F09D107E02B48E9E72B48E7E78F
:10116000032602E0022600E001266888B0F5807FB1
:1011700033D012DC10282ED008DC012830D0022811
:1011800023D0042823D008282AD122E0202824D0E4
:10119000402822D0802823D11FE0B0F5805F1ED0E8
:1011A00009DCB0F5007F18D0B0F5806F17D0B0F52E
:1011B000006F15D113E0B0F5005F10D0B0F5804F8F
:1011C0000DD0B0F5004F0BD109E0072408E008244A
:1011D00006E0092404E00A2402E0172400E02824A1
:1011E00028780B4900F00F00002241F820703146AA
:1011F000204600F0F1FB204600F0E3FB06B0BDE81E
:10120000F0810000000031100000111000002110DA
:101210004C03002090F90020521C04D0CAB241882F
:10122000406800F09ABB7047FFF770BFFFF7F2BF4E
:10123000F8B50024009490F848202546012A12D0E1
:10124000012280F848204A681F23072A0DD2066829
:10125000376C521E02EB820293409F430B6893400F
:101260001F43376435E00220F8BD0D2A0BD2076812
:10127000FE6BD21F02EB820293409E430B689340A9
:101280001E43FE6325E0132A0BD20668B76B0D3AA6
:1012900002EB820293409F430B6893401F43B76366
:1012A00017E00668192A0AD2776B133A02EB82021A
:1012B00093409F430B6893401F43776309E0376B6C
:1012C000193A02EB820293409F430B6893401F43FD
:1012D00037630A6807230A2A0AD20668776902EB8D
:1012E000420293409F438B6893401F4377611CE009
:1012F000142A0BD207683E690A3A02EB4202934075
:101300009E438B6893401E433E610EE01A2A0BD821
:101310000768FE68143A02EB420293409E438B68D2
:1013200093401E43FE6000E000BF0A68102A01D00F
:10133000112A17D10D4A13681B0213D4136843F402
:1013400000031360096810290CD10949094A09688A
:10135000B1FBF2F101EB8101490000E0491E00916F
:101360000029FBD180F848502046F8BD04270140F1
:101370002401002040420F0070B504000BD0E06C47
:1013800040F00200E0642046FFF7CCFB06004FF07F
:10139000000502D065E0012070BD21686FF01F00DC
:1013A000086020684168314A1140416020688168C6
:1013B0002F4A1140816000BF2068C1686FF314019B
:1013C000C1602068016901F0404101612068416904
:1013D00001F040414161206881696FF30B01816137
:1013E0002068C1696FF30B01C1612068016A6FF366
:1013F0000B0101622068416A6FF30B0141622068B2
:10140000816A6FF30B0181622068C16A6FF30B017F
:10141000C1622068016B174A114001632068416B6B
:1014200001F0404141632068816B01F040418163DC
:101430002068C16B01F04041C1632068016C01F07C
:10144000404101642068416C6FF3150141640A4812
:10145000016821F400010160204600F0E1F82565F3
:10146000E56484F84850304670BD000000003CF848
:101470008CF0808000800FFE042701400068806DA2
:1014800070470000F8B504004FF0000503D0E06C91
:10149000002610B110E00120F8BD26655B4884F8F5
:1014A0004860016841F001010160006800F001003E
:1014B0000090204600F0B5F8E06CC00678D4E06CEF
:1014C00020F4885040F00200E064514801686268EE
:1014D00021F44031114301606169E0684FF4007309
:1014E000084393FAA3F3E26BB3FA83F3216A9A40B9
:1014F00011430843022191FAA1F1626AB1FA81F124
:1015000002FA01F10843616B102902D0A36B194361
:101510000843236819684FF48077C943490629D5E1
:10152000A169D4F81CC00843A168D4F810E041EACE
:101530000C01BE450CD0BEF1010F09D04FF0000CDC
:1015400041EA0C01D4F82CC0BCF1010F02D00AE032
:10155000BC46F5E76AB3E26C42F02002E264226D19
:1015600042F0010222655A68DFF8A8C002EA0C02C4
:101570000A435A6021688A68274B1A4002438A60EE
:101580002169B94224D0012922D021680A6B22F0B6
:10159000F8720A6321688968204A1140814227D184
:1015A0002665E06C20F0020040F00100E0642AE0D3
:1015B00028E0FFE74FF4604C226B9CFAACFCBCFACD
:1015C0008CFC521E02FA0CF20A4342F40061CAE794
:1015D00021680A6B4FF0F87722F0F873A26A97FA45
:1015E000A7F7B7FA87F7521EBA4013430B63D1E748
:1015F000E06C20F0020040F01000E064206D40F04C
:101600000100206501252846F8BD00002038024071
:1016100004270140FF16FCFC8DF1FFC0FEFF80BFD8
:10162000704770472DE9F041044600680D46816817
:101630004FF0000749050BD58068C00508D5E06C60
:1016400040F02000E06484F848700120BDE8F0819B
:1016500000F088F906460FE0681C0DD025B100F0B7
:1016600081F9801BA84207D9E06C40F00400E064D7
:1016700084F848700320E9E7206800688007EBD50C
:10168000A06918B921686FF012000860E06C40F49E
:101690000070E0642068816811F0405F13D1616AD6
:1016A00089B9016B11F0F87F02D0806840050AD437
:1016B000E06C20F48070E064E06CC00403D4E06C63
:1016C00040F00100E0640020C0E710B5044690F847
:1016D0004800012822D0012084F848002046FFF766
:1016E00047FA00281BD1E16C40F20162914341F4BA
:1016F0008071E16421684A68520505D5E26C22F4E4
:10170000005242F48052E264E26CD3044FF00002D3
:1017100006D5236D23F00603236502E0022010BDE9
:10172000226584F848206FF022020A6021688A68E6
:1017300012F0405FF3D18A6842F080428A6010BDA7
:101740000248416841F0010141607047002004E017
:101750000248416841F0040141607047002004E004
:101760000248416841F0020141607047002004E0F6
:1017700031B500F0F7F8044600F0F4F80099001BCA
:101780008842F9D338BD0000002118B904E04008B0
:10179000491CC9B20128FAD1034850F82100002899
:1017A00000D00047704700004C030020044910B5EA
:1017B0000A68024202D00860FFF7E6FF10BD000091
:1017C000140401402DE9F84FDFF864B100234FF015
:1017D000010C4FF0030A4FF00F090BF1040EA0E0CB
:1017E0000CFA03F6324072D04C68022C01D0122C55
:1017F0000ED1DC0800EB8408D8F820405D07EF0E1E
:1018000009FA07F5AC430D69BD402543C8F82050DF
:1018100007685D0091F804800AFA05F408F00308EF
:10182000A74308FA05F848EA0708C0F800804F689F
:10183000012F05D0022F03D0112F01D0122F11D16B
:101840008768D1F80C80A74308FA05F848EA07082A
:10185000C0F808804768B7430E79C6F300169E406B
:101860003E434660C668A6438C68AC403443C460BF
:101870004C68E40054D52F4C256845F001052560DF
:10188000246823F0030504F0010400942A4C254445
:10189000AF689C07240F09FA04F6B743274EB042FD
:1018A00001D1002615E0264EB04201D1012610E0FC
:1018B000244EB04201D102260BE0234EB04201D1AA
:1018C000032606E0214EB04202D1042601E027E0C3
:1018D0000526A6403E43AE60DBF800405D464E68FC
:1018E0009443F60300D514432C60DEF8004075469F
:1018F0004E689443B60300D514432C600C4D083554
:101900002C684E689443F60200D514432C60084DB1
:101910000C352C684E689443B60200D514432C60F5
:101920005B1C0A6832FA03F47FF45AAFBDE8F88F03
:101930000004014020380240000001400000024045
:101940000004024000080240000C02400010024067
:101950000069084000D0012070470AB181617047DA
:101960000904FBE7014800687047000028010020D7
:1019700002480168491C01607047000028010020EE
:1019800010B5032000F048F8002000F005F800F042
:1019900017F8002010BD000010B5044607484FF4AA
:1019A0007A710068B0FBF1F001F0A4F90022214641
:1019B000501E00F011F8002010BD0000240100208E
:1019C000704700F01F02012191404009800000F1A2
:1019D000E020C0F800117047F0B40E4B1B680C46B5
:1019E000C3F30223C3F10705042D00D90425191DF3
:1019F000072901D2002300E0DB1E012606FA05F1CB
:101A0000491E214099409E40761E16403143F0BC4D
:101A100001F004BD0CED00E0064900F00702086883
:101A20004FF6FF03184040EA0220034A10430860C3
:101A3000704700000CED00E00000FA050248006865
:101A400000F4C05070470000007000402DE9F84FCE
:101A500006460078C00775D0DFF84C810027D8F81B
:101A60000000C0000BD4D8F8001041F08051C8F835
:101A70000010D8F80000012700F0805000904B4C77
:101A80002068C00510D4206840F480702060FFF703
:101A900069FF054605E000BFFFF764FF401B6428AF
:101AA0004ED82068C005F7D53F4D243D286800F08A
:101AB000C041706800F0C0428A4209D0C0F30141C1
:101AC000032905D12968890302D50120BDE8F88FD3
:101AD000354C1034216811F440314AD000F44030C4
:101AE000884246D03078C00743D020684FF40002C7
:101AF00092FAA2F1B1FA81F14FEA810C2C494FF030
:101B0000010A8C4420F44030CCF880A692FAA2F26C
:101B1000B2FA82F201EB82010023C1F88036206024
:101B2000C00526D5FFF71EFF81464FF4007B0AE073
:101B3000FFF718FFA0EB090141F28830814202D97A
:101B40000320C3E72EE09BFAABF0B0FA80F040F040
:101B50004001BAEB511F01D1296800E021689BFACE
:101B6000ABF2B2FA82F202F01F020AFA02F001426C
:101B7000DED07068C0F30141032906D1296800F066
:101B8000C04021F0C041014329602068716801F420
:101B90004031084320602FB1D8F8001021F0805167
:101BA000C8F80010002091E724380240007000407F
:101BB000000047422DE9F047DFF8BC8105460E469C
:101BC000D8F8000000F00100B04214D2012E05D177
:101BD000D8F8001041F00401C8F80010D8F800103F
:101BE00021F001013143C8F80010D8F8000000F0DE
:101BF0000100B04271D12878604C800705D520687B
:101C0000A96820F0F000084320602878C00771D050
:101C10005A4A5A4B69680120083A2C33022910D0DD
:101C200003292ED001292FD05FEA402797FAA7FC7D
:101C3000BCFA8CFC4CF0200C5FEA5C1C04D01268EF
:101C400003E04FF40037F1E71A6897FAA7F3B3FA05
:101C500083F303F01F039840024262D0206820F013
:101C6000030008432060FFF77DFE6968074641F2E4
:101C70008830022910D003291CD00129814626D0A2
:101C800034E04FF00077D1E70227CFE7FFF76AFE95
:101C9000C11B494501D926E081462068C0F3810077
:101CA0000228F3D126E000BFFFF75CFEC11B4945C7
:101CB00001D918E081462068C0F381000328F3D1E0
:101CC00018E000BFFFF74EFEC11B49450BD8206846
:101CD000C0F381000128F5D10CE022E0FFF742FEBD
:101CE000C11B494502D90320BDE8F087206810F0E8
:101CF0000C0FF3D1D8F80010404601F00101B142B9
:101D000011D9012E03D1016841F00401016001687D
:101D100021F0010131430160006800F00100B04290
:101D200001D00120E0E72878400705D52068E96860
:101D300020F4E060084320602878000706D520687A
:101D4000296920F4605040EAC100206000F052F898
:101D50002168F02292FAA2F201F0F001B2FA82F2C6
:101D6000D140074A515CC840064908600020FFF78F
:101D700013FE0020B8E70000003C02400838024093
:101D800065790008240100200148006870470000C0
:101D90002401002008480949006809684FF4E062FE
:101DA00092FAA2F201F4E061B2FA82F2D140044A5E
:101DB000515CC840704700002401002008380240F0
:101DC0007579000808480949006809684FF46052AD
:101DD00092FAA2F201F46051B2FA82F2D140044ABE
:101DE000515CC840704700002401002008380240C0
:101DF000757900081E4A116801F00C00042813D000
:101E0000082813D00C2813D0101F006800F460417C
:101E10004FF4604090FAA0F0B0FA80F0C1404FF467
:101E20000040491C8840704712487047124870476C
:101E30004FF4701393FAA3F301F47010B3FA83F321
:101E4000D8400E4B01F440011268185C4FF4400377
:101E500093FAA3F3B3FA83F3D940491CD20301D513
:101E6000054A00E0034A5043B0FBF1F07047000020
:101E7000083802400024F40000127A005C7900085F
:101E80002DE9F84F07460078FB4EFC4DC0074FF098
:101E9000010428D0F848083001684FF40038C1F335
:101EA0008101022907D00168C1F3810103291BD1F7
:101EB0000068C00318D598FAA8F0B0FA80F040F096
:101EC0002000400901D0306800E0286898FAA8F1A5
:101ED000B1FA81F101F01F0104FA01F108425CD06E
:101EE000786800287BD058E0786801280AD008B1CB
:101EF000052811D0306820F480303060306820F43C
:101F0000802002E0306840F480303060786828B388
:101F1000FFF728FD81460BE0306840F480203060F8
:101F2000F0E700BFFFF71EFDA0EB0900642872D8A0
:101F300098FAA8F0B0FA80F040F02000400901D0F3
:101F4000306800E0286898FAA8F1B1FA81F101F050
:101F50001F0104FA01F10842E4D01EE0FFF702FD80
:101F6000814605E0FFF7FEFCA0EB09006428DED8FF
:101F700098FAA8F0B0FA80F040F02000400901D0B3
:101F8000306800E0286898FAA8F1B1FA81F101F010
:101F90001F0104FA01F10842E4D13878DFF8E08249
:101FA00080074FF0000B4FF002095FD5B2480830B0
:101FB0000168C1F38101012907D00168C1F38101E2
:101FC00003291CD10068C00319D499FAA9F0B0FA0A
:101FD00080F040F02000400902D0306801E086E047
:101FE000286899FAA9F1B1FA81F101F01F0104FA08
:101FF00001F108422BD0F868012878D127E0F86871
:10200000A8B394FAA4F0B0FA80F048F82040FFF7A3
:10201000A9FC824606E066E1FFF7A4FCA0EB0A00FB
:10202000022884D899FAA9F1B1FA81F141F020018E
:10203000490901D0316800E0296899FAA9F0B0FA9D
:1020400080F000F01F0004FA00F00142E4D08A485A
:10205000001D01684FF4F85393FAA3F33A69B3FAF9
:1020600083F321F4F8519A401143016025E0FFE722
:1020700094FAA4F1B1FA81F148F821B0FFF772FCAB
:10208000824605E0FFF76EFCA0EB0A000228C8D8E4
:1020900099FAA9F0B0FA80F040F02000400901D090
:1020A000306800E0286899FAA9F1B1FA81F101F0ED
:1020B0001F0104FA01F10842E4D138784FF4007AA4
:1020C000C0067CD56C480830006810F00C0F0FD0AB
:1020D000B9694FF48070002972D090FAA0F0B0FA7C
:1020E00080F048F82040FFF73DFC00907EE087E05C
:1020F0009AFAAAF0B0FA80F040F02000400901D02E
:10210000306800E028689AFAAAF1B1FA81F101F08A
:102110001F0104FA01F1084202D0B86900286FD00B
:102120005548396A001D006800F4604081421AD9A0
:10213000084601F077FC002862D14F48001D016875
:102140003A6A21F460411143016001684FF07F4316
:1021500093FAA3F3FA69B3FA83F321F07F419A402B
:102160001143016018E04448001D026822F46042F7
:102170000A43026001684FF07F4393FAA3F3FA69C0
:10218000B3FA83F321F07F419A4011430160386A2A
:1021900001F048FC0028CFD14FF4604191FAA1F141
:1021A000386AB1FA81F1C8404FF40041401C8140C7
:1021B000314808300068F02200F0F00001E070E0E3
:1021C00040E092FAA2F2B2FA82F2D0402D4A105CBC
:1021D000C1402D4801600020FFF7DEFB61E000BF39
:1021E000FFF7C0FB0099401A02287CD89AFAAAF09F
:1021F000B0FA80F040F02000400902D0306801E0E1
:10220000BCE128689AFAAAF1B1FA81F101F01F0144
:1022100004FA01F10842E3D01748001D01683A6A48
:1022200021F460411143016001684FF07F4393FA4C
:10223000A3F3FA69B3FA83F321F07F419A40114383
:1022400001602EE090FAA0F0B0FA80F048F820B0DB
:10225000FFF788FB009005E0FFF784FB0099401A28
:102260000228C2D89AFAAAF0B0FA80F040F0200012
:1022700040090BD030680AE0003802403438024090
:1022800000004742657900082401002028689AFA76
:10229000AAF1B1FA81F101F01F0104FA01F108423B
:1022A000DAD13878000753D5786948B394FAA4F0A6
:1022B000B0FA80F008EB8000C0F88046FFF752FBD0
:1022C000009005E0FFF74EFB0099401A02288CD8D9
:1022D00099FAA9F0B0FA80F040F04000B4EB501F3A
:1022E00002D1306801E08EE0286899FAA9F1B1FACC
:1022F00081F101F01F0104FA01F21042E2D027E05F
:1023000094FAA4F1B1FA81F108EB8101C1F880B629
:10231000FFF728FB009005E0FFF724FB0099401A27
:10232000022870D899FAA9F0B0FA80F040F0400085
:10233000B4EB501F01D1306800E0286899FAA9F188
:10234000B1FA81F101F01F0104FA01F21042E3D168
:10235000387840077BD59B484FF000090068C000E3
:102360000AD49848016841F08051016000684FF03C
:10237000010900F08050009093480168C90511D40C
:10238000016841F480710160FFF7ECFA009005E00C
:10239000FFF7E8FA0099401A642834D88A480068A0
:1023A000C005F5D5B86801280AD008B1052811D0B4
:1023B000286820F480702860286820F4806002E09B
:1023C000286840F480702860B86848B3FFF7CAFAFC
:1023D00000900DE0286840F480602860F0E700BFBE
:1023E000FFF7C0FA0099411A41F2883081420AD8B9
:1023F0009AFAAAF0B0FA80F040F04000B4EB501F17
:1024000002D1306801E095E028689AFAAAF1B1FAA1
:1024100081F101F01F0104FA01F21042E0D022E044
:10242000FFF7A0FA009007E0FFF79CFA0099411A25
:1024300041F2883081427DD89AFAAAF0B0FA80F051
:1024400040F04000B4EB501F02D1306801E012E0D0
:1024500028689AFAAAF1B1FA81F101F01F0104FA91
:1024600001F21042E0D1B9F1000F04D055480168E3
:1024700021F080510160786AE8B3DFF84891A9F152
:102480001C09D9F80010C1F38101032976D0022874
:102490004FF080714FF0007A58460BD091FAA1F1BD
:1024A000B1FA81F148F82100FFF75CFAB04607461F
:1024B00056466DE04FF0807191FAA1F1B1FA81F1C9
:1024C0008A0042495050FFF74DFAB34680465646BF
:1024D00006E000BFFFF746FAA0EB0800022854D838
:1024E00096FAA6F0B0FA80F040F02000400903D040
:1024F000DBF8000001E061E0286896FAA6F1B1FA85
:1025000081F101F01F0104FA01F10842E2D1D7E99B
:102510000A103A6BD9F80030014323F47D031A43C3
:102520001143C9F800104FF0807090FAA0F0B0FA93
:1025300080F000E029E0810024480C50FFF712FAF7
:10254000074604E0FFF70EFAC01B02281DD896FAD2
:10255000A6F0B0FA80F040F02000400902D0DBF88D
:10256000000000E0286896FAA6F1B1FA81F101F0C6
:102570001F0104FA01F10842E4D01FE020E000BF8F
:10258000FFF7F0F9C01B022802D90320BDE8F88F3D
:1025900096FAA6F0B0FA80F040F02000400902D090
:1025A000D8F8000000E0286896FAA6F1B1FA81F1A7
:1025B00001F01F0104FA01F10842E1D10020E5E732
:1025C0000120E3E724380240007000400000474249
:1025D00070472DE9F0470446007F01281CD00126F2
:1025E0002677022060772168CA204862216853203C
:1025F00048622068816821F4806181602068816878
:1026000021F480418160FFF7ADF9054600274FF0C6
:10261000FF084FF47A790EE00220BDE8F087FFF75B
:10262000A1F9401B484506D92168C1F82480032040
:1026300060772777F1E72068C0684007EFD5216809
:10264000C1F82480667727770020E6E7704700000E
:1026500010B5044600688168C9040CD5C068C0057F
:1026600009D52046FFF7F2FF2068C16801F080011C
:1026700061F4C071C1602068816889040CD5C068AC
:10268000800509D52046FFF7A3FF2068C16801F047
:10269000800161F42071C16003494FF4003008608B
:1026A0000120607710BD0000140401402DE9F047BF
:1026B0000446007F012822D04FF0010884F81C80D6
:1026C000022060772268CA2050622268532050623C
:1026D00020680025FF26B1F5807F81684FF0030A4E
:1026E0004FF47A790ED021F40071816020688168FE
:1026F00021F400518160FFF735F9074624E00220FC
:10270000BDE8F08721F4807181602068816821F440
:1027100080518160FFF726F9074604E0FFF722F9B0
:10272000C01B484509D82068C068C007F6D00FE034
:10273000FFF718F9C01B484506D92068466284F89F
:102740001DA025770320DBE72068C0688007EFD550
:102750002068466284F81D8025770020D0E710B5F8
:102760000C464FF480718A4203D1A1610068C169AF
:1027700004E04FF40071A1610068016AC1F30540F3
:102780002070C1F30622627001F07F02A270402225
:1027900002EA1142E270C1F30562227501F0804243
:1027A00001F08031C4E9031273B901F08DF9207092
:1027B000607801F089F96070A07801F085F9A07067
:1027C000207D01F081F92075002010BD10B5006852
:1027D0000B4641680D480140080CD870C1F3042431
:1027E0005C7001F03F049C70C1F34231197052B922
:1027F00001F06AF9D870587801F066F95870987845
:1028000001F062F99870002010BD00003FFFFF004A
:1028100010B500680C4601680E480140C1F3054040
:102820002070C1F30623637001F07F03A37040237F
:1028300003EA1141E17052B901F046F92070607865
:1028400001F042F96070A07801F03EF9A07000201C
:1028500010BD00007F7F7F0070B5040002D0607F54
:1028600010B106E0012070BD00202077204600F066
:1028700041F8022060772168CA204862216853200D
:102880004862204601F034F9FF210028206803D077
:10289000416204206077E5E78268154B1A40826048
:1028A0002268906863681843D4E904352B431843C1
:1028B00090602268E068106120680269238942EA1A
:1028C000034202612068C26822F08002C260206870
:1028D000026C22F4802202642068026CA3691A430D
:1028E00002642068416201206077002070BD000012
:1028F000BFFF8FFF704700002DE9F05F0446007FA7
:102900000D46012844D04FF0010B84F81CB0022082
:1029100060772068002780684FEA4060BAB30028DB
:1029200052DA287801F0D0F8287D01F0CDF8A878A7
:102930002978EA7840EA01406978090241EA0241CF
:102940000843297D40EA0166286921680643E86852
:102950000643CA204862216853204862A869FF25BF
:10296000B0F5807F20684FF0030A4FF47A798168D0
:102970002CD021F4007181602068C16801F08001D1
:1029800061F42071C160FEF7EDFF80464FE002E088
:102990000220BDE8F09F002800DBEF70287801F0EE
:1029A0009CF80604687801F098F846EA0026A878B2
:1029B00001F093F80643E87846EA0046287D01F0E6
:1029C0008CF846EA0066BFE7EF70ADE721F480714E
:1029D00081602068C16801F0800161F4C071C1604C
:1029E000FEF7C0FF804605E0FEF7BCFFA0EB080045
:1029F000484515D82068C068C007F5D02068C66172
:102A00002068816841F4807181602068816841F4A8
:102A100080511BE0FEF7A6FFA0EB0800484506D951
:102A20002068456284F81DA027770320B1E720685D
:102A3000C0688007EED5206806622068816841F48E
:102A4000007181602068816841F40051816009480B
:102A5000016841F40031016006480830016841F422
:102A6000003101602068456284F81DB0277700209E
:102A70008FE70000000401402DE9F0470446007F85
:102A80000B46012825D04FF0010984F81C90022044
:102A90006077587802B301F017F8987801F014F8CD
:102AA0009878D97840EA014558781978000240EAC8
:102AB000413005432168CA2048622168532048629A
:102AC000204601F015F80026FF274FF0040838BB18
:102AD00019E00220BDE8F087C10603D500F0EF0041
:102AE0000A305870D87800F0F8FF0204587800F0E7
:102AF000F4FF42EA0022987800F0EFFF02431878D2
:102B000042EA4035D6E70D48054020684560206818
:102B1000C16821F08001C160204600F085F830B125
:102B20002068476284F81D8026770120D2E720685C
:102B3000476284F81D9026770020CBE73FFFFF0017
:102B40002DE9F0470446007F0D46012811D04FF0D3
:102B5000010A84F81CA002206077206800268068A3
:102B60004FEA406042B100281ADA287800F0ACFF42
:102B700017E00220BDE8F087002800DBEE7028781F
:102B800000F0ABFF0204687800F0A7FF42EA0022E1
:102B9000A87800F0A2FF0243E87842EA00470AE082
:102BA000EE70A878297840EA01476878E978000251
:102BB00040EA014007432168CA2048622168532047
:102BC0004862204600F094FF4FF0FF084FF00409E0
:102BD000C0B914480740206807602068816821F464
:102BE00080218160D5E90101084321688A6810438A
:102BF00088602068C16821F08001C160204600F033
:102C000013F838B12168C1F8248084F81D90267724
:102C10000120AFE72168C1F8248084F81DA0267741
:102C20000020A7E77F7F7F0070B504460068C16879
:102C300021F0A001C160FEF795FE05464FF47A76BB
:102C400007E000BFFEF78EFE401BB04201D9032013
:102C500070BD2068C0688006F4D5002070BD70B5D6
:102C6000040004D094F85100002510B106E00120C2
:102C700070BD84F85050204600F02EF8022084F8F1
:102C800051002068016821F040010160D4E9010190
:102C90000843D4E903121143084361690843218BB7
:102CA00001F400710843E1690843216A0843A16AFD
:102CB000084321680860A069042101EA1040616AA4
:102CC0000843216848602168E06A08616565012061
:102CD00084F85100002070BD70474FF0E0210428B7
:102CE000086903D020F004000861704740F0040038
:102CF000FAE7704710B5401EB0F1807F01D3012084
:102D000010BD4FF0E02460610F21601700F086FBDA
:102D10000020A06107202061002010BD10B5FFF742
:102D2000E8FF10BD10B5040003D094F8350010B1D1
:102D300007E0012010BD002084F83400204600F098
:102D40000DF8022084F83500211D206803F024F8D6
:102D5000012084F83500002010BD000008B501688E
:102D60001448B1F1804F14D0134A914220D1016828
:102D700041F0020101600068012200F002000090B1
:102D800003211D20FEF728FE1D20BDE80840FEF7A8
:102D900018BE016841F0010101600068002200F0E6
:102DA0000100009003211C20FEF716FE1C20ECE71A
:102DB00008BD000024380240000400400168CA68D1
:102DC00042F00102CA600068016841F0010101603F
:102DD00000207047704770B50446006801694FF0E5
:102DE0000005C943890715D4C168C943890711D4AF
:102DF000E91E016101202075206880698007204656
:102E000002D0FFF7E7FF04E000F078F8204600F07A
:102E100076F8257520680169C943490717D4C16848
:102E2000C943490713D46FF00401016102202075E2
:102E30002068806910F4407F204602D0FFF7CAFF67
:102E400004E000F05BF8204600F059F82575206892
:102E50000169C943090716D4C168C943090712D4D7
:102E60006FF008010161042020752068C0698007A7
:102E7000204602D0FFF7AEFF04E000F03FF8204606
:102E800000F03DF8257520680169C943C90617D4CB
:102E9000C168C943C90613D46FF01001016108204D
:102EA00020752068C06910F4407F204602D0FFF7EB
:102EB00091FF04E000F022F8204600F020F825758C
:102EC00020680169C943C90708D1C168C943C90756
:102ED00004D1891E0161204600F012F820680169C2
:102EE000C943490609D4C168C943490605D46FF0EE
:102EF00040010161204600F017F870BD704770472F
:102F000001680748B1F1804F06D0064A914205D1C9
:102F10004068002802D000470068FAE770470000C8
:102F20001001002000040040704770B5040004D078
:102F300094F83900002510B106E0012070BD84F836
:102F40003850204600F020F8022084F8390020682C
:102F5000C16821F40051C160204603F093F8206855
:102F6000016921F4904101612068416921F02A0141
:102F700041612068C16841F40051C160E5630120EE
:102F800084F83900002070BD7047000090F8393097
:102F9000012B01D0122B2CD139B332B390F8383039
:102FA000012B26D0012380F8383081628285C285CA
:102FB0000021C16390F83920122A18D05FF0220254
:102FC00080F8392080F838100168CA6842F48072AD
:102FD000CA6001684A6942F001024A610068C1683A
:102FE00041F02001C160002070470120704732226B
:102FF000E6E702207047000010B586B0142168464D
:10300000FDF7AFF80E48016841F002010160006869
:103010000C4C00F0020005900122C0212046FEF772
:103020009CFCC02000901120019001200290022001
:10303000039069462046FEF7C5FB06B010BD0000B0
:103040001C380240000402402DE9F05F8B4600214D
:103050000170364D91468046012280212846FEF7B8
:103060007CFC012000F016F9802601224021284630
:10307000FEF773FC0120FDF741FF4C4600270120BD
:1030800000F056F84FF47A7A07E0641EE4B201D2F9
:1030900004270BE05046FDF731FF40212846FEF79C
:1030A00057FC0028F1D0002000F042F80320FDF783
:1030B00025FF80212846FEF74BFC20B198F8000040
:1030C000304388F80000002240212846FEF745FCE6
:1030D0000120FDF713FF7608C7D1002000F0DAF8D1
:1030E000BBF1000F1FD0012280212846FEF735FCDE
:1030F0000120FDF703FF012240212846FEF72DFCA9
:103100000520FDF7FBFE002240212846FEF725FCA6
:10311000012280212846FEF720FC1420FDF7EEFE58
:103120003846BDE8F09F0022DEE7000000040240C0
:1031300010B586B0044614216846FDF712F8402009
:103140000090012C01D0112000E00020019001200E
:1031500002900220039069460248FEF733FB06B056
:1031600010BD00000004024010B5114C0122802166
:103170002046FEF7F2FB0120FDF7C0FE01224021B0
:103180002046FEF7EAFB0120FDF7B8FE0022802171
:103190002046FEF7E2FB0A20FDF7B0FE00224021A8
:1031A0002046FEF7DAFBBDE810400A20FDF7A6BE78
:1031B0000004024010B5114C002240212046FEF7C9
:1031C000CCFB0120FDF79AFE002280212046FEF76D
:1031D000C4FB0120FDF792FE012240212046FEF7AC
:1031E000BCFB0A20FDF78AFE012280212046FEF763
:1031F000B4FBBDE810400A20FDF780BE0004024089
:103200002DE9F0410025224E074680243C4201D1A1
:10321000002200E0012280213046FEF79EFB0120C3
:10322000FDF76CFE012240213046FEF796FB05209B
:10323000FDF764FE002240213046FEF78EFB0120A0
:10324000FDF75CFE6408E1D1012280213046FEF7E3
:1032500084FB012240213046FEF77FFB0120FDF771
:103260004DFE012000F016F880213046FEF770FB7D
:1032700000B10125002240213046FEF76EFB1420EC
:10328000FDF73CFE002000F005F82846BDE8F0817F
:103290000004024010B586B0044614216846FCF7CD
:1032A00060FF80200090012C01D0112000E0002060
:1032B0000190012002900220039069460248FEF727
:1032C00081FA06B010BD00000004024010B5FDF701
:1032D000A7FDFDF7E1FD04F09FF8044804F0FEFAB5
:1032E000BDE81040012002F08DBD00008D5E000899
:1032F00010B504F071F8134C50B1207830B100F0E3
:103300009DF82078401E207000F008FA04F0D0F8F4
:1033100004F068F858B12078062806D200F08EF83C
:103320002078401C207000F0F9F904F0C7F804F090
:103330005FF8002805D020786070BDE8104004F0E8
:10334000C3B810BD00000020FEE7704708480749D9
:10335000016008498160084941600849C160084925
:10336000016108480168024808470000D139000897
:10337000740100205D390008E9390008B9390008F6
:10338000A1390008007900082DE9F0411D461446D6
:103390000E460746FFF7DAFF22463146384600F070
:1033A00009F80348416B2846BDE8F0410847000092
:1033B000007900082DE9F041174D88468AB0E96888
:1033C00016468847002405940694CDE90746082749
:1033D0000320CDE90107012607200090CDE903462F
:1033E000D5F81CC02346224641463046E047CDE989
:1033F0000846CDE90446069405200794CDE9020469
:10340000CDE90047032307220021AC690120A04732
:103410000AB0BDE8F0810000007900080907090E34
:10342000002806DA00F00F0000F1E02080F8141DFB
:10343000704700F1E02080F80014704770B5002458
:1034400004F1B000C0B2002100F054FA00210220C3
:1034500000F050FA0021102000F04CFA0025012164
:10346000002000F047FA6D1CEDB2802DF7D3641CEC
:10347000E4B2082CE4D370BDA62000F001B800002F
:103480007CB5012405460094002322461C214D48AA
:103490000194FDF7B1FD4B480094002301221E2149
:1034A0000C300194FDF7A8FD46480094002301224A
:1034B0001D2118300194FDF79FFD42480094002320
:1034C00001221F2124300194FDF796FD0021AE203A
:1034D00000F010FA0021022000F00CFA0021102068
:1034E00000F008FA0021402000F004FA00218120B9
:1034F00000F000FA0021CF2000F0FCF90021A1200B
:1035000000F0F8F90021C82000F0F4F90021A6200D
:1035100000F0F0F90021A82000F0ECF900213F2094
:1035200000F0E8F90021D32000F0E4F9002108467A
:1035300000F0E0F90021D52000F0DCF90021802026
:1035400000F0D8F90021D92000F0D4F90021F120B1
:1035500000F0D0F90021DA2000F0CCF9002112208F
:1035600000F0C8F90021DB2000F0C4F90021402060
:1035700000F0C0F90021202000F0BCF90021022059
:1035800000F0B8F900218D2000F0B4F900211420DA
:1035900000F0B0F90021A42000F0ACF90021284689
:1035A00000F0A8F90021AF2000F0A4F90021AF201D
:1035B00000F0A0F9FFF742FFBDE87C40002108467B
:1035C00000F002B80406002010B50446B031C8B2BD
:1035D000002100F08FF9102040EA1410002100F0C3
:1035E00089F904F00F00BDE8104040F0010000210F
:1035F00000F080B92DE9F04115460E460746FFF769
:10360000E3FF0F48002400EB85150121285D00F041
:1036100071F9641CE4B2102CF7D3761CF1B2384671
:10362000FFF7D2FF00242819012190F8200000F0B4
:1036300061F9641CE4B2102CF5D3BDE8F081000000
:103640006D7F00082DE9F04115460E460746FFF74D
:10365000BBFF00240121285D00F04CF9641CE4B29A
:10366000102CF7D3761CF1B23846FFF7ADFF1024CB
:103670000121285D00F03EF9641CE4B2202CF7D350
:10368000BDE8F0812DE9F041203A00240D46804646
:10369000D7B27F2803D900208D1C8046EDB2294681
:1036A000FFF792FF0F4E00BF04EB07100121305CC3
:1036B00000F020F9641CE4B2082CF5D36D1CE9B2CB
:1036C0004046FFF781FF002404EB0710304401213E
:1036D000007A00F00FF9641CE4B2082CF4D3BDE8C2
:1036E000F08100007D7900082DE9F04117460E4673
:1036F000044600250CE031462046FFF7C3FF08349E
:10370000E4B2782C02D90024B61CF6B26D1CEDB2DE
:103710007A5D002AEFD1BDE8F081000070B5704CF1
:1037200006212078B1EB400F01D2062000E04000D6
:10373000C1B23C227020FFF7A5FF694D21782235E8
:1037400005F1200000F1200600F1400407297CD299
:10375000DFE801F0040404042A52870000211D223E
:103760000846FFF747FF1E2200211020FFF742FF07
:10377000162202210020FFF73DFF17220221102010
:10378000FFF738FF182204210020FFF733FF17222C
:1037900004211020FFF72EFF52A206210020FFF780
:1037A000A3FF4F4A921C24E0002116220846FFF78F
:1037B00021FF172200211020FFF71CFF18220221F1
:1037C0000020FFF717FF172202211020FFF712FF3A
:1037D00044A204210020FFF787FF414A0421921CE4
:1037E0002020FFF72FFF3FA206210020FFF77CFFDC
:1037F0002A46062120206DE0002118220846FFF706
:10380000F9FE172200211020FFF7F4FE35A2022155
:103810000020FFF769FF324A0221921C2020FFF7A7
:1038200011FF30A204210020FFF75EFF2A46042189
:103830002020FFF707FF2DA206210020FFF754FFED
:10384000274A06214232202000E047E0FFF7FAFE37
:10385000324606213020FFF7F5FE062122464020A1
:1038600038E000211FA20846FFF73EFF1C4A002156
:10387000921C2020FFF7E6FE1AA202210020FFF78B
:1038800033FF2A4602212020FFF7DCFE17A2042185
:103890000020FFF729FF124A042142322020FFF7BF
:1038A000D1FE324604213020FFF7CCFE224604210F
:1038B0004020FFF7C7FE0DA206210020FFF714FFEE
:1038C000074A0621A2322020FFF7BCFE044A062147
:1038D000C2323020BDE87040FFF7B4BE70BD0000BA
:1038E000000000204C454431000000004C454432AB
:1038F0000000000070B5054601B101211648FDF732
:1039000095FC154800210C38FDF790FC0024124866
:1039100000210C30FDF78AFC280601D5012100E0CA
:1039200000210D481830FDF781FC0B4801210C30B7
:10393000FDF77CFC6806641C050EE4B2082CE6D397
:10394000054801210C38FDF771FCBDE870400121EC
:103950000148FDF76BBC0000100600202DE9F04780
:103960000C4E07469946F06A15460C468047DFF82C
:10397000288022463946A8F802400848FCF7D8FBC0
:1039800088F8005088F80190716BBDE8F0474FF45B
:103990007A70084700790008F000002090010020AC
:1039A00010B5044CE06A8047616BBDE810404FF4ED
:1039B0007A7008470079000810B5044CE06A804727
:1039C000616BBDE810404FF47A7008470079000839
:1039D00010B5044CE06A8047616BBDE810404FF4BD
:1039E0007A7008470079000810B5044CE06A8047F7
:1039F000616BBDE810404FF47A7008470079000809
:103A000010B5064802F0F8FA05484178002903D0BD
:103A1000002141700121017010BD0000F00500205F
:103A20001C010020F8B507461A48002600681A4D08
:103A300010F0F00F20D1174C1C342068C00002D5C4
:103A4000FDF7FCFF0DE0206840F08050206020680A
:103A500000F080500090FDF7F1FF216821F08051C7
:103A60002160B0F5C05F07D1B7F5404F04D1286899
:103A7000012640F004002860286820F0010030434F
:103A80002860286800F00100B04201D00120F8BD94
:103A90000020F8BD08380240003C024010B509483B
:103AA000FEF7D6FD4FF480710648FEF7FFFD00F0EB
:103AB000ADFA00F02BF90020FDF794F9BDE81040B5
:103AC00002F028BA8C030020010901EB810100F00B
:103AD0000F0000EB4100C0B27047002102E00A383D
:103AE000C0B2491C0A28FAD2090740EA116070479F
:103AF00070B504460068C168490614D44FF0FF3120
:103B0000C160FDF72FFF05464FF47A7607E000BF4E
:103B1000FDF728FF401BB04201D9032070BD20688B
:103B2000C0684006F4D5002070BD00000FB4142218
:103B30002DE9F04F87B00C4612A96846FCF7F8FA59
:103B40009DF85200059067489DF851809DF850708F
:103B50009DF84C60844201D214B102E0044600E0BA
:103B600001242046FCF785FD5F4A604BFCF773FC9F
:103B70008A46814603F0AEFC04460D464A4653464B
:103B8000FCF763FC00225A4BFCF765FCDFF864A1EC
:103B900081468B46DAF80C00FCF75AFD4A465B4634
:103BA000FCF7B2FBFCF772FDDFF84C91DFF84CB18B
:103BB000CAF80C00B0F5F47F16DBA0F5F470CAF873
:103BC0000C0000224E4B20462946FCF79DFB044684
:103BD0000D4609E000224B4620462946FCF735FCFD
:103BE000761C04460D46B6B200224B4620462946B6
:103BF000FCF7B0FDEED9D94600224B4620462946B7
:103C0000FCF7A8FD17D800224B4620462946FCF7B2
:103C10001CFC7F1C04460D46BFB2EDE700224B465C
:103C200020462946FCF711FC044608F101000D4628
:103C30001FFA80F801E0DFF8CC9000224B462046C6
:103C40002946FCF787FDE9D90598FCF712FD2246C5
:103C50002B46FCF759FBFCF738FD80B205E03C38F9
:103C600008F1010180B21FFA81F83C28F7D205E083
:103C7000A8F13C017F1C1FFA81F8BFB2B8F13C0FDC
:103C8000F6D203E0183F761CBFB2B6B2182FF9D2B5
:103C90009DF84D1009B39AF80620114489071CD0ED
:103CA0009DF84B201849491E515CB14203D2B6FB26
:103CB000F1F201FB12668DF80A008DF809808DF88B
:103CC00004608DF80870142269461098FCF730FAE9
:103CD00007B0BDE8F00F5DF814FB0B499DF84B20D1
:103CE0000C31E0E742061200FCA9F1D24D6200401F
:103CF00000408F40FC0000200018F5400020AC4040
:103D00000000F03F00004E40E878000810B5224C5B
:103D100092B0607900283CD10DA800F0F1F814228F
:103D20000DA901A8FCF704FA00234FF4807206A93C
:103D30001A48FEF714FD9DF81900C0EB0010810031
:103D40009DF81800C0EB4012C2EB002001EB001000
:103D50009DF81A1008449DF80D10C1EB01118A005E
:103D60009DF80C10C1EB4113C3EB012102EB0111D3
:103D70009DF80E201144081AFCF77BFC0022084B2A
:103D8000FCF769FB03F03EFAFCF79FFCA060012002
:103D9000607112B010BD0000FC0000208C030020F8
:103DA0000040DF3F2DE9F04700248AB0254680B16E
:103DB000142201466846FCF7BBF99DF80510BDF8D2
:103DC00000000026DFF8F490DFF8F4A088460F1812
:103DD00012E005A800F094F8142205A9EAE7CEB194
:103DE000B00717D00022534620462946FCF78CFA2C
:103DF000761C04460D4636B2B742F0DCB8F1000F2F
:103E00000BD0B80709D09DF803700026DFF8B48006
:103E10007F1E2BE000224B46E6E7DFF8A8809DF8E6
:103E20000370002608F10C087F1E0DE018F806004C
:103E300025494843FCF71DFC22462B46FCF764FA53
:103E4000761C04460D46F6B2B742EFDC10E000BF28
:103E500018F806001C494843FCF70BFC22462B4689
:103E6000FCF752FA761C04460D46F6B2B742EFDC78
:103E70009DF809109DF80A00C1EB011100EB8102C9
:103E80009DF808004FF4616148439DF8041040F22A
:103E9000A323594300EBC1101044FCF7EAFB224670
:103EA0002B46FCF731FA0022084BFCF7D4FA03F05A
:103EB00011FB0AB0BDE8F047FCF707BC50287E4173
:103EC00038137E41E8780008805101000040DF3F50
:103ED0000A498B680022984204D94B7813B14A7082
:103EE0008B68C01A8B68984202D9322801D28A7036
:103EF000704701228A708968401A7047FC000020D0
:103F000010B586B004460022114802A9FEF780FCD5
:103F100000220F480DF10201FEF758FC0D499DF8F3
:103F20000530CA88ADF80020632B03D0087840B173
:103F30001BB106E00120087003E000200870643225
:103F4000CA80142269462046FCF7F2F806B010BD7C
:103F50008C030020FC00002010B50020FFF722FF9A
:103F600004460548FFF71EFF844202D2C0432044A6
:103F700010BD201A10BD0000AC03002070B51F4E0C
:103F800086B03079002837D10125A80590FAA0F035
:103F90001B49B0FA80F001EB8000C0F880561A4847
:103FA00018490024C0E9001403218160C0E903140A
:103FB00044618461FEF750FC8DF8035006208DF8B3
:103FC00005408DF802008DF8045000220E480DF1D6
:103FD0000201FEF751FD0294039400220A4802A94F
:103FE0000494FEF7ADFD002204212920FDF7F4FC26
:103FF0002920FDF7E6FC357106B070BDFC000020FD
:1040000000004742002800408C0300200C48416813
:10401000C943C9070ED00B49012048700A480168FE
:10402000C1F38101012903D0006810F00C0F06D103
:10403000FCF7F6BE016841F004010160EEE770474D
:1040400000700040FC00002008380240AFF3008000
:1040500030B505464FF4807499B021462048FEF7EC
:1040600025FB1F48FEF7B5FA14A8FFF749FF1422F5
:1040700014A908A8FCF75CF81948142208A92030F4
:10408000FCF756F80AAB93E807008DE80700DDE976
:104090000823294614A8FFF749FD142214A903A8F0
:1040A000FCF746F80020119010908DF837009DF82D
:1040B00016008DF836009DF815008DF835009DF836
:1040C000140013948DF834009DF810008DF848000A
:1040D00000220DA90248FEF70FFC19B030BD000008
:1040E0008C03002070B5092000F0A9FD05460620CC
:1040F00000F0A5FD0404072000F0A1FD44EA00241F
:10410000082000F09CFD2043FCF7B3FA0022184B76
:10411000FCF7A1F9FCF7D9FA04460021092001F0C7
:10412000B1FB3B2000F08BFD40F040013B2001F053
:10413000A9FB3B2000F083FD8006FAD40D4800F077
:1041400059FE3B2000F07BFD40F040013B2001F098
:1041500099FB3B2000F073FD8006FAD42946092024
:1041600001F090FB2046BDE8704000F043BE000027
:1041700080844E4000A1BC3310B501F0DDFB03F09C
:10418000F3F903F0A9FABDE810404FF47A5001F0BA
:10419000C5BB70B50446FF20002240F231150FE088
:1041A000A35C58400823060602D585EA400000E0DB
:1041B00040005B1EC0B213F0FF03F4D1521CD2B218
:1041C0008A42EDD370BD000010B5FCF73CFA0449FB
:1041D000FCF72AF8BDE810400249FCF757B8000088
:1041E0000000C84200FF7F4710B5FCF72CFA0549D4
:1041F000FCF71AF80449FCF749F8BDE810400349F8
:10420000FCF70CB800002F4300FF7F47000034424A
:1042100030B4029C23B1012B06D030BC8020704703
:10422000234630BC00F004B8234630BC00F040B850
:104230002DE9FC41984615460E46074600F0EEF87B
:10424000040025D16DB1012D08D0022D03D08024AA
:10425000FEF7B0FF29E042F6104004E042F60D40C0
:1042600001E042F6064000F0E7F8040010D100F04B
:10427000C5F804000CD142460021684600F086F8DB
:10428000040005D10022012101A800F07FF80446B6
:10429000FEF790FF4CB9BDF80000FFF7A5FF3860AE
:1042A000BDF80400FFF790FF30602046BDE8FC81B8
:1042B0002DE9FC411D4617468846064600F0AEF83B
:1042C000040034D15FB1012F06D0022F01D0802429
:1042D0002DE042F2164004E042F20B4001E04FF4C0
:1042E000105000F0A9F8040008D020E000F086F893
:1042F000040008D03846FCF701FE01E04FF47A775D
:104300006D1EEDB2F2D20DB124B110E00424FEF71F
:1043100051FF1AE000221146684600F037F80546C2
:104320000022012101A800F031F840EA0504FEF75F
:1043300041FF54B9BDF80000FFF756FF3060BDF8EB
:104340000400FFF741FFC8F800002046BDE8FC81EB
:1043500000B50448FCF7D2FD4CF250305DF804EB98
:10436000FCF7CCBDA086010038B50446FEF744FE3C
:104370000548447000F02FF84CF25030FCF7BEFDB9
:10438000684600F064F838BD3A0100207CB50D465F
:10439000044600216846FEF757FEB8B900221146D0
:1043A0000DF10100FEF750FE80B90022294601A858
:1043B000FEF74AFE50B9684602219DF80450FFF707
:1043C000E8FEA84201D0022000E00020BDF8001065
:1043D00049BA21807CBD10B500F020F8044643F2B4
:1043E000A20000F029F80443FEF7E4FE1CB94CF2E9
:1043F0005030FCF783FD204610BD000010B5FEF7DD
:10440000B3FE054801214078BDE8104001EB4000B3
:10441000C0B2FEF7F5BE00003A01002010B5FEF76D
:10442000A3FE04484078BDE810404006000EFEF7A9
:10443000E7BE00003A01002070B50446000AFEF70E
:10444000DFFE0546E0B2FEF7DBFE284370BDF8B59F
:104450000546FFF7E3FF06464FF45E50FFF7ECFF1B
:1044600050EA060411D1FFF7C9FF04000DD1642200
:1044700000216846FFF78AFF040006D100220121CF
:104480000DF10200FFF782FF0446FEF793FE1CB910
:1044900000984FEA304028602046F8BD10B544200F
:1044A000FFF762FF002804D0FFF766FE01490120F4
:1044B000087010BD3A01002001207047034988426E
:1044C00001D28020704700207047000040DD4A1F65
:1044D000014890F8AC007047340700202DE9F34FF5
:1044E0000200724981B04FF000000CD0012A7DD14A
:1044F0000024D1F8EC002546072854D0082855D0D0
:10450000092858D155E08A46D1F8C400FCF7B1F823
:1045100006460F460298FCF7ACF8804689463020E4
:1045200000F08DFB30F0F9004FF0000401D0604D39
:1045300000E00025272000F082FB20F0F800BAF808
:10454000C810401C0844FCF794F89AF8CA20012AC5
:104550004FF0000222D0564BFBF7D6FE22462B46E8
:10456000FBF7D2FE42464B46FBF7CEFE9AF8CC2034
:10457000012A4FF0000213D05FF00003FBF7C4FEE6
:104580000322FCF749F832463B46FBF7D6FF0022F0
:10459000484BFBF760FF02F09DFF7FE00023DBE765
:1045A0004FF08043EAE70024434D04E00024434DEC
:1045B00001E0434D00243D4E012056F8F07FB84005
:1045C000FCF746F802460B4620462946FBF7B5FFA6
:1045D00002460B4600203649FBF7AFFF04460D4666
:1045E000F088FCF746F80022364B00E05BE0FBF772
:1045F0008BFE22462B46FBF72EFF834600917079F7
:10460000001DFCF736F880463079894600B102205B
:10461000381A8000FCF72DF8064602988A46C10039
:1046200022487A4201EB820190F8FA2090F8F800D3
:1046300001EB021100B11420081A1C30FCF719F824
:1046400032465346FBF779FF02F0DCFD42464B460B
:10465000FBF701FF002207460E461346FCF77AF8E7
:1046600002D23846314601E0002001460022164BB6
:10467000FBF74AFE22462B46FBF7EDFE02460B46B1
:1046800058460099FBF740FE00220A4BFBF7E3FE79
:104690000E4A0F4BFBF738FE02F022FE03B0BDE8D6
:1046A000F04FFCF712B8BDE8FE8F00003407002081
:1046B0000000F03F00408F408084FE4080840E4127
:1046C00080841E4100001140000020402B8716D935
:1046D000CEF7EF3F70B5184908601849184801F047
:1046E000D7FB17481549143001F0D2FB1448134981
:1046F000283001F0CDFBFFF7F5FC002000F0F2FBC5
:104700000D48001D00F042F80E4D002404EB440655
:10471000A85D00F0ABFB70198178407801F0B2F829
:10472000641CE4B2102CF1D3002000F09FFB06497A
:10473000002081F8AC0070BD3C010020214B000836
:1047400044080020708C0008340700207CB5012448
:1047500000940023224604210B480194FCF74CFCF2
:10476000002509482B462A461B219438CDE90045EF
:10477000FCF742FC044800231A461A218838CDE988
:104780000045FCF739FC7CBDD407002010B5044679
:104790000368032201210648FCF746FD04486368CC
:1047A00003220121BDE810400C30FCF73DBD0000A4
:1047B0004007002070B514460E46054600F056FB33
:1047C000304600F017FB052000F08CFB0120FCF7C1
:1047D0009FFB284600F066FA054600F069FEA542F8
:1047E00001DD002070BD012070BD0000F8B500257E
:1047F0008DF800508E4C8F4E94F8AC0001280AD0F2
:10480000022854D104F5887001F0F6FB94F8AD004D
:1048100001287DD1FCE094F8AD00B8B1012846D163
:104820004021122001F02EF8122000F008FA8DF835
:1048300000009DF8000080066BD52021122001F0B9
:1048400021F894F8FE0000287ED090E094F8CC0087
:10485000012834D13F2000F0F2F98DF800009DF8D6
:10486000000080072BD40B213E2001F00BF8102113
:104870003F2001F007F8704801F0BEFB94F8CE002D
:10488000B0B10D2000F0DBF940F040010D2000F048
:10489000F9FF6948143001F07FFB306810B10069FE
:1048A00000B1804704F8D85F6570A5816581F8BDC7
:1048B0006148143001F0A0FB84F8AC50EDE7B4F887
:1048C000E2105E4F11B9B4F8E40030B1B4F8E4007E
:1048D000091AC9B23844E2340EE094F8CA00A0B311
:1048E000322000F0ACF9A4F8E20000BF14F8E21F97
:1048F0006088091AC9B2384400F0CEF934F8020BC6
:1049000024F8E4094C4801F077FB94F8CE0001E06C
:1049100082E034E010B30D2000F091F940F0400146
:104920000D2000F0AFFF4448143001F035FB306833
:104930000028B7D08668002EB4D094F9DA20B4F8F5
:10494000E21000233D4801E00FE001E0B047A9E795
:1049500039480121423800F09FF9C7E7364884F80A
:10496000AC50143001F048FBE1E784F8AC50324819
:1049700001F042FB3068002899D0006952E019200C
:1049800000F05DF940B284F80801010605D5C04386
:10499000401CC0F38500474201E0C0F385071A20A0
:1049A00000F04DF92649D4F8B020002F06DA00EBCC
:1049B00020108A42384405D99D3804E08A4200EB31
:1049C0002010F9D8A438A4F80A01132000F037F910
:1049D00084F80C010146194800F05EF994F8FE00D5
:1049E00008B984F8AC50144801F006FB3068002880
:1049F000C2D08568002DBFD094F90831B4F90A21DE
:104A000094F80C1101B0AC46BDE8F0400B4860478B
:104A10000821122000F036FF84F8AC5030680028DE
:104A2000AAD000680028A7D001B0BDE8F040004738
:104A3000340700203C0100205808002034060020E4
:104A400040DD4A1F70B5334C204694F8AC3090F8E6
:104A5000AD20B0F8E210B0F8E400A4F58075012BA9
:104A600015D0022B12D1002A10D10A1A234694F82D
:104A7000E710B3F8E430284618448A4243DD00F0DA
:104A80002BFF34F8E40FE1780844208070BDAAB110
:104A9000012AFBD1204801F0AFFA8021122000F05A
:104AA000F1FE002084F8AC001C4800680028EDD01E
:104AB000C0680028EAD0BDE87040004741B938B965
:104AC00094F8CA00A0B1322000F0B9F8A4F8E200CE
:104AD000B4F8E210B4F8E4000A1A94F8E6108A4236
:104AE0000CDD284400F0D8F834F8E40FA178CBE7C7
:104AF00009480121423800F0CFF8E9E7D1B2284453
:104B000000F0CAF802E0D1B200F0E6FE34F8E20F9D
:104B1000608070BD34070020580800203C01002050
:104B20002DE9F047324CDFF8CC904FF0000894F8B4
:104B3000AC00012829D0022857D1FFF7D3FA002072
:104B400000F0D0F92C4E002505EB4507F05D00F094
:104B50008DF9B8198178407800F094FE6D1CEDB2A3
:104B6000102DF1D3002000F081F994F8040100F039
:104B7000D1F984F8AC80D9F80000002835D040681D
:104B8000002832D0BDE8F047004794F8AD00D0B916
:104B900084F8D88084F8D980A4F8E480A4F8E2806E
:104BA00045460B213E20CE3400F06CFE10213F2004
:104BB00000F068FE14F8CE0901280AD084F8AC5041
:104BC0000E4801F019FAD9F8000000280DD0C0688D
:104BD000D6E70D2000F033F840F040010D2000F042
:104BE00051FE064801F0D8F9EDE7BDE8F087000076
:104BF000340700203C010020708C00086C08002065
:104C000070B50025012000F031F9FF21112000F0DE
:104C100039FE052000F066F900240120FCF778F940
:104C20002C2000F00CF800F00100A040641C0543AB
:104C3000E4B2202CF1D300F03BFC284670BD08B54F
:104C40000122694600F004F89DF8000008BD00004C
:104C50002DE9F04104460F480E46154600218046D6
:104C6000FCF7E4FA0B4804F07F017C38074600F0BB
:104C7000B9FE002406E00021384600F0B3FE3055AE
:104C8000641CE4B2AC42F6D34046BDE8F0410121D9
:104C9000FCF7CCBAD40700200A4601460020FFF7F3
:104CA000D7BF000010B520B1012808D04FF0FF3069
:104CB00010BD1120FFF7C3FF4008404210BD084857
:104CC0000849D0F8B00088424FF01B0003D9FFF725
:104CD000B6FF9D3810BDFFF7B2FFA43810BD00002D
:104CE0003407002040DD4A1F73B53B4C05460020C9
:104CF00094F8AD1011B101296BD12DE00020A4F87A
:104D0000E4009DF80410A4F8E21094F8CA0058B129
:104D1000322000F0B7FD00BF9DF80420501E3F2850
:104D200007D884F8E7200BE0012101A800F0D4FDAA
:104D3000F2E72946294802F0B1FB202084F8E70079
:104D400094F8E7102846D03400F0C6FDA08AE17D33
:104D50000844A08220683CE094F8FD0001284FF050
:104D6000330021D0FFF76BFF00F0BE013320491C58
:104D700000F088FD1D213B2000F084FD9DF804100B
:104D800084F80C11222000F07DFD00210E2000F09F
:104D900079FD00210D2000F075FD0120FFF74FFF88
:104DA00030F0F80009D00DE0FFF749FF00F0BE0138
:104DB000332000F067FD1921DDE700F08DFB0120B5
:104DC000FCF7A6F89DF80410284600F085FDD4F8FD
:104DD000000100F095FB7CBD340700203406002064
:104DE0007047000002490A78824200D0087070477C
:104DF0000C0100200E4910B5C1F8B000FBF739FCDA
:104E000000220C4BFBF799FBFBF75FFC0446C0F359
:104E10000741062000F036FDC4F30721072000F00B
:104E200031FDE1B2BDE81040082000F02BBD0000CC
:104E30003407002080844E4070B50D46044600F0D3
:104E400015F824B1012C0DD12946232006E006488F
:104E500090F8CA00002805D129463220BDE87040EC
:104E600000F010BD70BD00003407002010B50446EE
:104E70000120FFF7E4FE1A49000601D5012000E0F9
:104E8000002081F8AD00C0B2A04227D081F8AD402B
:104E9000012C0FD000F00CFB0120FFF7D0FE00F03A
:104EA0007F01012000F0EEFC0021402000F0EAFC30
:104EB00030210EE000F0FCFA0120FFF7C0FE40F0C8
:104EC0008001012000F0DEFC0021402000F0DAFC2F
:104ED0000021BDE81040412000F0D4BC10BD00000E
:104EE0003407002010B5040010D00020FFF77AFF2F
:104EF0002046FFF775FF0120FFF7A1FE00F0F80143
:104F00002143BDE81040012000F0BCBC0120FFF7A8
:104F100069FFF0E710B504460120FFF7A7FF064838
:104F200080F804410CB1342100E01221BDE81040AA
:104F3000392000F0A7BC00003407002070B50446FB
:104F40000920FFF77CFE06464D20FFF778FE054658
:104F50002248D0F8B000FFF7B1FA06F07F0108430D
:104F600040F0700001062BD5112C02DD45F007053D
:104F700002E005F0F8052D1DE943490703D0022C96
:104F80000CDA02240DE0052C01DA052402E0142CD1
:104F900000DD142400F0F001641F05E0112C00DD99
:104FA000112400F0F001A41E04F00F0001430920B9
:104FB00000F068FC2946BDE870404D2000F062BC5E
:104FC0004FF0FF318C4201DA0C4602E00E2C00DD7E
:104FD0000E2400F0F001641CE6E700003407002016
:104FE00070B5854C0546002694F8AD0010B1012837
:104FF00024D124E014F8CE6F4020FFF720FE00F00B
:10500000030040F00C01402000F03CFC4120FFF781
:1050100016FE40F0C101412000F034FC3520FFF7BE
:105020000EFE00F03F0020761E210D2000F02AFC2D
:105030000020A072E072E082A082CE3C9EE094F854
:10504000FD0001284FF0330027D0FFF7F8FD00F0F6
:10505000BE013320491C00F015FC1D213B2000F04F
:1050600011FCD4F8EC0009284FF031007ED2FFF794
:10507000E6FD00F07F01312000F004FC002130202B
:1050800000F000FCD4F8EC0009285BD2DFE800F067
:105090000E19242F3A4556565600FFF7D0FD40F022
:1050A0004101332000F0EEFB1921D7E748212F20E2
:1050B00000F0E8FBD4F8B000FBF7DBFA00224F4B1E
:1050C00035E044212F2000F0DDFBD4F8B000FBF7E1
:1050D000D0FA00224A4B2AE044212F2000F0D2FBD4
:1050E000D4F8B000FBF7C5FA0022464B1FE044217C
:1050F0002F2000F0C7FBD4F8B000FBF7BAFA00226B
:10510000414B14E044212F2000F0BCFBD4F8B00048
:10511000FBF7AFFA00223D4B09E044212F2000F0BD
:10512000B1FBD4F8B000FBF7A4FA0022384BFBF730
:10513000EBF8FBF7CAFAFFF75DFE03E040212F20F2
:1051400000F0A0FB94F8FB0094F8FE60012831D039
:105150001F21112000F096FB4020FFF770FD00F0AA
:105160003F01402000F08EFB002100E01CE00F20FA
:1051700000F088FB00210D2000F084FB4FF48071CB
:105180002448FAF7EEFF012084F8AC0035B1294637
:10519000214800F0F9FE204800F0FEFE94F8AD0032
:1051A00090B116B3052021E0FFF749FD40F08001E2
:1051B0003120C5E71D21112000F064FB4020FFF7DE
:1051C0003EFD00F03301CCE70520FFF78BFE002EFB
:1051D00010D11148D4F8D410143000F0D5FEBDE839
:1051E00070400D48143000F0D7BE0620BDE8704076
:1051F000FFF778BE70BD0000340700200082BE407B
:10520000005AC4400082CE408057D4408084DE40A3
:10521000C058E44034060020580800202DE9FC5F07
:105220009B4614468A468046DDF844900D9F0F9EAB
:10523000FFF71CFE380A994D0090B8F1000F06D018
:10524000B8F1010F74D1BAF1020F73D9FEE745F836
:10525000BCAFAC600C986860AE731098E87385F8CA
:105260001090149868741598A874AF812046FBF7C5
:1052700000FA04460B460191224600208849FBF7BC
:105280005CF90322FBF7C8F980468B460E98FBF7C2
:10529000F0F942465B46FBF7DEF80022814BFBF754
:1052A000DAF8FBF712FAA861224600207E49019B3A
:1052B000FBF743F9FBF709FA84B2210A022000F058
:1052C000E1FAE1B2032000F0DDFA5046FBF77EFE82
:1052D0000146122000F0D6FA0C98FBF777FE014643
:1052E000132000F0CFFA2520009900F0CBFAF9B294
:1052F000262000F0C7FA0EB1109900E0FF213220FD
:1053000000F0C0FA3020FFF79AFC00F06F000EB1F9
:10531000002100E08021084340EA0911302000F01C
:10532000B1FA3120FFF78BFC40F040013120A5E0BD
:10533000B2E0FFE728460AF10708E0E93B840C2CBD
:1053400080F809B0478106731099417380F80E9078
:105350001299C1731399017414994174159985F8C0
:10536000FE1001D90C2402E0062C00D20624B8F16C
:10537000070F03D0B8F1080F02D003E00B2C47D081
:105380000C2C45D05FF0000185F8F4101D20FFF7CC
:1053900056FC4FEA081141EA4B003043C1B21D20D0
:1053A00000F070FA1E20FFF74AFC00F0080040EA07
:1053B000041141EA89000E99032202EA11210843EF
:1053C000C1B21E2000F05EFA2620FFF738FC00F084
:1053D000F70195F8F40041EAC000C1B2262000F0C0
:1053E00051FA0E98C1B21F2000F04CFA202000990B
:1053F00000F048FAF9B2212000F044FA1EB1222050
:10540000109900F03FFA95F8FB00012802D00EE059
:105410000121B9E74420FFF712FC40F0800144204D
:1054200000F030FA95F8FC10242000F02BFAB8F1C7
:10543000090F02D00321362010E01C49D5F8B00036
:1054400088424FF002014FF0360003D900F01AFAFB
:10545000642102E000F016FA7F213A2000F012FAEF
:10546000062C4FF031000DD0FFF7E9FB00F0F801FA
:105470003120C91C00F006FA0A213720BDE8FC5F84
:1054800000F000BAFFF7DBFB00F0F8013120491D06
:1054900000F0F8F90C21F0E7BDE8FC9F340700208C
:1054A0000000F03F00408F4080847E4140DD4A1F75
:1054B00010B5074800F0A0FD0548143800F09CFD29
:1054C0000020FFF70FFD0349002081F8AC0010BD5C
:1054D000580800203407002010B5074800F08CFD64
:1054E0000548143800F088FD0120FFF7FBFC034954
:1054F000002081F8AC0010BD5808002034070020BF
:1055000010B50146254800F03FFD254C94F8AD004C
:1055100010B101282DD119E04020FFF790FB00F0D9
:10552000030040F01001402000F0ACF94120FFF7EB
:1055300086FB00F03E01412000F0A4F93520FFF782
:105540007EFB00F03F0084F8E60012E094F8FB00D8
:10555000012819D0F721112000F094F94020FFF71D
:105560006EFB00F03F0000BF40F04001402000F023
:1055700089F9022084F8AC00084800F00DFDBDE870
:1055800010400320FFF7AEBCF521112000F07AF99E
:105590004020FFF754FB00F03300E5E7440800200B
:1055A000340700202DE9FF4F81B01D46DDE90E4B89
:1055B000DDE910688946DDF854A0129F0198FFF7D5
:1055C00055FC4846FFF7BAFC7548320A019900922B
:1055D00031B1012972D180F8E890022D54D9FEE74B
:1055E00000F8B49F03990461C0E90115868280F830
:1055F0001680077680F819A01699C1610398FBF709
:1056000038F80022674BFAF798FFFBF75EF885B28F
:10561000290A042000F036F9E9B2052000F032F939
:105620002046FBF726F802460B4600205E49FAF7B3
:1056300084FFFBF74AF884B2210A022000F022F925
:10564000E1B2032000F01EF92520009900F01AF9BC
:10565000F1B2262000F016F93020FFF7F0FA00F042
:105660006F00B8F1000F01D0002100E08021084355
:1056700040EA0711302000F005F93120FFF7DFFA8A
:1056800040F04001312078E0ED1DC0E93B5480F846
:10569000F5B0A0F8F66080F8F880139980F8FB1058
:1056A000149A80F8FC2080F8FA7080F8FDA0169A11
:1056B000C0F800210C2C02D90C2403E06CE0062C6D
:1056C00000D20624072D02D0082D02D003E00B2CB7
:1056D00008D00C2C06D0002280F8F4208146012945
:1056E00002D00EE00122F7E74420FFF7A8FA40F0CD
:1056F0008001442000F0C6F899F8FC10242000F046
:10570000C1F81D20FFF79BFA290141EA4B0040EA4E
:105710000800C1B21D2000F0B5F81E20FFF78FFA77
:1057200000F00B0040EA041040EA8700C1B21E20DE
:1057300000F0A8F82620FFF782FA00F0F70199F8A8
:10574000F40041EAC000C1B2262000F09BF82020FE
:10575000009900F097F8F1B2212000F093F8062CA0
:105760004FF031000ED0FFF76AFA00F0F801312057
:10577000C91C00F087F80A21372005B0BDE8F04FBA
:1057800000F080B8FFF75BFA00F0F8013120491D06
:1057900000F078F80C21EFE705B0BDE8F08F0000CD
:1057A0003407002080844E4080847E4170B50646D8
:1057B0008AB00D461046FAF75CFF00221E4BFAF73E
:1057C0004AFEFAF782FF04463046FFF713FB00203B
:1057D00005900690CDE907040521CDE9010103906C
:1057E00004904FF49650002300901A46294618461C
:1057F000FFF7D8FE3120FFF722FA00F0BF01312079
:1058000000F040F8F021402000F03CF8A0214120B9
:1058100000F038F82146094800F0B6FB084902209C
:1058200081F8AC00054800F0B7FB0AB00320BDE8E2
:105830007040FFF757BB000000408F404408002035
:105840003407002010B50E4C94F8AD00002815D098
:10585000012813D1FA21112000F014F84020FFF79D
:10586000EEF900F0FC01402000F00CF8032084F871
:10587000AC00BDE810400720FFF734BB10BD0000AE
:105880003407002013B5012201A900F001F81CBD66
:105890002DE9F04104460F480E461546002180468A
:1058A000FBF7C4FC0B4844F080017C38074600F04D
:1058B00099F8002405E0315D384600F093F8641C47
:1058C000E4B2AC42F7D34046BDE8F0410121FBF71A
:1058D000ADBC0000D40700200A4601460020FFF7B7
:1058E000D7BF000010B586B0044614216846FAF709
:1058F00038FC80200090012C01D0112000E0002015
:105900000190012002900220039069460248FBF7B3
:1059100059FF06B010BD000000040240002208E05C
:10592000002100BF00BF00BF00BF491C0829F8D3F9
:10593000521C8242F4D3704710B586B014216846D9
:10594000FAF70FFC0E48016841F00201016000689F
:105950000C4C00F0020005900122C0212046FBF70C
:10596000FCFFC02000901120019001200290022035
:10597000039069462046FBF725FF06B010BD0000E6
:105980001C3802400004024030B50024039D8460AE
:1059900061B14FF40061C160046207214462C0E953
:1059A0000A41C0E904231DB1446030BDC460F3E77F
:1059B0004FF48271416030BD094B00221B6803E047
:1059C0005B08521C072A01D28B42F9D8302101EA28
:1059D000C201D20700D008221143C1617047000004
:1059E0002401002070B5044600680D46016841F0AE
:1059F00040010160FBF700FA20688168C94389070C
:105A0000FBD4E9B2C16020688168C943C907FBD1F2
:105A1000C068C4B2FBF7F8F9204670BD2DE9FF4F0E
:105A200083B08B460446109FFBF7E6F90525022656
:105A300004F1580004F1640904F1700804F17C0ACF
:105A4000BBF1070F03D0BBF11F0F2ED021E033496C
:105A50000A6842F480520A600A6822F480520A609E
:105A60002E490C310A6842F480520A60096801F438
:105A7000805100912A492DE04FF40070A061002070
:105A8000009000E0009600231A4619462046FFF7D2
:105A90007BFF24492046FFF78FFF2046FDF7DFF804
:105AA00007B0BDE8F04FFBF7AFB91C49091D0A6804
:105AB00042F480420A600A6822F480420A60174970
:105AC00010310A6842F480420A60096801F480419A
:105AD000009115492160CDE9006500230222594655
