:020000040800F2
:10000000900C002009010008032D000813010008CE
:10001000012D00080D0E0008CD3C00080000000076
:100020000000000000000000000000001B010008AC
:100030000F0E0008000000001F0100082939000809
:100040002301000823010008230100082301000800
:100050002301000823010008110E00085B0E0008B0
:100060006B0E00087B0E00088B0E000823010008B1
:1000700023010008230100082301000823010008D0
:1000800023010008230100082301000823010008C0
:100090002301000823010008230100089B0E00082B
:1000A00000000000230100082301000823010008CC
:1000B000ED3A0008F93A000823010008230100087E
:1000C0002301000823010008230100082301000880
:1000D00023010008853C00082301000823010008D3
:1000E000210E00083931000823010008230100080F
:1000F00023010008DFF80CD000F052FC0048004754
:10010000D1470008900C0020064880470648004769
:10011000FEE7FEE7FEE7FEE7FEE7FEE7FEE7FEE7B7
:10012000FEE7FEE79D3A0008F500000840EA0103FB
:100130009B0703D009E008C9121F08C0042AFAD29D
:1001400003E011F8013B00F8013B521EF9D2704761
:10015000F0B480EA0102D40F4200B2EB410F02D2A8
:100160000246084611464A0042D0C30DDDB2C1F333
:10017000C752AD1A202D35DAC1F3160141F4000241
:1001800004B15242C5F1200602FA06F12A41104498
:10019000B3EBD05F23D0C4B1012DA0EBC35009DC79
:1001A000F0BC4FF0004202EAC352DBB200F500009F
:1001B00000F00FBB400000F1807000EBC350A0F1D5
:1001C000807040EAD170490009E0490841EAC071F5
:1001D000A0EBC35000F50000400800EBC350F0BC9A
:1001E00000F0EEBA6142012202EB4101001BF6E78A
:1001F000F0BC704781F00041AAE780F00040A7E71B
:100200002DE9FE4F804681EA0300C00F0C460090A6
:1002100021F0004123F00045B8EB0200A94105D2CE
:100220004046214690461C460B46024623F00040BD
:10023000104347D0270DC7F30A00C3F30A510290B9
:10024000401A019040286BDAC3F3130040F4801B7E
:100250000098924620B10023D2EB030A63EB0B0B0C
:1002600001985946C0F14002504600F078FA06461F
:100270000D4650465946019A00F090FA10EB0800DE
:100280006141002487EA115284EAE7731A4340D09F
:10029000009A62B3019A012A4FEA075215DC001B4B
:1002A00061EB02014FF0004202EA0752CDE9004241
:1002B000001C41F5801132462B4600F0C7FA03B00E
:1002C000BDE8F08F40462146F9E7001B61EB0201D3
:1002D000001C41F5801300185B412018A2F500179F
:1002E00047EB030140EAD570B6196D4111E06D0886
:1002F0004FEA360645EAC0754FEA0752001B61EB2C
:100300000201001C41F5801149084FEA3000001934
:10031000514132462B4603B0BDE8F04F00F087BA9A
:100320000098012240000023D0EB020263EBE0734F
:10033000009821464FEAE074B8EB000061EB04013D
:10034000E9E783F000435BE781F0004158E72DE9DE
:10035000FE4F81EA030404F0004421F000410094C0
:100360004FF0000B23F0004350EA01045ED052EA44
:1003700003045BD0C3F30A54C1F30A552C44A4F21E
:10038000F3340194A0FB0254C1F3130141F4801132
:10039000C3F3130343F4801301FB024400FB034E39
:1003A000840A970A44EA815447EA8357A4FB076802
:1003B00002958D0A05FB07854FEA932C04FB0C542C
:1003C0002705029D4FEA065847EA1637B5EB0805A0
:1003D0006EEB070C870E920E47EA811742EA8312F2
:1003E000A7FB0201B6EB0B0164EB00042B0D43EA03
:1003F0000C335E1844EB1C50DA465146E7FB020111
:10040000C5F313044FEA0B3343EA14534FEA0432A3
:10041000019C43EA0603A4F10C040294009CCDE97C
:1004200000B400F013FA03B0BDE8F08F00200146DD
:10043000F9E72DE9F04D81EA030404F0004B21F0C7
:10044000004514464FF0000A23F0004150EA05022F
:1004500020D054EA01021DD0C5F30A570246C5F365
:100460001303C1F31300C1F30A5640F4801543F49B
:100470008013A7EB0608101BD64608F2FD3873EB75
:10048000050002D308F1010801E092185B41B8F1C0
:10049000000F03DA00200146BDE8F08D00204FF484
:1004A0008011064684460EE0171B73EB050705D343
:1004B000121B63EB050306434CEA010C49084FEAA3
:1004C000300092185B4150EA0107EDD152EA030077
:1004D00012D082EA040083EA0501084305D0101B0C
:1004E000AB4106D20122002306E000224FF0004378
:1004F00002E06FF0010253101AEB06004CEB0851BA
:1005000010EB0A0041EB0B01BDE8F04D00F08FB994
:1005100070B521F0004303430CD0C1F30A55002409
:10052000D5EB040564EB0403D617AD1AB34102DB27
:100530000020014670BD201841EB025170BD0EB580
:10054000C10F80EAE0700844CA07002140F233433B
:100550008DE80E000A460B4600F078F903B000BDA6
:100560000EB540F2334102910021CDE900110A4657
:100570000B4600F06BF903B000BD20F00040C10D48
:10058000C0F3160040F400007F2901DA0020704714
:10059000962903DCC1F19601C8407047963988401E
:1005A000704770B5C1F30A5201F000450024C1F351
:1005B000130140F2FF3341F480119A4201DA002026
:1005C00070BD40F233439A42A2F2334203DC5242FE
:1005D00000F0D4F800E090402C43F1D0404270BDD0
:1005E000C1F30A5210B5C1F3130140F2FF3341F4D5
:1005F00080119A4201DA002010BD40F233439A4242
:10060000A2F2334203DC524200F0B8F810BD904031
:1006100010BD00F0004230F000400AD0C10D01F5DD
:100620006071C0F3160042EA0151C208400711434D
:10063000704700200146704730B5041E71F1000478
:1006400004DB4FF00044404264EB0101141E73F1DF
:10065000000405DB1C464FF00043524263EB0403E9
:100660008B4208BF824230BD30B5041E71F10004D8
:1006700004DB4FF00044404264EB0101141E73F1AF
:10068000000405DB1C464FF00043524263EB0403B9
:10069000994208BF904230BD01F0004330B421F0D0
:1006A000004150EA010206D00A0DA2F56072C1F3C2
:1006B0001301002A02DC30BC00207047440F44EADA
:1006C000C104C100E01830BC00EBC25000F078B8A3
:1006D00030B50B46014600202022012409E021FA12
:1006E00002F59D4205D303FA02F5491B04FA02F50F
:1006F0002844151EA2F10102F1DC30BD2DE9F05FA6
:100700000546002092469B46884606468146402480
:100710001BE0284641464746224600F02FF8534644
:100720005A46C01A914110D311461846224600F08D
:1007300016F82D1A67EB01084F46224601200021CA
:1007400000F00DF817EB00094E41201EA4F1010442
:10075000DFDC484631462A464346BDE8F09F202A62
:1007600004DB203A00FA02F1002070479140C2F108
:10077000200320FA03F3194390407047202A04DB3A
:10078000203A21FA02F00021704721FA02F3D0400A
:10079000C2F120029140084319467047202A06DB27
:1007A000CB17203A41FA02F043EAE07306E041FA3F
:1007B00002F3D040C2F1200291400843194670472D
:1007C0000029A8BF7047401C490008BF20F0010065
:1007D000704710B4B0FA80FC00FA0CF050EA010443
:1007E00004BF10BC704749B1CCF1200421FA04F4D5
:1007F00011FA0CF118BF012121430843A3EB0C01AE
:10080000CB1D4FEA00614FEA102042BF002010BC10
:10081000704700EBC35010440029A4BF10BC7047C0
:10082000401C490008BF20F0010010BC704710B503
:10083000141E73F1000408DA401C41F10001921803
:100840005B411A4301D120F0010010BD2DE9F04DAC
:1008500092469B4611B1B1FA81F202E0B0FA80F201
:1008600020329046FFF77BFF04460F4640EA0A001D
:1008700041EA0B0153465A46084313D0114653EA46
:10088000010019D0C8F140025046FFF777FF054636
:100890000E46504659464246FFF761FF084305D0D1
:1008A000012004E020463946BDE8F08D00200543D4
:1008B00046EAE0762C4337430A986305E40AA0EB46
:1008C00008000022FD0A44EA47540A3002D50020FD
:1008D0000146E9E7010510196941DDE908450019FC
:1008E0006941BDE8F04DA2E72DE9F041054621F050
:1008F00000400C46284309D0C4F30A5040F233416B
:10090000884205DD28462146BDE8F0812846FBE700
:1009100040F2FE31884210DC0CDB4FEA043040EA42
:10092000155050EA053105D0104804F0004101434C
:100930000020E9E700200146E6E7A0F23340464206
:10094000C6F1400228462146FFF709FF07468846C0
:10095000284621463246FFF711FF43463A46FFF745
:1009600066FF3246BDE8F041FFF7F9BE0000F03FF8
:10097000C1F30A52C1F3130140F2FF3341F4801175
:100980009A4202DA00200146704740F233439A420D
:10099000A2F2334202DC5242FFF7F0BEFFF7DFBEA5
:1009A000064C074D06E0E06840F0010394E80700BC
:1009B00098471034AC42F6D3FFF7A0FB145E000852
:1009C000345E000870B58C1810F8015B15F0070351
:1009D00001D110F8013B2A1106D110F8012B03E0D8
:1009E00010F8016B01F8016B5B1EF9D12B0705D4E0
:1009F0000023521E0DD401F8013BFAE710F8013B29
:100A0000CB1A921C03E013F8015B01F8015B521E44
:100A1000F9D5A142D8D3002070BD000010B5002147
:100A2000044800F069F803480221BDE810400C308A
:100A300000F062B87C03002070B5044600680168CD
:100A4000C94349061CD4816821F00101816000F08E
:100A50006BFE05460FE000BF00F066FE401B02285B
:100A600009D9E06C40F01000E064206D40F0010016
:100A70002065012070BD20680068C0434006EBD5AA
:100A8000002070BDF8B50026044600960068016895
:100A9000C94349062AD5816841F0010181601448A3
:100AA00014490068B0FBF1F000EB400000E0401E8C
:100AB00000900028FBD100F037FE054611E000BF92
:100AC00000F032FE401B02280BD9E06C40F0100011
:100AD000E064206D40F00100206584F8486001204A
:100AE000F8BD20680068C0434006E9D40020F8BD86
:100AF0004C03002040420F00064A10B51378002B2B
:100B000007D10123137000F01DF8BDE8104000F07C
:100B100003B810BD62030020094800214FF0206295
:100B20008160C1604162C162C0E90D214FF4806201
:100B30004261C163012281618262C16100F084BBB4
:100B4000940300207CB50C460E4905460C4808600D
:100B50000D49086840F400700860086800F40070EF
:100B60000090084800F0EAFA601C08D000210091CB
:100B70000B46019103222146284600F0A4F97CBDD2
:100B80000024014094030020203802402DE9FF4753
:100B90004FF00008012494FAA4F0324EB0FA80F02D
:100BA000CDF80080CDF80480CDF8088046F82040CC
:100BB0002D4D2D4B3435022090FAA0F2B2FA82F27C
:100BC00042F02002520901D01A6800E02A6890FA27
:100BD000A0F7B7FA87F707F01F0704FA07F73A42BA
:100BE000EAD0214D2035286840F40070286028683C
:100BF000CDE9001400F400700390062002906946CD
:100C00001A4800F0F7F9194F3868816841F001017E
:100C10008160384600F03BFC4FF0FF31384600F071
:100C2000E3FB384600F00CFB1FFA80F93868816856
:100C300021F0010181600098102801D0112802D113
:100C40000A4800F07BFA286820F40070286094FAC3
:100C5000A4F1B1FA81F146F8218004B04846BDE81C
:100C6000F087000000004742003802409403002053
:100C7000014840687047000018030020034A1278BA
:100C80000AB1FFF783BF0020704700006203002015
:100C90002DE9F04100211548FFF7F0FF144C2080AA
:100CA000FFF75EFC6FF00B052A46FFF731FC114F92
:100CB0004FF0663632463B46FFF749FBFFF7ECFC48
:100CC00060600A4802210C30FFF7D8FF6080FFF710
:100CD00047FC2A46FFF71CFC32463B46FFF737FB32
:100CE000FFF7DAFCA060BDE8F08100007C03002083
:100CF0001803002066660A4010B5040001D002F017
:100D0000D1FC0148C47010BD2C03002072B602480B
:100D10004178491C417070472803002004494878F5
:100D2000401E10F0FF00487000D162B6704700000E
:100D30002803002030B51B4D85B02878A0B102F003
:100D400049FE00BF4FF0FF30009005230622072127
:100D5000154802F061FD02F011FD2878002801D14C
:100D60000120287005B030BD00F0ECFC02F0E4FD7D
:100D700002F050FC0024009401230322122102A857
:100D8000019400F0A0F8009400230322082102A897
:100D9000019400F098F800F0C5FB00F0B3FB00F000
:100DA000B9FBCFE728030020640700201CB500240E
:100DB00000942346012203211348019400F083F894
:100DC000114800940023012218210C30019400F0F6
:100DD0007AF80120CDE900040B4800231A462D21A2
:100DE000183000F070F80121074800F001F90648BA
:100DF00001210C3000F0FCF8BDE81C400248012144
:100E0000183000F0F5B80000E8030020FEE7704756
:100E100010B502F047FCBDE81040012000F0A8BB6F
:100E200010B502F03FFC4FF4806000F0A1FB4FF4DE
:100E3000006000F09DFB4FF4805000F099FB4FF4F0
:100E4000005000F095FB4FF4804000F091FBBDE8AE
:100E500010404FF4004000F08BBB10B502F022FCB4
:100E6000BDE81040022000F083BB10B502F01AFC70
:100E7000BDE81040042000F07BBB10B502F012FC6E
:100E8000BDE81040082000F073BB10B502F00AFC6A
:100E9000BDE81040102000F06BBB10B502F002FC62
:100EA000202000F065FB402000F062FB802000F075
:100EB0005FFB4FF4807000F05BFBBDE810404FF427
:100EC000007000F055BB7CB5DDE90645CDE9004575
:100ED00000F002F87CBD0000F0B587B00546DDE902
:100EE0000C760170481C6AD001F00F04012000FA52
:100EF00004F46C80334C11F0F00F1FD0C1F30311D8
:100F0000012925D002292DD0032935D02E49696029
:100F1000216841F020012160216801F02001059144
:100F200069880091AF720221CDE9027172B3032A80
:100F30002ED0022A2FD0012B35D035E0234969600D
:100F4000216841F001012160216801F00101E6E71B
:100F50001F496960216841F002012160216801F0A8
:100F60000201DCE71B496960216841F0040121604E
:100F7000216801F00401D2E717496960216841F056
:100F800008012160216801F00801C8E7002000E0A5
:100F9000032001900FE0012B02D0019104960AE09A
:100FA00012200190FAE711200190012A03D1314665
:100FB000284600F013F86946686800F0E5FA07B0C3
:100FC000F0BD00001C380240001402400000024046
:100FD0000004024000080240000C024090F900208A
:100FE000521C04D0CAB24188406800F098BB7047D8
:100FF000FFF7F4BFF8B50024009490F84820254688
:10100000012A12D0012280F848204A681F23072AAB
:101010000DD20668376C521E02EB820293409F434A
:101020000B6893401F43376435E00220F8BD0D2A5A
:101030000BD20768FE6BD21F02EB820293409E43E5
:101040000B6893401E43FE6325E0132A0BD206680B
:10105000B76B0D3A02EB820293409F430B689340BB
:101060001F43B76317E00668192A0AD2776B133A51
:1010700002EB820293409F430B6893401F437763C8
:1010800009E0376B193A02EB820293409F430B68E9
:1010900093401F4337630A6807230A2A0AD2066867
:1010A000776902EB420293409F438B6893401F4352
:1010B00077611CE0142A0BD207683E690A3A02EBFA
:1010C000420293409E438B6893401E433E610EE074
:1010D0001A2A0BD80768FE68143A02EB42029340C2
:1010E0009E438B6893401E43FE6000E000BF0A6889
:1010F000102A01D0112A17D10D4A13681B0213D4EC
:10110000136843F400031360096810290CD10949DE
:10111000094A0968B1FBF2F101EB8101490000E0E5
:10112000491E00910029FBD180F848502046F8BDA7
:10113000042701404C03002040420F0070B504001A
:101140000BD0E06C40F00200E0642046FFF774FC36
:1011500006004FF0000502D065E0012070BD216857
:101160006FF01F00086020684168314A11404160FB
:10117000206881682F4A1140816000BF2068C168E3
:101180006FF31401C1602068016901F04041016101
:101190002068416901F040414161206881696FF335
:1011A0000B0181612068C1696FF30B01C161206887
:1011B000016A6FF30B0101622068416A6FF30B0152
:1011C00041622068816A6FF30B0181622068C16A05
:1011D0006FF30B01C1622068016B174A1140016374
:1011E0002068416B01F0404141632068816B01F050
:1011F000404181632068C16B01F04041C1632068B8
:10120000016C01F0404101642068416C6FF31501ED
:1012100041640A48016821F400010160204600F0A1
:10122000E1F82565E56484F84850304670BD00005B
:1012300000003CF88CF0808000800FFE0427014005
:101240000068806D70470000F8B504004FF000059D
:1012500003D0E06C002610B110E00120F8BD266537
:101260005B4884F84860016841F001010160006852
:1012700000F001000090204600F0B5F8E06CC006D8
:1012800078D4E06C20F4885040F00200E0645148CB
:101290000168626821F44031114301606169E068CE
:1012A0004FF40073084393FAA3F3E26BB3FA83F3AA
:1012B000216A9A4011430843022191FAA1F1626A1E
:1012C000B1FA81F102FA01F10843616B102902D0F1
:1012D000A36B19430843236819684FF48077C94307
:1012E000490629D5A169D4F81CC00843A168D4F8DF
:1012F00010E041EA0C01BE450CD0BEF1010F09D04F
:101300004FF0000C41EA0C01D4F82CC0BCF1010FE5
:1013100002D00AE0BC46F5E76AB3E26C42F0200274
:10132000E264226D42F0010222655A68DFF8A8C02B
:1013300002EA0C020A435A6021688A68274B1A4065
:1013400002438A602169B94224D0012922D0216850
:101350000A6B22F0F8720A6321688968204A1140FA
:10136000814227D12665E06C20F0020040F00100A8
:10137000E0642AE028E0FFE74FF4604C226B9CFA1F
:10138000ACFCBCFA8CFC521E02FA0CF20A4342F48A
:101390000061CAE721680A6B4FF0F87722F0F87312
:1013A000A26A97FAA7F7B7FA87F7521EBA40134313
:1013B0000B63D1E7E06C20F0020040F01000E06425
:1013C000206D40F00100206501252846F8BD000091
:1013D0002038024004270140FF16FCFC8DF1FFC0BD
:1013E000FEFF80BF704770472DE9F041044600685A
:1013F0000D4681684FF0000749050BD58068C00590
:1014000008D5E06C40F02000E06484F848700120CA
:10141000BDE8F08100F088F906460FE0681C0DD0A9
:1014200025B100F081F9801BA84207D9E06C40F09B
:101430000400E06484F848700320E9E7206800684D
:101440008007EBD5A06918B921686FF01200086019
:10145000E06C40F40070E0642068816811F0405F47
:1014600013D1616A89B9016B11F0F87F02D08068ED
:1014700040050AD4E06C20F48070E064E06CC004A5
:1014800003D4E06C40F00100E0640020C0E710B538
:10149000044690F84800012822D0012084F8480032
:1014A0002046FFF7EFFA00281BD1E16C40F2016201
:1014B000914341F48071E16421684A68520505D581
:1014C000E26C22F4005242F48052E264E26CD304F3
:1014D0004FF0000206D5236D23F00603236502E0DA
:1014E000022010BD226584F848206FF022020A60B5
:1014F00021688A6812F0405FF3D18A6842F0804226
:101500008A6010BD0248416841F0010141607047A6
:10151000002004E00248416841F004014160704746
:10152000002004E00248416841F002014160704738
:10153000002004E031B500F0F7F8044600F0F4F8BC
:101540000099001B8842F9D338BD0000002118B96A
:1015500004E04008491CC9B20128FAD1034850F8F8
:101560002100002800D00047704700001804002028
:10157000044910B50A68024202D00860FFF7E6FF8E
:1015800010BD0000140401402DE9F84FDFF864B1EC
:1015900000234FF0010C4FF0030A4FF00F090BF13D
:1015A000040EA0E00CFA03F6324072D04C68022C14
:1015B00001D0122C0ED1DC0800EB8408D8F82040B2
:1015C0005D07EF0E09FA07F5AC430D69BD402543F1
:1015D000C8F8205007685D0091F804800AFA05F405
:1015E00008F00308A74308FA05F848EA0708C0F816
:1015F00000804F68012F05D0022F03D0112F01D09A
:10160000122F11D18768D1F80C80A74308FA05F88A
:1016100048EA0708C0F808804768B7430E79C6F360
:1016200000169E403E434660C668A6438C68AC40A8
:101630003443C4604C68E40054D52F4C256845F011
:1016400001052560246823F0030504F001040094DB
:101650002A4C2544AF689C07240F09FA04F6B743C7
:10166000274EB04201D1002615E0264EB04201D1EE
:10167000012610E0244EB04201D102260BE0234E99
:10168000B04201D1032606E0214EB04202D1042629
:1016900001E027E00526A6403E43AE60DBF80040AF
:1016A0005D464E689443F60300D514432C60DEF883
:1016B000004075464E689443B60300D514432C6031
:1016C0000C4D08352C684E689443F60200D514433F
:1016D0002C60084D0C352C684E689443B60200D53A
:1016E00014432C605B1C0A6832FA03F47FF45AAF8F
:1016F000BDE8F88F0004014020380240000001409E
:10170000000002400004024000080240000C0240B9
:10171000001002400069084000D0012070470AB163
:10172000816170470904FBE70148006870470000C9
:101730005003002002480168491C01607047000006
:101740005003002010B5032000F048F8002000F0FE
:1017500005F800F017F8002010BD000010B5044691
:1017600007484FF47A710068B0FBF1F001F074F9AA
:1017700000222146501E00F011F8002010BD00008C
:101780004C030020704700F01F02012191404009E6
:10179000800000F1E020C0F800117047F0B40E4B5B
:1017A0001B680C46C3F30223C3F10705042D00D9BF
:1017B0000425191D072901D2002300E0DB1E0126A4
:1017C00006FA05F1491E214099409E40761E1640BA
:1017D0003143F0BC01F096BA0CED00E0064900F090
:1017E000070208684FF6FF03184040EA0220034A48
:1017F00010430860704700000CED00E00000FA059F
:101800000248006800F4C0507047000000700040BB
:101810002DE9F84F06460078C00775D0DFF84C81F7
:101820000027D8F80000C0000BD4D8F8001041F011
:101830008051C8F80010D8F80000012700F080504F
:1018400000904B4C2068C00510D4206840F4807094
:101850002060FFF769FF054605E000BFFFF764FF62
:10186000401B64284ED82068C005F7D53F4D243D65
:10187000286800F0C041706800F0C0428A4209D078
:10188000C0F30141032905D12968890302D501204C
:10189000BDE8F88F354C1034216811F440314AD03E
:1018A00000F44030884246D03078C00743D02068EA
:1018B0004FF4000292FAA2F1B1FA81F14FEA810CE1
:1018C0002C494FF0010A8C4420F44030CCF880A61B
:1018D00092FAA2F2B2FA82F201EB82010023C1F87D
:1018E00080362060C00526D5FFF71EFF81464FF4E5
:1018F000007B0AE0FFF718FFA0EB090141F28830F6
:10190000814202D90320C3E72EE09BFAABF0B0FA84
:1019100080F040F04001BAEB511F01D1296800E08E
:1019200021689BFAABF2B2FA82F202F01F020AFAC5
:1019300002F00142DED07068C0F30141032906D1F4
:10194000296800F0C04021F0C041014329602068AF
:10195000716801F44031084320602FB1D8F80010BD
:1019600021F08051C8F80010002091E7243802408F
:1019700000700040000047422DE9F047DFF8BC81CD
:1019800005460E46D8F8000000F00100B04214D21F
:10199000012E05D1D8F8001041F00401C8F800105C
:1019A000D8F8001021F001013143C8F80010D8F830
:1019B000000000F00100B04271D12878604C80072F
:1019C00005D52068A96820F0F00008432060287839
:1019D000C00771D05A4A5A4B69680120083A2C3323
:1019E000022910D003292ED001292FD05FEA4027E9
:1019F00097FAA7FCBCFA8CFC4CF0200C5FEA5C1C4C
:101A000004D0126803E04FF40037F1E71A6897FA40
:101A1000A7F3B3FA83F303F01F039840024262D0A6
:101A2000206820F0030008432060FFF77DFE69680E
:101A3000074641F28830022910D003291CD0012921
:101A4000814626D034E04FF00077D1E70227CFE778
:101A5000FFF76AFEC11B494501D926E0814620688F
:101A6000C0F381000228F3D126E000BFFFF75CFE3F
:101A7000C11B494501D918E081462068C0F38100A7
:101A80000328F3D118E000BFFFF74EFEC11B494504
:101A90000BD82068C0F381000128F5D10CE022E0CA
:101AA000FFF742FEC11B494502D90320BDE8F0877C
:101AB000206810F00C0FF3D1D8F80010404601F068
:101AC0000101B14211D9012E03D1016841F0040195
:101AD0000160016821F0010131430160006800F0FC
:101AE0000100B04201D00120E0E72878400705D589
:101AF0002068E96820F4E060084320602878000747
:101B000006D52068296920F4605040EAC1002060B1
:101B100000F022F82168F02292FAA2F201F0F0011E
:101B2000B2FA82F2D140074A515CC84006490860C7
:101B30000020FFF713FE0020B8E70000003C024041
:101B400008380240114B00084C030020014800688F
:101B5000704700004C0300201E4A116801F00C0081
:101B6000042813D0082813D00C2813D0101F0068A5
:101B700000F460414FF4604090FAA0F0B0FA80F0B9
:101B8000C1404FF40040491C8840704712487047DC
:101B9000124870474FF4701393FAA3F301F47010D6
:101BA000B3FA83F3D8400E4B01F440011268185C7D
:101BB0004FF4400393FAA3F3B3FA83F3D940491CDB
:101BC000D20301D5054A00E0034A5043B0FBF1F0CF
:101BD00070470000083802400024F40000127A0028
:101BE000084B00082DE9F84F07460078FB4EFC4DE6
:101BF000C0074FF0010428D0F848083001684FF4BE
:101C00000038C1F38101022907D00168C1F38101C5
:101C100003291BD10068C00318D598FAA8F0B0FAC0
:101C200080F040F02000400901D0306800E02868D2
:101C300098FAA8F1B1FA81F101F01F0104FA01F15B
:101C400008425CD0786800287BD058E0786801288A
:101C50000AD008B1052811D0306820F480303060F7
:101C6000306820F4802002E0306840F4803030603A
:101C7000786828B3FFF758FD81460BE0306840F4E0
:101C800080203060F0E700BFFFF74EFDA0EB0900B9
:101C9000642872D898FAA8F0B0FA80F040F02000DA
:101CA000400901D0306800E0286898FAA8F1B1FA3C
:101CB00081F101F01F0104FA01F10842E4D01EE0B5
:101CC000FFF732FD814605E0FFF72EFDA0EB09008E
:101CD0006428DED898FAA8F0B0FA80F040F020002E
:101CE000400901D0306800E0286898FAA8F1B1FAFC
:101CF00081F101F01F0104FA01F10842E4D13878C2
:101D0000DFF8E08280074FF0000B4FF002095FD54B
:101D1000B24808300168C1F38101012907D0016888
:101D2000C1F3810103291CD10068C00319D499FAB9
:101D3000A9F0B0FA80F040F02000400902D03068ED
:101D400001E086E0286899FAA9F1B1FA81F101F081
:101D50001F0104FA01F108422BD0F868012878D15C
:101D600027E0F868A8B394FAA4F0B0FA80F048F835
:101D70002040FFF7D9FC824606E066E1FFF7D4FC7D
:101D8000A0EB0A00022884D899FAA9F1B1FA81F1EE
:101D900041F02001490901D0316800E0296899FA31
:101DA000A9F0B0FA80F000F01F0004FA00F0014240
:101DB000E4D08A48001D01684FF4F85393FAA3F366
:101DC0003A69B3FA83F321F4F8519A401143016060
:101DD00025E0FFE794FAA4F1B1FA81F148F821B0C7
:101DE000FFF7A2FC824605E0FFF79EFCA0EB0A008D
:101DF0000228C8D899FAA9F0B0FA80F040F0200083
:101E0000400901D0306800E0286899FAA9F1B1FAD8
:101E100081F101F01F0104FA01F10842E4D13878A0
:101E20004FF4007AC0067CD56C480830006810F08A
:101E30000C0F0FD0B9694FF48070002972D090FA5E
:101E4000A0F0B0FA80F048F82040FFF76DFC009059
:101E50007EE087E09AFAAAF0B0FA80F040F0200025
:101E6000400901D0306800E028689AFAAAF1B1FA76
:101E700081F101F01F0104FA01F1084202D0B869B2
:101E800000286FD05548396A001D006800F4604092
:101E900081421AD9084601F013F9002862D14F484F
:101EA000001D01683A6A21F4604111430160016834
:101EB0004FF07F4393FAA3F3FA69B3FA83F321F067
:101EC0007F419A401143016018E04448001D0268B8
:101ED00022F460420A43026001684FF07F4393FAA4
:101EE000A3F3FA69B3FA83F321F07F419A401143D7
:101EF0000160386A01F0E4F80028CFD14FF4604166
:101F000091FAA1F1386AB1FA81F1C8404FF4004169
:101F1000401C8140314808300068F02200F0F00099
:101F200001E070E040E092FAA2F2B2FA82F2D04010
:101F30002D4A105CC1402D4801600020FFF70EFCC7
:101F400061E000BFFFF7F0FB0099401A02287CD83F
:101F50009AFAAAF0B0FA80F040F02000400902D0CE
:101F6000306801E0BCE128689AFAAAF1B1FA81F17F
:101F700001F01F0104FA01F10842E3D01748001DE7
:101F800001683A6A21F460411143016001684FF031
:101F90007F4393FAA3F3FA69B3FA83F321F07F4105
:101FA0009A40114301602EE090FAA0F0B0FA80F060
:101FB00048F820B0FFF7B8FB009005E0FFF7B4FB4E
:101FC0000099401A0228C2D89AFAAAF0B0FA80F012
:101FD00040F0200040090BD030680AE00038024091
:101FE0003438024000004742114B00084C030020E7
:101FF00028689AFAAAF1B1FA81F101F01F0104FAF6
:1020000001F10842DAD13878000753D5786948B32E
:1020100094FAA4F0B0FA80F008EB8000C0F8804693
:10202000FFF782FB009005E0FFF77EFB0099401A66
:1020300002288CD899FAA9F0B0FA80F040F040005C
:10204000B4EB501F02D1306801E08EE0286899FAA5
:10205000A9F1B1FA81F101F01F0104FA01F2104275
:10206000E2D027E094FAA4F1B1FA81F108EB810102
:10207000C1F880B6FFF758FB009005E0FFF754FB6E
:102080000099401A022870D899FAA9F0B0FA80F0A5
:1020900040F04000B4EB501F01D1306800E02868E8
:1020A00099FAA9F1B1FA81F101F01F0104FA01F2E4
:1020B0001042E3D1387840077BD59B484FF00009A8
:1020C0000068C0000AD49848016841F0805101605E
:1020D00000684FF0010900F08050009093480168BB
:1020E000C90511D4016841F480710160FFF71CFB40
:1020F000009005E0FFF718FB0099401A642834D8D7
:102100008A480068C005F5D5B86801280AD008B12A
:10211000052811D0286820F480702860286820F4F1
:10212000806002E0286840F480702860B86848B396
:10213000FFF7FAFA00900DE0286840F4806028600C
:10214000F0E700BFFFF7F0FA0099411A41F288303A
:1021500081420AD89AFAAAF0B0FA80F040F0400022
:10216000B4EB501F02D1306801E095E028689AFA7C
:10217000AAF1B1FA81F101F01F0104FA01F2104253
:10218000E0D022E0FFF7D0FA009007E0FFF7CCFAAA
:102190000099411A41F2883081427DD89AFAAAF01A
:1021A000B0FA80F040F04000B4EB501F02D130682C
:1021B00001E012E028689AFAAAF1B1FA81F101F07F
:1021C0001F0104FA01F21042E0D1B9F1000F04D06E
:1021D0005548016821F080510160786AE8B3DFF862
:1021E0004891A9F11C09D9F80010C1F38101032914
:1021F00076D002284FF080714FF0007A58460BD00D
:1022000091FAA1F1B1FA81F148F82100FFF78CFAB7
:10221000B046074656466DE04FF0807191FAA1F145
:10222000B1FA81F18A0042495050FFF77DFAB34676
:102230008046564606E000BFFFF776FAA0EB08009E
:10224000022854D896FAA6F0B0FA80F040F02000A8
:10225000400903D0DBF8000001E061E0286896FA4D
:10226000A6F1B1FA81F101F01F0104FA01F108426F
:10227000E2D1D7E90A103A6BD9F80030014323F4D0
:102280007D031A431143C9F800104FF0807090FA93
:10229000A0F0B0FA80F000E029E0810024480C5062
:1022A000FFF742FA074604E0FFF73EFAC01B022898
:1022B0001DD896FAA6F0B0FA80F040F02000400950
:1022C00002D0DBF8000000E0286896FAA6F1B1FA27
:1022D00081F101F01F0104FA01F10842E4D01FE08E
:1022E00020E000BFFFF720FAC01B022802D903201C
:1022F000BDE8F88F96FAA6F0B0FA80F040F0200022
:10230000400902D0D8F8000000E0286896FAA6F14B
:10231000B1FA81F101F01F0104FA01F10842E1D1A3
:102320000020E5E70120E3E7243802400070004088
:102330000000474270472DE9F0470446007F01281E
:102340001CD001262677022060772168CA204862C7
:102350002168532048622068816821F4806181608F
:102360002068816821F480418160FFF7DDF905462E
:1023700000274FF0FF084FF47A790EE00220BDE805
:10238000F087FFF7D1F9401B484506D92168C1F80D
:102390002480032060772777F1E72068C068400732
:1023A000EFD52168C1F82480667727770020E6E71B
:1023B0007047000010B5044600688168C9040CD558
:1023C000C068C00509D52046FFF7F2FF2068C16844
:1023D00001F0800161F4C071C160206881688904E6
:1023E0000CD5C068800509D52046FFF7A3FF2068FB
:1023F000C16801F0800161F42071C16003494FF4AC
:10240000003008600120607710BD00001404014016
:102410002DE9F0470446007F012822D04FF0010843
:1024200084F81C80022060772268CA2050622268EB
:102430005320506220680025FF26B1F5807F816817
:102440004FF0030A4FF47A790ED021F400718160C5
:102450002068816821F400518160FFF765F9074623
:1024600024E00220BDE8F08721F4807181602068BB
:10247000816821F480518160FFF756F9074604E036
:10248000FFF752F9C01B484509D82068C068C0074B
:10249000F6D00FE0FFF748F9C01B484506D9206881
:1024A000466284F81DA025770320DBE72068C0681A
:1024B0008007EFD52068466284F81D8025770020CC
:1024C000D0E710B50C464FF480718A4203D1A16168
:1024D0000068C16904E04FF40071A1610068016AFD
:1024E000C1F305402070C1F30622627001F07F0243
:1024F000A270402202EA1142E270C1F30562227525
:1025000001F0804201F08031C4E9031273B900F098
:1025100029FE2070607800F025FE6070A07800F041
:1025200021FEA070207D00F01DFE2075002010BD52
:1025300010B500680B4641680D480140080CD87082
:10254000C1F304245C7001F03F049C70C1F342317C
:10255000197052B900F006FED870587800F002FEEB
:102560005870987800F0FEFD9870002010BD0000B3
:102570003FFFFF0010B500680C4601680E4801409F
:10258000C1F305402070C1F30623637001F07F039F
:10259000A370402303EA1141E17052B900F0E2FD5B
:1025A0002070607800F0DEFD6070A07800F0DAFD49
:1025B000A070002010BD00007F7F7F0070B5040078
:1025C00002D0607F10B106E0012070BD00202077AE
:1025D000204600F041F8022060772168CA20486256
:1025E000216853204862204600F0D0FDFF210028DA
:1025F000206803D0416204206077E5E78268154BCC
:102600001A4082602268906863681843D4E90435F0
:102610002B43184390602268E068106120680269CB
:10262000238942EA034202612068C26822F08002E4
:10263000C2602068026C22F4802202642068026C6E
:10264000A3691A4302642068416201206077002078
:1026500070BD0000BFFF8FFF704700002DE9F05FE5
:102660000446007F0D46012844D04FF0010B84F84A
:102670001CB0022060772068002780684FEA406025
:10268000BAB3002852DA287800F06CFD287D00F0FB
:1026900069FDA8782978EA7840EA0140697809025A
:1026A00041EA02410843297D40EA01662869216820
:1026B0000643E8680643CA204862216853204862FE
:1026C000A869FF25B0F5807F20684FF0030A4FF41A
:1026D0007A7981682CD021F4007181602068C1680A
:1026E00001F0800161F42071C160FFF71DF88046A0
:1026F0004FE002E00220BDE8F09F002800DBEF7011
:10270000287800F038FD0604687800F034FD46EAC9
:102710000026A87800F02FFD0643E87846EA004638
:10272000287D00F028FD46EA0066BFE7EF70ADE7C0
:1027300021F4807181602068C16801F0800161F43A
:10274000C071C160FEF7F0FF804605E0FEF7ECFFC8
:10275000A0EB0800484515D82068C068C007F5D030
:102760002068C6612068816841F4807181602068BA
:10277000816841F480511BE0FEF7D6FFA0EB080012
:10278000484506D92068456284F81DA027770320B4
:10279000B1E72068C0688007EED52068066220682F
:1027A000816841F4007181602068816841F40051C2
:1027B00081600948016841F4003101600648083031
:1027C000016841F4003101602068456284F81DB061
:1027D000277700208FE70000000401402DE9F04733
:1027E0000446007F0B46012825D04FF0010984F8EC
:1027F0001C9002206077587802B300F0B3FC987800
:1028000000F0B0FC9878D97840EA014558781978FA
:10281000000240EA413005432168CA20486221682D
:1028200053204862204600F0B1FC0026FF274FF0FD
:10283000040838BB19E00220BDE8F087C10603D5C3
:1028400000F0EF000A305870D87800F094FC0204D1
:10285000587800F090FC42EA0022987800F08BFC57
:102860000243187842EA4035D6E70D480540206813
:1028700045602068C16821F08001C160204600F0F9
:1028800085F830B12068476284F81D8026770120E2
:10289000D2E72068476284F81D9026770020CBE7B6
:1028A0003FFFFF002DE9F0470446007F0D46012859
:1028B00011D04FF0010A84F81CA002206077206834
:1028C000002680684FEA406042B100281ADA287872
:1028D00000F048FC17E00220BDE8F087002800DB8C
:1028E000EE70287800F047FC0204687800F043FCA2
:1028F00042EA0022A87800F03EFC0243E87842EA6F
:1029000000470AE0EE70A878297840EA0147687825
:10291000E978000240EA014007432168CA20486282
:10292000216853204862204600F030FC4FF0FF0839
:102930004FF00409C0B914480740206807602068B8
:10294000816821F480218160D5E901010843216873
:102950008A68104388602068C16821F08001C160E6
:10296000204600F013F838B12168C1F8248084F8BB
:102970001D9026770120AFE72168C1F8248084F8F4
:102980001DA026770020A7E77F7F7F0070B5044653
:102990000068C16821F0A001C160FEF7C5FE0546D0
:1029A0004FF47A7607E000BFFEF7BEFE401BB04250
:1029B00001D9032070BD2068C0688006F4D50020CE
:1029C00070BD70B5040004D094F85100002510B11A
:1029D00006E0012070BD84F85050204600F02EF82B
:1029E000022084F851002068016821F04001016054
:1029F000D4E901010843D4E9031211430843616992
:102A00000843218B01F400710843E1690843216AFE
:102A10000843A16A084321680860A069042101EA0B
:102A20001040616A0843216848602168E06A0861D3
:102A30006565012084F85100002070BD70474FF09B
:102A4000E0210428086903D020F0040008617047E1
:102A500040F00400FAE7704710B5401EB0F1807FE7
:102A600001D3012010BD4FF0E02460610F216017F9
:102A700000F048F90020A06107202061002010BD6F
:102A800010B5FFF7E8FF10BD10B5040003D094F8AF
:102A9000350010B107E0012010BD002084F834009B
:102AA000204600F00DF8022084F83500211D206832
:102AB00001F028F8012084F83500002010BD000046
:102AC00008B501681448B1F1804F14D0134A9142FF
:102AD00020D1016841F0020101600068012200F08C
:102AE0000200009003211D20FEF758FE1D20BDE8C6
:102AF0000840FEF748BE016841F00101016000682E
:102B0000002200F00100009003211C20FEF746FE89
:102B10001C20ECE708BD00002438024000040040FF
:102B20000168CA6842F00102CA600068016841F0A9
:102B30000101016000207047704770B504460068CD
:102B400001694FF00005C943890715D4C168C9431D
:102B5000890711D4E91E0161012020752068806970
:102B60008007204602D0FFF7E7FF04E000F078F886
:102B7000204600F076F8257520680169C9434907A9
:102B800017D4C168C943490713D46FF00401016128
:102B9000022020752068806910F4407F204602D012
:102BA000FFF7CAFF04E000F05BF8204600F059F898
:102BB000257520680169C943090716D4C168C9434E
:102BC000090712D46FF00801016104202075206804
:102BD000C0698007204602D0FFF7AEFF04E000F096
:102BE0003FF8204600F03DF8257520680169C9438B
:102BF000C90617D4C168C943C90613D46FF01001C0
:102C00000161082020752068C06910F4407F2046CB
:102C100002D0FFF791FF04E000F022F8204600F018
:102C200020F8257520680169C943C90708D1C16822
:102C3000C943C90704D1891E0161204600F012F87A
:102C400020680169C943490609D4C168C9434906D6
:102C500005D46FF040010161204600F017F870BD07
:102C60007047704701680748B1F1804F06D0064AA7
:102C7000914205D14068002802D000470068FAE779
:102C8000704700003C030020000400407047000033
:102C900010B5FEF74FF8FEF789F801F077FD04480C
:102CA00001F0EAFEBDE81040012000F061BF000025
:102CB000F93B000870B501F049FD104C28B1002027
:102CC000207000F02FF801F00DFE01F045FD012508
:102CD00020B1257000F026F801F00AFE01F042FD57
:102CE00030B101F00BFE6078401C607000F01AF803
:102CF0006078042800D1657070BD000000000020DD
:102D0000FEE770470907090E002806DA00F00F00F9
:102D100000F1E02080F8141D704700F1E02080F8F9
:102D20000014704770B5002404F1B000C0B2002157
:102D300000F092F90021022000F08EF9002110200D
:102D400000F08AF900250121002000F085F96D1CB2
:102D5000EDB2802DF7D3641CE4B2082CE4D370BD2F
:102D600038B501EBD303049C0244DBB2D2B2009429
:102D700000F001F838BD2DE9F04798461746824625
:102D800000260C46DDF8209011E02146504600F068
:102D9000B9F8554607E019F806000121761C00F045
:102DA0005BF96D1CEDB2BD42F5D3641CE4B2444541
:102DB000EBD3BDE8F087A620AFF300807CB50124FB
:102DC00005460094002322461C214D480194FEF73D
:102DD0007AF84B480094002301221E210C30019404
:102DE000FEF771F846480094002301221D21183097
:102DF0000194FEF768F842480094002301221F2145
:102E000024300194FEF75FF80021AE2000F024F991
:102E10000021022000F020F90021102000F01CF910
:102E20000021402000F018F90021812000F014F961
:102E30000021CF2000F010F90021A12000F00CF9B2
:102E40000021C82000F008F90021A62000F004F9B4
:102E50000021A82000F000F900213F2000F0FCF83C
:102E60000021D32000F0F8F80021084600F0F4F823
:102E70000021D52000F0F0F80021802000F0ECF8CF
:102E80000021D92000F0E8F80021F12000F0E4F85A
:102E90000021DA2000F0E0F80021122000F0DCF838
:102EA0000021DB2000F0D8F80021402000F0D4F809
:102EB0000021202000F0D0F80021022000F0CCF802
:102EC00000218D2000F0C8F80021142000F0C4F883
:102ED0000021A42000F0C0F80021284600F0BCF832
:102EE0000021AF2000F0B8F80021AF2000F0B4F8C6
:102EF000FFF718FFBDE87C400021084600F002B84B
:102F00001006002010B50446B031C8B2002100F010
:102F1000A3F8102040EA1410002100F09DF804F0FE
:102F20000F00BDE8104040F00100002100F094B80F
:102F30002DE9F04115460E460746FFF7E3FF0F481F
:102F4000002400EB85150121285D00F085F8641C44
:102F5000E4B2102CF7D3761CF1B23846FFF7D2FF5B
:102F600000242819012190F8200000F075F8641C55
:102F7000E4B2102CF5D3BDE8F08100001151000837
:102F80002DE9F04115460E460746FFF7BBFF00242A
:102F90000121285D00F060F8641CE4B2102CF7D326
:102FA000761CF1B23846FFF7ADFF10240121285DF1
:102FB00000F052F8641CE4B2202CF7D3BDE8F08195
:102FC0002DE9F041203A00240D468046D7B27F28F3
:102FD00003D900208D1C8046EDB22946FFF792FFF1
:102FE0000F4E00BF04EB07100121305C00F034F8F5
:102FF000641CE4B2082CF5D36D1CE9B24046FFF71F
:1030000081FF002404EB071030440121007A00F016
:1030100023F8641CE4B2082CF4D3BDE8F08100006E
:10302000214B00082DE9F04117460E4604460025C5
:103030000CE031462046FFF7C3FF0834E4B2782C99
:1030400002D90024B61CF6B26D1CEDB27A5D002ADE
:10305000EFD1BDE8F081000070B5054601B1012156
:103060001648FDF7C5FF154800210C38FDF7C0FFD5
:103070000024124800210C30FDF7BAFF280601D5C4
:10308000012100E000210D481830FDF7B1FF0B4889
:1030900001210C30FDF7ACFF6806641C050EE4B29C
:1030A000082CE6D3054801210C38FDF7A1FFBDE847
:1030B000704001210148FDF79BBF00001C06002065
:1030C000F8B507461A48002600681A4D10F0F00FB0
:1030D00020D1174C1C342068C00002D5FEF790FBAD
:1030E0000DE0206840F080502060206800F08050A3
:1030F0000090FEF785FB216821F080512160B0F53A
:10310000C05F07D1B7F5404F04D12868012640F0D1
:1031100004002860286820F00100304328602868F7
:1031200000F00100B04201D00120F8BD0020F8BD40
:1031300008380240003C024010B50948FFF73AF950
:103140004FF480710648FFF763F900F0ABFA00F026
:1031500029F90020FDF7D0FDBDE8104000F04EBD7C
:1031600058040020010901EB810100F00F0000EB81
:103170004100C0B27047002102E00A38C0B2491CC9
:103180000A28FAD2090740EA1160704770B5044670
:103190000068C168490614D44FF0FF31C160FEF7E2
:1031A000C3FA05464FF47A7607E000BFFEF7BCFA93
:1031B000401BB04201D9032070BD2068C0684006A2
:1031C000F4D5002070BD00000FB414222DE9F04F9B
:1031D00087B00C4612A96846FCF7A8FF9DF852007C
:1031E000059066489DF851809DF850709DF84C60A0
:1031F000844201D214B102E0044600E001242046DA
:10320000FDF7AEF95E4A5F4BFDF7A1F88A468146AD
:1032100001F07AFB04460D464A465346FDF791F805
:103220000022594BFDF793F8DFF860A181468B46E9
:10323000DAF80C00FDF783F94A465B46FCF7E0FF3D
:10324000FDF7AFF9DFF84891DFF848B1CAF80C0094
:10325000B0F5F47F16DBA0F5F470CAF80C0000227C
:103260004D4B20462946FCF7CBFF04460D4609E0AE
:1032700000224B4620462946FDF763F8761C04469B
:103280000D46B6B200224B4620462946FDF7ECF922
:10329000EED9D94600224B4620462946FDF7E4F9EF
:1032A00017D800224B4620462946FDF74AF87F1CD6
:1032B00004460D46BFB2EDE700224B4620462946A4
:1032C000FDF73FF8044608F101000D461FFA80F8AB
:1032D00001E0DFF8C89000224B4620462946FDF762
:1032E000C3F9E9D90598FDF73BF922462B46FCF7CF
:1032F00087FFFDF775F980B205E03C3808F1010160
:1033000080B21FFA81F83C28F7D205E0A8F13C0111
:103310007F1C1FFA81F8BFB2B8F13C0FF6D203E070
:10332000183F761CBFB2B6B2182FF9D29DF84D20C7
:103330009DF84B10FAB19AF806301A4492071AD049
:10334000174A521E895CB14203D2B6FBF1F201FB6F
:1033500012668DF80A008DF809808DF804608DF8EA
:103360000870142269461098FCF7E0FE07B0BDE82B
:10337000F00F5DF814FB0A4A0C32E2E74206120035
:10338000FCA9F1D24D62004000408F402C03002088
:103390000018F5400020AC400000F03F00004E4017
:1033A000F04A000810B5224C92B0607900283CD158
:1033B0000DA800F0F1F814220DA901A8FCF7B6FE43
:1033C00000234FF4807206A91A48FFF77AF89DF897
:1033D0001900C0EB001081009DF81800C0EB4012EE
:1033E000C2EB002001EB00109DF81A1008449DF874
:1033F0000D10C1EB01118A009DF80C10C1EB4113B7
:10340000C3EB012102EB01119DF80E201144081AB3
:10341000FDF7A6F80022084BFCF799FF01F01CF914
:10342000FDF7DEF8A0600120607112B010BD000051
:103430002C030020580400200040DF3F2DE9F04716
:1034400000248AB0254680B1142201466846FCF764
:103450006DFE9DF80510BDF800000026DFF8F49021
:10346000DFF8F4A088460F1812E005A800F094F8E1
:10347000142205A9EAE7CEB1B00717D000225346BF
:1034800020462946FCF7BCFE761C04460D4636B2A3
:10349000B742F0DCB8F1000F0BD0B80709D09DF8A7
:1034A00003700026DFF8B4807F1E2BE000224B461D
:1034B000E6E7DFF8A8809DF80370002608F10C0805
:1034C0007F1E0DE018F8060025494843FDF748F82F
:1034D00022462B46FCF794FE761C04460D46F6B2B7
:1034E000B742EFDC10E000BF18F806001C49484363
:1034F000FDF736F822462B46FCF782FE761C044682
:103500000D46F6B2B742EFDC9DF809109DF80A00AF
:10351000C1EB011100EB81029DF808004FF46161DD
:1035200048439DF8041040F2A323594300EBC11017
:103530001044FDF715F822462B46FCF761FE0022E9
:10354000084BFCF704FF01F0DFF90AB0BDE8F047D3
:10355000FDF746B850287E4138137E41F04A0008F6
:10356000805101000040DF3F0A498B6800229842E9
:1035700004D94B7813B14A708B68C01A8B68984293
:1035800002D9322801D28A70704701228A70896874
:10359000401A70472C03002010B586B00446002264
:1035A000114802A9FEF7E6FF00220F480DF10201C3
:1035B000FEF7BEFF0D499DF80530CA88ADF8002022
:1035C000632B03D0087840B11BB106E001200870DE
:1035D00003E0002008706432CA8014226946204645
:1035E000FCF7A4FD06B010BD580400202C030020F9
:1035F00010B50020FFF722FF04460548FFF71EFF25
:10360000844202D2C043204410BD201A10BD0000E5
:103610007804002070B51F4E86B03079002837D16D
:103620000125A80590FAA0F01B49B0FA80F001EB43
:103630008000C0F880561A4818490024C0E90014D8
:1036400003218160C0E9031444618461FEF7B6FF81
:103650008DF8035006208DF805408DF802008DF896
:10366000045000220E480DF10201FFF7B7F8029452
:10367000039400220A4802A90494FFF713F90022D8
:1036800004212920FEF78AF82920FEF77CF83571FD
:1036900006B070BD2C030020000047420028004007
:1036A000580400200C484168C943C9070ED00B4993
:1036B000012048700A480168C1F38101012903D043
:1036C000006810F00C0F06D1FDF734BB016841F023
:1036D00004010160EEE77047007000402C030020F9
:1036E00008380240AFF3008030B505464FF48074CF
:1036F00099B021462048FEF78BFE1F48FEF71BFEBF
:1037000014A8FFF749FF142214A908A8FCF70EFD1E
:103710001948142208A92030FCF708FD0AAB93E8E9
:1037200007008DE80700DDE90823294614A8FFF704
:103730004BFD142214A903A8FCF7F8FC00201190FB
:1037400010908DF837009DF816008DF836009DF822
:1037500015008DF835009DF8140013948DF8340091
:103760009DF810008DF8480000220DA90248FEF7D0
:1037700075FF19B030BD0000580400207CB501244D
:1037800000940023224604210B480194FDF79BFB83
:10379000002509482B462A461B219438CDE90045CF
:1037A000FDF791FB044800231A461A218838CDE919
:1037B0000045FDF788FB7CBDE007002030B5002404
:1037C000039D846061B14FF40061C1600462072110
:1037D0004462C0E90A41C0E904231DB1446030BD20
:1037E000C460F3E74FF48271416030BD094B0022A1
:1037F0001B6803E05B08521C072A01D28B42F9D8F0
:10380000302101EAC201D20700D008221143C16170
:10381000704700004C0300202DE9FF4F83B08B461A
:103820000446109FFDF772FA0525022604F15800A0
:1038300004F1640904F1700804F17C0ABBF1070F7C
:1038400003D0BBF11F0F2ED021E033490A6842F4A8
:1038500080520A600A6822F480520A602E490C31B4
:103860000A6842F480520A60096801F480510091AC
:103870002A492DE04FF40070A0610020009000E084
:10388000009600231A4619462046FFF797FF244961
:103890002046FFF7ABFF2046FFF793F807B0BDE8DF
:1038A000F04FFDF73BBA1C49091D0A6842F48042FB
:1038B0000A600A6822F480420A60174910310A68D7
:1038C00042F480420A60096801F480410091154980
:1038D0002160CDE90065002302225946FDF7F3FA85
:1038E000CDE900650023022248460599FDF7EBFA71
:1038F000CDE900650023022240460699FDF7E3FA70
:103900000126CDE900650023022239465046FDF725
:10391000DAFA7F1CB4D1ADE7143802400030014020
:10392000809698000038004010B5FDF703FFBDE811
:103930001040FFF7A5B8000030B5244895B00168E5
:1039400041F080510160006800F0805014902048E0
:10395000016821F4C05141F4006101600124052097
:10396000CDE900040220C5030294CDE909054FF416
:1039700040200B90A0050C906846FEF733F90F200D
:103980000D9003200E9000200F90109011900121B7
:103990000DA8FDF7F1FF12A8CDE91245FDF738FF9C
:1039A000FEF7D4F84FF47A71B0FBF1F0FFF754F85A
:1039B0000420FFF744F80320FDF710FF0022114612
:1039C000501EFDF7EBFE15B030BD0000243802405C
:1039D0000070004038B52E48016841F08051016008
:1039E000006800F0805000902A48016821F4C0511E
:1039F00041F40061016026492439086840F48030B0
:103A00000860234C4FF400321034012092FAA2F3E4
:103A1000B3FA83F343F020035B0901D00B6800E0A5
:103A2000236892FAA2F5B5FA85F505F01F0500FAAC
:103A300005F52B42EAD04FF0807292FAA2F2164BB3
:103A4000B2FA82F243F822004FF0007393FAA3F225
:103A5000B2FA82F242F02002520901D00A6800E074
:103A6000226893FAA3F5B5FA85F505F01F0500FA6B
:103A700005F52A42EAD006481C38016841F00301E6
:103A800001600168C1F381010329FAD138BD00004A
:103A90002438024000700040000047420F4801688F
:103AA00041F4807101600D4908310A680C4B1A40DD
:103AB0000A6002680B4B1A400260026822F48022FE
:103AC0000260086820F47D0008600020091D08607D
:103AD00005494FF000600860704700000038024060
:103AE0000CC0FF88FEFFFEEE08ED00E00148FFF786
:103AF00024B800008C0400200148FFF71EB8000025
:103B0000C404002070B502684FF08046134B144C7B
:103B1000B04203D0984201D0A04205D122F07005F6
:103B20004A682A43B0420CD098420AD0A04208D03A
:103B30000C4B984205D00C4B984202D00B4B98424C
:103B400003D122F44073CA681A4302608A68C262D1
:103B5000096881620121416170BD000000040040DC
:103B60000008004000080140000C01400010014026
:103B7000134910B509684FF47A42B1FBF2F21149CA
:103B80004FF08043521E0B604FF0FF3303EB801069
:103B9000C86000200861C1E901200846FEF774FFF3
:103BA00010B109A000F0D6F80648FEF7B9FF0028CA
:103BB00004D0BDE810400AA000F0CCB810BD000051
:103BC0004C0300208C040020B6A8CAB1C6F732B35B
:103BD000F5CABCBBAFCAA7B0DCA3A10D0A000000A8
:103BE000B6A8CAB1C6F732C6F4B6AFD6D0B6CFCAF9
:103BF000A7B0DCA3A10D0A0000F0BABD10B5134CAC
:103C00006068002820D0FFF7F3FC616800220B6891
:103C1000834201D80A6001E0181A08600A7204E0C1
:103C200001696160C06800B18047606800280BD0FE
:103C300001680029F4D0017A012905D0012101721F
:103C4000BDE8104000F004B810BD0000640300207F
:103C500010B506490446002008702068FFF784FC70
:103C60002060BDE81040FFF73DBD00006403002068
:103C7000034A0146002012680A4200D00120704722
:103C80000038014000B52020FFF7F2FF00280FD0D8
:103C900000F014F80849074B8A889854521C92B2D5
:103CA00000208A80012388704B70FF2A00D388800F
:103CB00000BD0000FC04002044030020024800680E
:103CC000C0F308007047000004380140FEE7000020
:103CD00038B51C4C0546E06890B9FFF723F804F5A9
:103CE0001670202300901A4602213020FFF738F882
:103CF00001211548FDF77CF900211448FDF778F9FA
:103D00000120FDF717FCE068401CE060B0EB550FA8
:103D100011D9A8420FD20E48282300901A4601213B
:103D20002C20FFF71DF800210748FDF761F901215C
:103D30000648FDF75DF9E068A84201D90020E0607F
:103D400038BD000000000020E8030020F40300203C
:103D5000900100200FB4054B10B503A9044A029846
:103D600000F0DEF810BC5DF814FB000035470008D9
:103D70006C0300200FB4084B10B504A902AA0398E5
:103D800000F0CEF8044602A9002000F060FC2046B6
:103D900010BC5DF814FB00004F46000802E008C8A4
:103DA000121F08C1002AFAD170477047002001E0B5
:103DB00001C1121F002AFBD1704700002DE9FF5FEF
:103DC000DDE90220010DDDF838B0024318D044F6D9
:103DD0001050A1F2FF3141430D140F98012820D05B
:103DE000A5EB0B00401C5FEA000A4FF00004474EB1
:103DF000DFF81C91A046504616D5CAF1000728E00E
:103E00000F98012443A2012808D0002100980F9B9D
:103E1000C0E90021C0E90243BDE8FF9F6FEA0B0142
:103E2000F4E7CBF10000DEE7074612E0F80707D021
:103E30002246334640464946FCF789FA8046894681
:103E40002246334610461946FCF781FA04460E46D0
:103E50007F10002FEAD1DDE90201BAF1000F4246DE
:103E60004B4602DAFCF773FA01E0FCF7E2FA04468B
:103E70000E460022284BFCF7F7FB03D84FF0FF302B
:103E8000014607E00022254B20463146FCF7B8F9F1
:103E9000FCF76EFD102409E0002C0ADB0A22002347
:103EA000FCF72CFC019B30321A55641E50EA0102CB
:103EB000F2D1641C019AC4F1110314440F9A012A2F
:103EC00003D0012208430DD10AE0084304D00020AA
:103ED0004FF0110B0F9080E7A3EB0B056D1E0DE06B
:103EE0005B4504DD4FF0000205F1010504E003DA53
:103EF0004FF00002A5F10105002AECD000980F99BF
:103F0000C0E90231C0E9004586E700000000244016
:103F10000000F03F300000000000F0430000E03FF0
:103F20002DE9FF4F95B09B468946064600250FE2D6
:103F3000252877D100242746F84A0121059400E07E
:103F4000044316F8013F203B01FA03F01042F7D179
:103F500030782A2811D06FF02F033078A0F130028A
:103F6000092A16D8059A44F0020402EB820203EBF8
:103F700042021044761C0590EFE759F8042B059295
:103F8000002A03DA504244F40054059044F002043D
:103F9000761C30782E2816D116F8010F44F0040450
:103FA0002A280DD06FF02F023078A0F13003092BB2
:103FB00009D807EB870302EB4303C718761CF3E726
:103FC00059F8047B761C30786C280FD006DC4C281E
:103FD00017D068280DD06A2814D104E0742810D0B6
:103FE0007A280FD10DE044F400140AE044F4801460
:103FF00001E044F440147278824202D104F5801446
:10400000761C761C307866280BD013DC582877D0C5
:1040100009DC002875D04528F6D04628F4D047287A
:104020001AD19DE118E0632835D0642879D065283D
:1040300012D195E1702873D008DC6728F1D0692887
:104040006FD06E280DD06F2806D1B5E073282CD024
:10405000752875D0782874D05A46179990476D1CEA
:1040600075E1C4F30250022809D003280DD0D9F815
:10407000001004280DD00D6009F1040967E1D9F89A
:104080000010EA17C1E90052F6E7D9F800100D80D8
:10409000F2E70D70F0E719F8041B8DF8001000200E
:1040A0008DF80100EA46012003E059F804AB4FF017
:1040B000FF3061074FF0000102D40DE008F101016B
:1040C0008846B9420FDA8045F8DB1AF80810002953
:1040D000F4D108E008F1010188468142FADB1AF8C0
:1040E00008100029F6D105985B46A0EB0807214689
:1040F0003846179A00F094FA284400EB080507E0C8
:104100004DE029E10DE01AF8010B5A461799904746
:10411000B8F10108F7D25B4621463846179A13E1F9
:1041200042E00A220092C4F302524FF0000A022A2F
:1041300008D059F804CB032A4FEAEC710AD00DE0FD
:1041400029E02AE009F1070121F00702F2E802C1A3
:10415000914609E00FFA8CFC4FEAEC71042A03D176
:104160004FFA8CFC4FEAEC71002907DA0A4600216D
:10417000DCF1000C61EB02012D2202E0220504D5E6
:104180002B228DF80420012203E0E20701D0202237
:10419000F7E7904659E00A2102E010220DE01021D5
:1041A0004FF0000A00910BE010224FF0000A44F09B
:1041B00004040827009203E008224FF0000A00924E
:1041C000C4F30252022A05D059F804CB0021032A75
:1041D00008D009E009F1070121F00702F2E802C165
:1041E000914605E01FFA8CFC042A01D10CF0FF0C6B
:1041F0004FF00008220728D5702806D0009B83F0D6
:10420000100353EA0A0305D00EE040228DF8042083
:10421000012208E05CEA010206D030228DF8042079
:104220008DF8050002229046009B83F0080353EAB4
:104230000A030AD15CEA010201D1620705D53022E6
:104240008DF804204FF001087F1E582804D034A0B8
:1042500003900EA802900DE036A0F9E753466046A1
:10426000009AFCF74BFA84460398825C0298401E41
:10427000029002705CEA0100F0D1029806A9081AC7
:1042800000F1200A600702D524F4803400E0012701
:10429000574502DDA7EB0A0000E0002000EB0A0111
:1042A000009005984144401A0590E00306D45B460F
:1042B0002146179A059800F0B3F90544002706E057
:1042C00001A85A46C05D179990476D1C7F1C474551
:1042D000F6DBE0030CD55B462146179A059800F003
:1042E0009FF9054404E030205A46179990476D1C09
:1042F0000099481E00900029F5DC08E00298029918
:104300005A460078491C0291179990476D1CBAF1E2
:104310000001AAF1010AF1DC65E1000009280100B1
:10432000303132333435363738396162636465662B
:1043300000000000303132333435363738394142ED
:10434000434445460000000000F058F90544761C3F
:10435000307800287FF4ECAD19B02846BDE8F08F26
:10436000620700D4062709F1070222F0070CFCE8D7
:104370000223E14603F000485FEA080C02D00FF286
:10438000702C0DE05FEA045C02D50FF2682C07E0A8
:104390005FEAC47C02D00FF2602C01E0AFF2700C37
:1043A0004FF0FF3823F00043CDF850C065280CD003
:1043B00006DC452809D046281DD047283DD13DE0E0
:1043C000662818D067287ED138E00021112F01DB44
:1043D000112000E0781CCDE9000106A90EA8FFF726
:1043E000EDFCDDE90F010E9A03910021009207F127
:1043F000010A04914DE04FF000400097CDE9011013
:1044000006A90EA8FFF7DAFCDDE90F0203920E9B66
:1044100011990022DDF80CA00093049211B9791CC7
:1044200000EB010AB7EB0A0004D4C0F1FF3007F13A
:10443000010A0490AAEB0700019044E0012F00DA82
:1044400001270021112F01DD112000E03846CDE9C0
:10445000000106A90EA8FFF7B1FCDDE90F010E9AD5
:104460000391002104910092BA4621070CD40399CC
:10447000514500DA8A46BAF1010F05DD009AAAF12A
:104480000101515C302908D0B84202DA10F1040F62
:1044900006DA0121CDE9011015E0AAF10101E9E7F1
:1044A000002805DC049901440491AAEB000102E014
:1044B000411C514500DD8A460499401A401C019078
:1044C0004FF000400290200704D40198504501DBD2
:1044D000CDF8048000208DF84F0002980DF14F07B1
:1044E000B0F1004F25D02B200E9002984FF002081B
:1044F00000280CDA404202902D200E9007E00A219D
:104500000298FCF7E5F83031029007F8011DB8F188
:104510000001A8F10108F2DC02980028EFD1791E11
:104520000E980870307800F0200040F0450007F841
:10453000020D12A8C01B00F107081498007800B102
:10454000012000EB0A01019801EBE071059841445C
:10455000401A401E0590E00306D45B462146179A98
:10456000059800F05DF805441498007818B15A4693
:10457000179990476D1CE00324D55B462146179A96
:10458000059800F04DF805441CE00498002807DB6E
:10459000DDE90301884203DD0098405C179901E0E2
:1045A000179930205A469047049805F10105401CA0
:1045B00004900198401E019004D12E205A4617996C
:1045C00090476D1CBAF10001AAF1010ADDDC05E09B
:1045D00017F8010B5A46179990476D1CB8F1000166
:1045E000A8F10108F4DC5B462146179A0598ABE672
:1045F0002D0000002B000000200000002DE9F041FC
:10460000044600251E461746880404D405E03946B2
:104610002020B0476D1C641EF9D52846BDE8F08106
:104620002DE9F041044600251E469046C80301D5F9
:10463000302700E02027880404D505E041463846AD
:10464000B0476D1C641EF9D52846BDE8F0810A68A4
:10465000531C0B60107070472DE9F041C1F30A52F2
:10466000A2F2FF362F4A304B0D460446142E2FDAA5
:10467000002E12DAFBF7C4FD00221346FBF7F4FF0D
:104680004CD2002DBCBF4FF00045002446DB55EA5C
:10469000040018BF254D19D140E0DFF894C02CFA72
:1046A00006F705EA070C5CEA040C08BFBDE8F081D8
:1046B000FBF7A6FD00221346FBF7D6FF2ED2002DF6
:1046C00003DD4FF48010F0400544BD43002425E095
:1046D000332EC8BFBDE8F081A6F1140C4FF0FF37B0
:1046E00027FA0CF73C4208BFBDE8F081FBF72CFE2F
:1046F00000221346FBF7B8FF10D2002D0DDD142E5B
:1047000008BF6D1C09D0C6F13400012101FA00F088
:104710002044A04238BF6D1C0446BC4329462046B5
:10472000BDE8F0819C7500883CE4377E0000F03FD6
:10473000FFFF0F0004490A685206FCD5024AC1B2C5
:10474000121D116070470000003801400148807858
:1047500070470000540300200148C07870470000F3
:1047600054030020014800797047000054030020E2
:1047700005490868401C08600A2803D30020086027
:1047800000F00CB97047000024030020F0B585B09C
:104790004FF400500024012503268DE8710069467E
:1047A0000948FCF7F1FE02208DE87100074F6946C9
:1047B0003846FCF7E9FE20208DE87100694638464E
:1047C000FCF7E2FE05B0F0BD000802400004024024
:1047D00008B5FEF75DFAFEF7EEFAFEF7A3FAFCF76E
:1047E0001DF9344C00F04EF9FEF764FA207880B3DE
:1047F000FCF74EFAFCF73CFAFBF70BFF00222E4BBE
:10480000FBF7A5FD00222D4BFBF7A1FDFBF744FFB5
:104810000546FBF7FEFE02460B4629A12B48FFF793
:10482000A9FA1D2206211020FEF782FB1E22062176
:104830002020FEF77DFB254A06213020FEF7F2FB03
:1048400023492846FBF784FCFBF797FEFFF740FA65
:10485000C8E7FFE700211F48FCF7CAFB00211E48FC
:10486000FCF7C6FB194A00214020FEF7DBFB60780D
:10487000012804D0022805D003280CD117E00D48E8
:10488000103001E00B489030202300901A4602219E
:104890003020FEF765FA114A06213020FEF770FB42
:1048A0000E4A062120324020FEF76AFB9AE70C48A8
:1048B000EAE700000000002000000440000059402A
:1048C0003A252E32664C75780000000070030020F7
:1048D00000002041E8030020F4030020D80200205B
:1048E0001001002001490020887070475403002007
:1048F00001490020C870704754030020014900207E
:1049000008717047540300202DE9F04D07460E460C
:10491000FBF7EAFF04460D463A463346FBF714FD23
:10492000DFF86CA0DFF86CB01B4B0746884616F02A
:10493000004F4FF000020AD0FBF77EFE0AD900229A
:104940005B4638464146FBF78FFE1BD212E0FBF771
:1049500073FE08D20022534620462946FBF7F1FC9D
:1049600004460D460EE000225B4638464146FBF702
:104970007BFE07D80022534620462946FBF740FC21
:1049800004460D463146204665F31E01BDE8F08D14
:104990000000F03F0000E03F0000E0BF2DE9F041E3
:1049A0004FF400513148FCF7B5FE314C012600258B
:1049B0006179012900D110B1A57149B10AE0A0794E
:1049C000401CC0B2A071022804D3A670657101E03A
:1049D000012809D0E571274F02213846FCF79AFEDD
:1049E000217A012908D008E0E079401CC0B2E071CA
:1049F0000228F0D36671EEE710B1657249B10AE0A2
:104A0000607A401CC0B26072022804D3E67025723E
:104A100001E0012808D0A57220213846FCF77AFE73
:104A2000E17A012908D008E0A07A401CC0B2A07247
:104A30000228F1D32672EFE710B1257349B10AE0DD
:104A4000207B401CC0B22073022804D32671E5727B
:104A500001E0012802D06573BDE8F081607B401C55
:104A6000C0B260730228F7D3E672F5E7000802408F
:104A70005403002000040240014908607047000010
:104A80003C03002008B50120FCF754FD124800212A
:104A90008268521C8260642A03D10279521C02711E
:104AA000816002793C2A03D1C278521CC270017124
:104AB000C2783C2A03D18278521C8270C1708278FD
:104AC000182A00D1817001790091C378827803A1FE
:104AD0000648FFF74FF908BD00000020253032647A
:104AE0003A253032643A25303264000070030020E9
:104AF0001F1C1F1E1F1E1F1F1E1F1E1F1F1D1F1ED0
:104B00001F1E1F1F1E1F1E1F030406080C10182047
:104B10003000000000000000000102030406070846
:104B2000090000000000000000000000000000007C
:104B300000000000F800000000000000333000001A
:104B40000000100C06100C06000000000000000021
:104B50000040C07840C0784000043F04043F040493
:104B600000007088FC08300000001820FF211E00A3
:104B700000F008F000E018000000211C031E211EB8
:104B80000000F00888700000001E2123241927214E
:104B90001010160E000000000000000000000000D1
:104BA00000000000E0180402000000000718204088
:104BB0000000020418E00000000040201807000078
:104BC00000404080F0804040000202010F010202DC
:104BD00000000000F0000000000101011F010101C0
:104BE00000000000000000000080B0700000000025
:104BF00000000000000000000000010101010101AF
:104C00000100000000000000000030300000000043
:104C10000000000000806018040060180601000019
:104C20000000E010080810E000000F102020100F16
:104C300000001010F8000000000020203F2020009D
:104C400000007008080888700000302824222130F5
:104C50000000300888884830000018202020110EFD
:104C6000000000C02010F8000000070424243F24A6
:104C70000000F80888880808000019212020110E7B
:104C80000000E0108888180000000F112020110E8D
:104C90000000380808C83808000000003F00000085
:104CA000000070880808887000001C222121221C46
:104CB0000000E010080810E0000000312222110F6F
:104CC00000000000C0C00000000000003030000004
:104CD0000000000080000000000000806000000074
:104CE000000000804020100800000102040810208D
:104CF00000404040404040400004040404040404D8
:104D0000000008102040800000002010080402016C
:104D100000007048080808F000000000303601006C
:104D200000C030C828E810E0000718272423140B1F
:104D3000000000C038E0000000203C2302022738B9
:104D40002008F8888888700000203F202020110E5D
:104D500000C0300808080838000718202020100874
:104D60000008F808080810E000203F202020100F5D
:104D70000008F88888E8081000203F202023201829
:104D80000008F88888E8081000203F200003000091
:104D900000C03008080838000007182020221E0232
:104DA0000008F808000008F808203F210101213F11
:104DB00020000808F8080800000020203F202000FC
:104DC0000000000808F8080800C08080807F00000C
:104DD0000008F888C028180800203F200126382045
:104DE0000008F8080000000000203F2020202030AC
:104DF0000008F8F800F8F80800203F003F003F20C6
:104E00000008F830C00008F808203F200007183FCD
:104E100000E01008080810E0000F10202020100FFC
:104E20000008F808080808F000203F2101010100EF
:104E300000E01008080810E0000F18242438504F34
:104E40000008F8888888887000203F2000030C3014
:104E50002000708808080838000038202121221C12
:104E600000180808F8080818000000203F2000007B
:104E70000008F808000008F808001F202020201F64
:104E8000000878880000C83808000007380E0100C4
:104E900000F80800F80008F800033C0700073C038E
:104EA00000081868808068180820302C03032C3014
:104EB000200838C800C83808000000203F20000043
:104EC0000010080808C838080020382621202018BB
:104ED00000000000FE020202000000007F4040408F
:104EE00000000C30C000000000000000010638C0C7
:104EF0000000020202FE000000004040407F00006F
:104F00000000000402020204000000000000000093
:104F10000000000000000000008080808080808011
:104F200080000202040000000000000000000000F9
:104F30000000008080808000000019242222223F8F
:104F40002008F8008080000000003F112020110E92
:104F5000000000008080800000000E112020201141
:104F600000000000808088F800000E112020103F13
:104F7000200000808080800000001F222222221357
:104F800000008080F0888888180020203F202000C2
:104F9000000000808080808000006B949494936077
:104FA0000008F8008080800000203F210000203FA2
:104FB0002000809898000000000020203F20200062
:104FC00000000000809898000000C08080807F0072
:104FD0000008F8000080808000203F24022D30204F
:104FE00000000808F8000000000020203F202000FA
:104FF000008080808080808000203F20003F200053
:105000003F8080008080800000203F210000203F02
:10501000200000808080800000001F202020201FB2
:1050200000808000808000000080FFA12020110E01
:10503000000000008080808000000E112020A0FF72
:1050400080808080008080800020203F212000011F
:1050500000000080808080800000332424242419F4
:1050600000008080E0808000000000001F20200001
:10507000008080000000808000001F202020103F62
:1050800020808080000080808000010E30080601B2
:105090000080800080008080800F300C030C300F77
:1050A0000000808000808080000020312E0E3120A2
:1050B00000808080000080808080818E70180601D2
:1050C0000000808080808080000021302C222130F0
:1050D0000000000000807C020200000000003F4051
:1050E0004000000000FF00000000000000FF000082
:1050F000000002027C800000000040403F000000F1
:10510000000006010102020404000000000000008B
:105110000040445465C664544400FC4444C44240C6
:10512000000000000000000000000000000000007F
:105130000020124A827F020A92601F0000FF0000D6
:10514000000000000000000000000000000000005F
:105150000020202020202020FF2020202020202090
:10516000000000000000000000000000000000003F
:105170000080804020100C0300030C102040808031
:10518000000000000000000000000000000000001F
:105190000000FE0222DA0680888888FF88888880DE
:1051A00000000000000000000000000000000000FF
:1051B0000000FF08100807007C40407F4040FC00D2
:1051C00000000000000000000000000000000000DF
:1051D0000020A4A4A4FFA4B42884708F0808F808B1
:1051E00000000000000000000000000000000000BF
:1051F00000040A49887E0504844020130C33408053
:10520000000000000000000000000000000000009E
:1052100000040424B4ACA4A5A6A4A4A4B464040407
:10522000000000000000000000000000000000007E
:1052300000000000FF0A0A0A0A0A4A8A7F000000EA
:10524000000000000000000000000000000000005E
:10525000002424A4FEA3220022CC0000FF000000B2
:10526000000000000000000000000000000000003E
:1052700000080601FF00010404040404FF02020206
:10528000000000000000000000000000000000001E
:1052900000101010FF109008888888FF8888880800
:1052A00000000000000000000000000000000000FE
:1052B000000444827F01808040432C102846818076
:1052C00000000000000000000000000000000000DE
:1052D00000000000008080C0C0E0E0F0F0000000AE
:1052E00000000000000000000000000000000000BE
:1052F00000000000000101030307070F0F0000007A
:10530000000000000000000000000000000000009D
:1053100000407C407F484840F2121AD61212F20236
:10532000000000000000000000000000000000007D
:1053300000908E404F201E804F20180710204F8075
:10534000000000000000000000000000000000005D
:10535000000014A4442434AD6624940444A414002E
:10536000000000000000000000000000000000003D
:105370000008090808090909FD09090B08080908B6
:10538000000000000000000000000000000000001D
:1053900000008060F807404848E85F4848484040BF
:1053A00000000000000000000000000000000000FD
:1053B00000010000FF0000020B1222D20A060000CA
:1053C00000000000000000000000000000000000DD
:1053D000000000FC04D4545454D4047F84C5360423
:1053E00000000000000000000000000000000000BD
:1053F000008866010063828292AB8482C10224CF5E
:10540000000000000000000000000000000000009C
:105410000080809E9292929EE0809EB2D2929E8068
:10542000000000000000000000000000000000007C
:10543000000808F4949292F10001F2929494F80812
:10544000000000000000000000000000000000005C
:10545000002424A4FE232200F01010FF1010F000FE
:10546000000000000000000000000000000000003C
:1054700000080601FF010600070202FF0202070002
:10548000000000000000000000000000000000001C
:105490000000101092543010FF1030549210100081
:1054A00000000000000000000000000000000000FC
:1054B000008485454424140C060C1424444584843B
:1054C00000000000000000000000000000000000DC
:1054D0000088681FC80810C85452D1129408D01010
:1054E00000000000000000000000000000000000BC
:1054F00000091909FF0500FF1292FF005F807F007D
:10550000000000000000000000000000000000009B
:10551000000808080808F8898E888888880808081C
:10552000000000000000000000000000000000007B
:105530000000804020180700004080403F0000002D
:10554000000000000000000000000000000000005B
:1055500000101090909090901010FF1010111610E5
:10556000000000000000000000000000000000003B
:1055700000002060203F10101000030C102040F8A5
:10558000000000000000000000000000000000001B
:1055900000404042CC0000FC24A4242222A362004C
:1055A00000000000000000000000000000000000FB
:1055B000000040201F205847504845424548504071
:1055C00000000000000000000000000000000000DB
:1055D000000000FE0202F2121212F20202FE0000AD
:1055E00000000000000000000000000000000000BB
:1055F0000000007F2020272424242720207F000073
:10560000000000000000000000000000000000009A
:10561000000000000080402090482412090402008D
:10562000000000000000000000000000000000007A
:1056300000000000000001020409122448102000AC
:10564000000000000000000000000000000000005A
:10565000000000020409122448902040800000004D
:10566000000000000000000000000000000000003A
:10567000000000201048241209040201000000006C
:10568000000000000000000000000000000000001A
:10569000001060028C0000FE9292929292FE000036
:1056A00000000000000000000000000000000000FA
:1056B0000004047E01407E42427E427E42427E40A1
:1056C00000000000000000000000000000000000DA
:1056D000000000FC242424FC252624FC242424048B
:1056E00000000000000000000000000000000000BA
:1056F0000040308F80844C55252525554C80808076
:105700000000000000000000000000000000000099
:10571000001060028C00FE929292929292FE000023
:105720000000000000000000000000000000000079
:105730000004047E014448507F40407F504844406C
:105740000000000000000000000000000000000059
:10575000000000C038000000FF00004020180000DA
:105760000000000000000000000000000000000039
:105770000080814020100C0300030C10204080802A
:105780000000000000000000000000000000000019
:1057900000807000FF1008209088874404948C805B
:1057A00000000000000000000000000000000000F9
:1057B0000080601807083000FF444440404444FF24
:1057C00000000000000000000000000000000000D9
:1057D00000000000000000C03FC00000000000000A
:1057E00000000000000000000000000000000000B9
:1057F00000804020100C03000000030C10204080AB
:105800000000000000000000000000000000000098
:1058100000008060F807101010D0FFD010101000AA
:105820000000000000000000000000000000000078
:1058300000010000FF1008040B08FF080B0408100B
:105840000000000000000000000000000000000058
:10585000004040424458C0407F40C050484640400D
:105860000000000000000000000000000000000038
:10587000008080402018070000003F4040404078F2
:105880000000000000000000000000000000000018
:105890000000FE424242FE0042A29E82A2C2BE0020
:1058A00000000000000000000000000000000000F8
:1058B00000806F080828CF00002FC8080828CF00F4
:1058C00000000000000000000000000000000000D8
:1058D00000000202F2121212F2020202FE020202A0
:1058E00000000000000000000000000000000000B8
:1058F000000000000F0404040F0040807F0000003F
:105900000000000000000000000000000000000097
:1059100000807000FF10289827C43C907F901214DC
:105920000000000000000000000000000000000077
:1059300000806018070898640328C621C01126C893
:105940000000000000000000000000000000000057
:105950000020104C4754545454545454D40404005C
:105960000000000000000000000000000000000037
:105970000000000000000000000000000F3040F0B8
:105980000000000000000000000000000000000017
:1059900000100C4424140405060404142444140CBC
:1059A00000000000000000000000000000000000F7
:1059B00000004040414141417F4141414140400060
:1059C00000000000000000000000000000000000D7
:1059D000000000FE121292929292FF91919191100A
:1059E00000000000000000000000000000000000B7
:1059F0000080601F80805F4020100E1010205F80AC
:105A00000000000000000000000000000000000096
:105A100000202020BEAAAAAAAAAAAAAABE202020A4
:105A20000000000000000000000000000000000076
:105A300000008080AFAAAAAAFFAAAAAAAF8080000D
:105A40000000000000000000000000000000000056
:105A50000000000000000000000000000000000046
:105A60000000000000000000000000000000000036
:105A70000000000000000000000000000000000026
:105A80000000000000000000000000000000000016
:105A90000000003C24242424FF242424243C00006F
:105AA00000000000000000000000000000000000F6
:105AB00000001F0909090909FF09090909091F004F
:105AC00000000000000000000000000000000000D6
:105AD000000000FC040404040404040404FC0000AA
